:10000000000000204D1D0000811A0000811A000030
:10001000811A0000811A0000811A0000811A000074
:10002000811A0000811A0000811A0000811A000064
:10003000811A0000811A0000811A0000911A000044
:10004000811A0000811A0000811A0000811A000044
:10005000811A0000811A0000811A0000811A000034
:10006000811A0000811A0000811A0000811A000024
:10007000811A0000811A0000811A0000811A000014
:10008000811A0000811A0000811A0000811A000004
:10009000811A0000811A0000811A0000811A0000F4
:1000A000811A0000811A0000811A0000811A0000E4
:1000B000811A0000811A0000811A0000811A0000D4
:1000C000811A0000811A0000811A0000811A0000C4
:1000D000811A0000811A0000811A0000811A0000B4
:1000E000811A0000811A0000811A0000811A0000A4
:1000F000811A0000811A0000811A0000811A000094
:10010000811A0000811A0000811A0000811A000083
:10011000811A0000811A0000811A0000811A000073
:10012000811A0000811A0000811A0000811A000063
:10013000811A0000811A0000811A0000ED1E0000E3
:10014000811A0000811A0000811A0000811A000043
:10015000811A0000811A0000811A0000811A000033
:10016000811A000025240000811A0000811A000075
:10017000811A0000811A0000811A0000811A000013
:10018000811A0000811A0000811A0000811A000003
:10019000811A0000811A0000811A0000811A0000F3
:1001A0007D1E0000111E0000811A0000811A00004F
:0C01B000811A0000811A0000811A000072
:10040000FFFFFFFFFFFFFFFFFFFFFFFF7EFBFFFF81
:100440002DE9F04F49494A4B8A684A4D9888DC8823
:10045000DFF828E142F020028A6083B000212A6898
:100460001E6801928C46884642F2107A4FF00109CC
:100470000091019F2A68D21B3F4FBA4254D82A6884
:10048000921B5245F5D9DEF8102093F808B002F01F
:100490000202BBF1030F06D8DFE80BF0332D3B025D
:1004A0000AB183F80880DEF8102093F809B002F052
:1004B0008002BBF1030F06D8DFE80BF01217090228
:1004C0000AB183F809802E684FF0010CD1E7002AA9
:1004D0003DD1621C642C92B243D814460121F2E74C
:1004E000002AF0D183F80990F7E7002A0CBF022216
:1004F00000225A72E7E7002A0CBF022200221A7279
:10050000D1E7002ACFD11046012283F8089000924B
:10051000C9E7BAB900F1010B64281FFA8BFB18D8A0
:10052000012258460092BEE7009FBCF1000F00D0A8
:100530001E6007B1988001B1DC8000229A7203B07E
:10054000BDE8F08F00221A4482F8088091E701226A
:10055000F9E7012000901A444FF00307584617723C
:1005600087E70121144683460A46F4E780F00F40EE
:100570000086FF1F4486FF1FDF930400C0F00F407A
:100580002DE9F04F49494A4B4A684A4D9888DC8822
:10059000DFF828E142F020024A6083B000212A6897
:1005A0001E6801928C46884642F2107A4FF001098B
:1005B0000091019F2A68D21B3F4FBA4254D82A6843
:1005C000921B5245F5D9DEF8102093F808B002F0DE
:1005D0000202BBF1030F06D8DFE80BF0332D3B021C
:1005E0000AB183F80880DEF8102093F809B002F011
:1005F0008002BBF1030F06D8DFE80BF012170902E7
:100600000AB183F809802E684FF0010CD1E7002A67
:100610003DD1621C642C92B243D814460121F2E70A
:10062000002AF0D183F80990F7E7002A0CBF0222D4
:1006300000225A72E7E7002A0CBF022200221A7237
:10064000D1E7002ACFD11046012283F8089000920A
:10065000C9E7BAB900F1010B64281FFA8BFB18D85F
:10066000012258460092BEE7009FBCF1000F00D067
:100670001E6007B1988001B1DC8001229A7203B03C
:10068000BDE8F08F00221A4482F8088091E7012229
:10069000F9E7012000901A444FF0030758461772FB
:1006A00087E70121144683460A46F4E780F00F40AD
:1006B0000086FF1F4486FF1FDF930400C0F00F4039
:1006C00038B504460D4603F0C7F800B92C4620465D
:1006D00038BD00BF10B5044603F032F9014620468C
:1006E00002F0F8FCBDE8104002F0A6BD034A116814
:1006F00013685B1A8342FBD3704700BF4486FF1F19
:100700002DE9F04F4C494D4B0C681E68B1F8048040
:10071000B1F80690DFF828C183B04FF0000A4FF41B
:100720007A7202FB00F0D64642F21077CDF804A0B0
:100730001A68921B824241D21A68121BBA42F7D938
:10074000DCF810200D7A02F00202032D07D8DFE852
:1007500005F02311170212B14FF000020A72DCF803
:1007600010204D7A02F08002032D20D8DFE805F03A
:10077000444A391B002A0CBF022200220A72EEE70B
:10078000002A45D108F10105ADB2B8F1640FA846C1
:100790004FD801220192E2E7002AE0D14FF0010593
:1007A0000D729046F5E712B14FF000024A721C68D4
:1007B0001A68921B82424FF0010EBDD3DDF804B0DF
:1007C000BEF1000F00D00C60BBF1000F01D0A1F80A
:1007D0000480BAF1000F01D0A1F8069003B0BDE883
:1007E000F08FDAB909F10102B9F1640F92B217D8AA
:1007F00091464FF0010ADAE7002AD8D14FF0010400
:100800004C72F5E7002A0CBF022200224A72CEE7A2
:1008100000220A444FF00005157289E70122F8E72B
:100820004FF0010A914652460A444FF003051572F3
:100830007EE701250195F7E70086FF1F4486FF1F2D
:10084000C0F00F40044B054919604FF07E52012162
:1008500019719A60704700BF0080FF1F0000B4420A
:1008600008B501F0E3FB0448FFF734FF4FF4FA70DA
:10087000FFF746FF00BEFEE74450000010B5084CED
:10088000A37A03B910BD074A936843F0200393602D
:100890004FF49670FFF734FF0023A37210BD00BF22
:1008A0000086FF1F80F00F4010B5084CA37A03B1FB
:1008B00010BD074A536843F0200353604FF496700D
:1008C000FFF71EFF0123A37210BD00BF0086FF1FAC
:1008D00080F00F40F8B52B4C2169E06802F0F6FC7F
:1008E00020F000430646E169A069636102F0EEFC76
:1008F00020F00043236205463146304602F0F0FD09
:1009000029460646284602F0EBFD0146304602F035
:10091000DFFC03F085FA1C496062E06902F0E0FD4B
:1009200002F0BAFF18490746A06902F0D9FD02F0AB
:10093000B3FF16490546E06802F0D2FD02F0ACFFB5
:1009400012490646206902F0CBFD02F0A5FF301ADD
:10095000EB1B002883EAE375CCBF01214FF0FF3188
:100960000B4A002BA5EBE37580EAE076CCBF0123B0
:100970004FF0FF33A6EBE07611735373A662E56286
:10098000F8BD00BF0086FF1F14E0D645D0493345AF
:100990000080FF1FF8B5334C0D46A5612169E0606A
:1009A00002F094FC20F000430646E16963612846AA
:1009B00002F08CFC20F000432362054631463046AD
:1009C00002F08EFD29460646284602F089FD0146C2
:1009D000304602F07DFC03F023FA23496062E069AF
:1009E00002F07EFD02F058FF1F490746A06902F0A1
:1009F00077FD02F051FF1D490546E06802F070FDE9
:100A000002F04AFF19490646206902F069FD02F02A
:100A100043FFEB1B301A002883EAE37280EAE0719F
:100A2000A2EBE372A1EBE071CCBF01254FF0FF35E3
:100A30000F48A162002BCCBF01234FF0FF3391423E
:100A4000E2620573437306DD4A100023C4E90D1208
:100A500084F83030F8BD51100123C4E90D2184F829
:100A60003030F8BD0086FF1F14E0D645D04933452D
:100A70000080FF1FF8B52D4C03460D46E06823614A
:100A80001946E56102F022FC20F0004306462946A3
:100A9000A069636102F01AFC20F00043236205465E
:100AA0003146304602F01CFD29460646284602F033
:100AB00017FD0146304602F00BFC03F0B1F91C496A
:100AC0006062E06902F00CFD02F0E6FE184907469C
:100AD000A06902F005FD02F0DFFE16490546E06858
:100AE00002F0FEFC02F0D8FE12490646206902F030
:100AF000F7FC02F0D1FE301AEB1B002883EAE37505
:100B0000CCBF01214FF0FF310B4A002BA5EBE37561
:100B100080EAE076CCBF01234FF0FF33A6EBE0760E
:100B200011735373A662E562F8BD00BF0086FF1F14
:100B300014E0D645D04933450080FF1F2DE9F84F1A
:100B4000354F36490446786A02F0CAFCD7E90A985C
:100B5000214602F079FDC84504464046B8BF4846E4
:100B600002F06AFC0146204602F06EFD02F0BAFE79
:100B70002B4B97F83C107A6B97F830C0BD6B93F90C
:100B80000CA093F90DB0002938D1561E002A40D090
:100B9000244C254A45F6566EBCF1000F1BD0636805
:100BA0004D445B44A845636004DC23685344A5EBD3
:100BB000080523602368002B1BDB2368734518DCC2
:100BC000116813685B1A9842FBD8731EF6B11E4673
:100BD000BCF1000FE3D1236845445344A945236089
:100BE000E8DC63685B4463602368002BA5EB0905C0
:100BF000E3DAC7E90D65022387F83C30FA68BB6980
:100C00003A61FB61BDE8F84FFFF764BEBD637B63EB
:100C1000F4E74FF0FF33FAE70086FF1FC0E1644CB2
:100C20000080FF1F5886FF1F4486FF1F2DE9F041FB
:100C3000DFF8988098F80A3083BB1F4E1F4C01F0F4
:100C4000F5F91F483768256801F09EF80A20FFF77C
:100C500057FD23685B1BB3F57A7FFAD93368BB4233
:100C600002D037682568F4E7002001F08DF8642091
:100C7000FFF746FD134A002300213360C8F8101027
:100C80007360C8F81C1013605360FFF723FE6420E4
:100C9000FFF736FDBDE8F04101F0B6B90A4A9368A6
:100CA00043F0200393604FF49670FFF729FD002373
:100CB00088F80A30C1E700BF5086FF1F4486FF1F37
:100CC000C063FFFF5886FF1F80F00F400086FF1FA4
:100CD00070B53C4CFFF7AAFF94F83D50002D3CD076
:100CE0000D210025384802F0F5F902F0A5FA25613A
:100CF000E561FFF7EFFD354BA361E560FFF7EAFD26
:100D0000D4E90A239A421FDC03EBD3725210C4E9E0
:100D10000D32012184F830102D48FFF70FFF00231A
:100D20002361E361FFF7D6FD2A4A9368002143F06F
:100D30001003936084F83D100821274802F0CAF997
:100D4000BDE8704002F078BA02EBD2735B1000216C
:100D5000C4E90D2384F83010DEE70B2100261F487C
:100D600002F0B8F902F068FA2661E661FFF7B2FD19
:100D70001B4BA361E660FFF7ADFDD4E90A239A425D
:100D800017DD02EBD2735B10C4E90D2384F83050F9
:100D90001448FFF7D3FE00232361E361FFF79AFDB8
:100DA0000C4A5368012143F01003536084F83D104E
:100DB000C2E703EBD37252100121C4E90D3284F86B
:100DC0003010E5E70086FF1F5C500000000060C1A6
:100DD00000007A43C0F00F40785000006C500000D3
:100DE0000000E03F000048422DE9F04F614CA37A3B
:100DF00083B0002B40F09D800023E360A361FFF7E8
:100E000069FDD4E90A239A4240F38A8002EBD27347
:100E10005B10C4E90D23002184F83010564D57486B
:100E2000FFF78CFE00222B682668A188E088DFF897
:100E300060E101939446904642F2107A4FF0010926
:100E40000092019F2B68DB1B4D4FBB4255D82B688E
:100E50009B1B5345F5D9DEF8103094F808B003F029
:100E60000203BBF1030F06D8DFE80BF02D4135027A
:100E70000BB184F80880DEF8103094F809B003F064
:100E80008003BBF1030F06D8DFE80BF0121709024D
:100E90000BB184F809802E684FF0010CD1E7002BCC
:100EA00058D1431C64289BB25ED818460122F2E751
:100EB000002BF0D184F80990F7E7002B0CBF022338
:100EC00000236372E7E7002BD5D11946012384F88C
:100ED00008900093CFE7002B37D101F1010B642973
:100EE0001FFA8BFB38D8012359460093C3E7002B28
:100EF0000CBF022300232372BDE7009FBCF1000F4B
:100F000000D0266007B1A18002B1E0801D491E4AD1
:100F100000230B604B601360536003B0BDE8F08F9B
:100F200003EBD37252100121C4E90D3284F8301062
:100F300074E7164A936843F0200393604FF4967069
:100F4000FFF7DEFB0023A37256E70023234483F858
:100F5000088076E70123F9E70121009123444FF04F
:100F6000030759461F726CE7012218468B46134649
:100F7000F4E700BF0086FF1F4486FF1F0000C84241
:100F80009F8601005086FF1F5886FF1F80F00F408C
:100F9000C0F00F402DE9F04F864B8BB01A690692D6
:100FA000B1F1000BDA691B6C0592039340F32B82BD
:100FB000002308934FF07E5209934FF0FF330493C0
:100FC00007925B4600248346611E594411F8010FC5
:100FD000A0F12802322A00F2B780DFE802F092B5D1
:100FE000B5B5B5B5B5B5B5B5B5B5B5B5B5B5B5B5B1
:100FF000B5AAB5B5B5B5B5B5B5B5B5B51A1AB51A7D
:101000001AB5B51AB5B51AB5B5B5B5B5B5B51A1A97
:101010001A00611C8B42029040F38B800BEB0401A1
:10102000CBF1010909EB010411F8010F2028F9D0D7
:101030000928F7D02D2800F08B812B2800F08F8114
:10104000A34240F3908100220192013C0BEB040586
:101050004FF0000A4FF07E5109EB0506CDF800B0C5
:101060005746CB46084699460EE02E2A25D10BEB73
:1010700005063446BAF1000F02D04F4902F030FAAB
:101080004E454FF0010A18DA15F8012FA2F1300889
:101090005FFA88FCBCF1090F3446E6D80BEB050675
:1010A0003446BAF1000F02D0434902F019FA07EBB7
:1010B00087074E4508EB4707E6DB019ADDF800B0ED
:1010C00001464B4602B17F42029AA2F14600142823
:1010D00000F2B480DFE810F0FA00DE00B200CA00CF
:1010E000B600B200B2000F01B200B200A800B20018
:1010F000B200B200B200B200B200B20055003D0032
:101100007400611C8B4214DD0BF1FF350BEB040105
:101110001D444A788C1C292AA4EB0B0401F101011F
:1011200000F08C808D42F4D11BF80410292900F0C6
:101130002E84049B042B00F26681DFE813F0470144
:101140005E027D027D0255020134A3423FF73EAFAD
:10115000EFE73846CDE9001302F06EF9009902F08E
:1011600073FA019B154D0093A96802F06DFA2D7971
:10117000009B002D00F0E381A34205903FF724AFD0
:10118000D7E73846CDE9001302F056F9009902F08E
:101190005BFA019B094D0093A96802F055FA2D797D
:1011A000009B002D00F0C081A34206903FF70CAFDA
:1011B000BFE700BF0086FF1F000020410080FF1F27
:1011C0003846CDE9001302F037F9009902F03CFAF5
:1011D000019BBA4D0093A96802F036FA2E79009B64
:1011E000002E40F09F810146039802F071F8009BA9
:1011F00003900093B24B00219E7A02F00FFB009BFC
:10120000002840F0A781002E40F0C781A3423FF79D
:10121000DBAE049B042B00F2F680DFE813F0DC0069
:10122000A1030D020D02E5013846CDE9001302F0DD
:1012300003F9009902F008FA019B0790A3423FF7D7
:10124000C3AE76E73846CDE9001302F0F5F8009911
:1012500002F0FAF9019B0093984B996802F0F4F9B7
:10126000009B0990A3423FF7AFAE62E73846CDE955
:10127000001302F0E1F8009902F0E6F9019B0093F7
:101280008E4B996802F0E0F9009B0890A3423FF76B
:101290009BAE4EE7152F00F0DB8240F321815A2FE1
:1012A00000F0DD8240F3F0805B2F00F07E815C2F48
:1012B00040F0BF820093824B00221A61DA61FFF78F
:1012C00009FB009BA3423FF77FAE32E73846CDE9EA
:1012D000001302F0B1F8009902F0B6F9019B0093F7
:1012E000764B99681D4602F0AFF9009B2860A34237
:1012F0003FF76AAE1DE7082F00F05E8140F397804C
:10130000282F00F0878214DC1E2F00F09780272FF3
:1013100040F060820F216B48009301F0DBFE01F08A
:101320008BFF674B002183F83D10FFF7D1FC009B3A
:1013300084E7702F00F02783732F40F04B828A21BF
:101340006148009301F0C6FE01F076FF009B75E74F
:101350000134A34240F35A820122019275E601341E
:10136000A3423FF770AE029AA2F1460114293FF65C
:10137000E0AE01A252F821F07F19000045180000EC
:1013800033110000831900006D19000033110000B3
:1013900033110000D5170000331100003311000095
:1013A00071190000331100003311000033110000E7
:1013B000331100003311000033110000331100001D
:1013C0007B19000067190000771900003C4B9B7ADD
:1013D000002B40F0C1823A4B069ADA601C46059A0F
:1013E0009A61FFF777FAA26AE36A9A4240F33E8273
:1013F00002EBD2735B10C4E90D23002184F8301096
:101400003248FFF79BFB2E4B93F83C30012B00F04A
:10141000BB80002B00F0AF80022B72D01E212C4825
:1014200001F058FE0BB0BDE8F04F01F005BF042FEE
:101430000CDC032F10DA022F40F0CC810093FFF771
:10144000D3FC009BA3423FF7BFAD72E6052F00F02F
:10145000B380072F40F0BE81194A917A002900F02D
:10146000B181A3423FF7B0AD049B042BCBD801A2BE
:1014700052F823F0CD1300008B190000391600003C
:1014800039160000E91500001C2F40F0D281002120
:1014900008460093FFF77EFA0E480F4DFFF74EFB0C
:1014A0006420FFF72DF9009B0C480021A34229601E
:1014B0006960016041603FF787AD3AE60080FF1F39
:1014C0000086FF1F90500000B450000000007A43D7
:1014D000805100000000C8425086FF1F5886FF1F41
:1014E000002FC0F2A681042F40F3AD81142F40F0ED
:1014F000A081AB4A4FF07E51A34291603FF764ADAB
:1015000017E61C21A74801F0E5FD01F095FE0B212F
:10151000A54801F0DFFD01F08FFE0BB0BDE8F04FF4
:10152000FFF762BC039064E601460698009301F061
:10153000CFFE009B0690A3423FF746ADF9E501467A
:101540000598009301F0C4FE009B0590A3423FF76D
:101550003BADEEE5002E00F03581A3423FF734AD00
:10156000049B042B3FF64FAFDFE813F0F6014D006C
:10157000660066003E0004218C4801F0ABFD0BB014
:10158000BDE8F04F01F058BE0B21874801F0A2FDE5
:101590000BB0BDE8F04F01F04FBE0093FEF750FFD7
:1015A000009BA3423FF710ADC3E57D4A0021A34253
:1015B00011713FF709ADBCE57D4A917A0029ECD164
:1015C000A3423FF701AD049B042B3FF61CAF01A2E1
:1015D00052F823F0CD1300005F1900003916000007
:1015E00039160000E91500007249079801F078FFEC
:1015F00002F052F9FFF784F805E76D4B684D9B7ACE
:10160000002B00F0AD816A4B069ADA601C46059A01
:101610009A61FFF75FF9A26AE36A9A4240F3308168
:1016200002EBD2735B10C4E90D23002184F8301063
:101630002868FFF783FAE6E65D4C08992569284695
:1016400001F046FEE46909990746204601F040FE94
:1016500039468046284601F039FE41460546204677
:1016600001F034FE39460446069801F02FFE41464B
:101670008146059801F02AFE049B022B824600F069
:1016800009812946204602F0C9FB494606465046D4
:1016900002F0C4FB81464946304602F0D3F820B13F
:1016A0004846454901F014FE81464846314601F05E
:1016B0000DFE29468146284601F012FF21460546C7
:1016C000204601F00DFF0146284601F001FE02F020
:1016D000A7FB3A490446484601F002FF2146054669
:1016E000484601F0FDFE364901F0AEFF8246014654
:1016F000284602F0B1F800B95546284602F0D6FA5D
:1017000002F0CAF8031E00937FF77DAE01F094FE4D
:10171000049B0190032B009B00F0C680204D03F139
:10172000FF3A504601F088FE019901F08DFF4946CD
:1017300001F0D6FE314601F0CBFD834602F0F4FA0B
:101740000090584602F02CFB00998346204601F099
:10175000C7FE394601F0BCFD154B5946D8602046FE
:1017600001F0BEFE414601F0B3FD114B9861FFF759
:10177000B1F80F49D1E90A329A4234DB02EBD27355
:101780004FF001005B1081F830000AF1FF3A286841
:101790004A638B63FFF7D2F9BAF1FF3FC1D132E65A
:1017A0000080FF1F54510000745100004C51000094
:1017B0000086FF1F00007A44DA0FC9409A99194049
:1017C0000AD7A33B0093FEF7DBFE009BA3423FF743
:1017D000FBABAEE408216F48009301F07BFC01F005
:1017E0002BFD009B2AE56C4903EBD3724FF0000000
:1017F000521081F830000AF1FF3A28684B638A637F
:10180000FFF79CF9BAF1FF3F8BD1FCE500274FF0C1
:101810007E5159E411216148009301F05BFC01F015
:101820000BFD5D4B012183F83D10FFF751FA009B42
:1018300004E508215A48009301F04CFC01F0FCFC3F
:10184000009BFBE40027A34204973FF7BDAB70E485
:10185000544A55499160A3423FF7B6AB69E4514AF7
:101860000121A34211713FF7AFAB62E44A4803EB99
:10187000D37252100121C0E90D3280F83010BFE55B
:10188000454803EBD37252100121C0E90D3280F8B4
:101890003010CDE6494602F0C1FA294606462046F8
:1018A00002F0BCFA8146F6E64FF0010A53443D4D82
:1018B0000293504601F0C0FD019901F0C5FE494672
:1018C00001F00EFE314601F003FD834602F02CFAD2
:1018D0000090584602F064FA009B83462146184661
:1018E00001F0FEFD394601F0F3FC2B4B2146D86098
:1018F000584601F0F5FD414601F0EAFC264B98619F
:10190000FEF7E8FF2449D1E90A239A4211DD02EBF0
:10191000D2734FF000005B1081F8300028688B63B1
:101920004A63FFF70BF9029B0AF1010A9A45C0D1FD
:1019300069E5194903EBD3724FF00100521081F8A9
:10194000300028684B638A63FFF7F8F8029B0AF1BE
:10195000010A9A45ADD156E5FEF772FD3BE5114D02
:10196000FEF70EFE4FE60020FFF7FCBB002072E4FE
:101970000022079262E400202BE400200AE4002009
:10198000ADE400207BE4FEF76BFF064D3BE601343F
:1019900054E400BF405100000086FF1FA05000002B
:1019A000845000000080FF1F3333CB413149324B5C
:1019B0000A6810B41C6842F21070121B82420AD9E5
:1019C0002E4A187A126902F0020203280AD8DFE8C8
:1019D00000F00521271C002010BC704712B901201F
:1019E0009A801872254A587A126902F080020328F8
:1019F00006D8DFE800F0302A22020AB100225A722B
:101A00000A681A60002010BC7047002AEAD0002241
:101A10001A72E7E7002A0CBF022200221A72E1E7DD
:101A2000FAB99888441C64289C80DBD9134401329D
:101A300050000322C0B21A72CEE7CAB9DA88501C2D
:101A4000642AD880DCD90122F0E7002A0CBF0222E8
:101A500000225A72D4E7002AD2D10120DA805872CB
:101A6000CEE70022134400215200501C1972B3E744
:101A70000122F7E74486FF1F0086FF1FC0F00F40DA
:101A8000684620F007018D4601B401BC85467047C9
:101A9000684620F00701044A8D4601B4136801BC72
:101AA00001331360854670474486FF1F214803E0D9
:101AB00049B9002B3CD00C300268D0E90113002A50
:101AC000F6D08A42F7D0002BF5D010B442EA0104D8
:101AD00014F0030F13D0E4071BD512F8014B01F8E3
:101AE000014B013B002BF1D10C300268D0E901130E
:101AF000CAB90029F6D1002BF6D110BC7047032BD0
:101B0000E9D952F8044B41F8044B043B002BDDD1DA
:101B1000EAE7012BE1D932F9024B21F8024B023BF3
:101B2000002BD3D1E0E78A42DED0002BCED1DBE719
:101B3000704700BFC45B000088420ED06AB141EA22
:101B4000000313F0030F09D0DB070FD511F8013B99
:101B500000F8013B013A002AF1D17047032AF3D97A
:101B600051F8043B40F8043B043AE7E7012AEDD979
:101B700031F9023B20F8023B023ADFE7014B03B1A7
:101B800094E77047C45B0000104A114BD21A0AD088
:101B9000002013F0030107D1032A05D9043A43F8C2
:101BA000041B002AF5D1704713F0010107D1012A67
:101BB00005D0023A23F8021B002AEAD1F3E7013AE2
:101BC00003F8010B002AE4D1EDE700BFE88EFF1F08
:101BD0000086FF1F2D492E4A2E482F4B30B48860B7
:101BE00041F244014CF22050D0812C4C4FF4E9706A
:101BF0004DF62815D58110805C5041F238002849F7
:101C00001A5842F4F0521A508B781C0703D58B787F
:101C100043F008038B70234B234A8A242420A021FD
:101C2000147058701A46197093799807FCD51D4A9C
:101C30009379D906FCD41B4A937903F00C03082B43
:101C4000FAD1052043231749107153718B799A06F5
:101C5000FCD5144A93795B06FCD50F4B114941F230
:101C600044004FF0817541F248041D5005252020A5
:101C70001D5110708B7903F00C030C2BFAD1064A1E
:101C80000A4941F2040330BCD150704700ED00E036
:101C900000200540000000000070044000003301F7
:101CA00000D007400040064000500640C00005003C
:101CB00080F31188704700BF30B41E4A1E4B517923
:101CC0001E481F4D1F4C01F0E0015171117901F0C8
:101CD000F80111711A781C4902F08C0242F050028E
:101CE0001A705A7802F09C0242F040025A709A78B8
:101CF00002F0E6029A70002302222B70A27280F892
:101D0000493380F814334A6904F50324803422F0FF
:101D100003024A616269472522F0C002072162611D
:101D200040F8EC5C40F8F01C83F3118862B630BCDC
:101D3000704700BF00F0074000D0074000E100E01E
:101D400000E0074000C0074040F00F4008B5FFF733
:101D500041FF0B4B1846002807D0854681B04FF055
:101D600000006FEA0000009001B0FFF70DFF054B87
:101D70000BB1FFF79BFEFFF79FFF01F04FFEFEE761
:101D800000000020C45B000038B5041E0EDD4FF6D5
:101D9000FF75291B21EAE17189B2052000F02AFABA
:101DA00029460620BDE8384000F024BA4FF6FF71FE
:101DB000052000F01FFA04F57F41FF3121EAE171AF
:101DC00089B20620BDE8384000F014BA38B5041EC8
:101DD0000EDD4FF6FF75291B21EAE17189B2002063
:101DE00000F008FA29460120BDE8384000F002BAA8
:101DF0004FF6FF71002000F0FDF904F57F41FF313F
:101E000021EAE17189B20120BDE8384000F0F2B961
:101E1000164B68469A6920F007018D46D20171B4CD
:101E200002D4DB69DB011DD5104A114B94691D7981
:101E3000104E114844F080749461D46944F0807469
:101E4000D46119783269197101EB8501C2F38112ED
:101E500000EB81011A708A56032A03D012B19968E7
:101E60000A449A6071BC8546704700BF00B00440C8
:101E70004886FF1F80F00F40B84F0000174B6846A0
:101E80001A6820F007018D46D20171B402D45B6854
:101E9000DB011FD5114A124B14685D79114E1248AF
:101EA00044F080741460546844F08074546059782D
:101EB0003269597101EB850102F0030200EB8101E7
:101EC0005A708A56032A05D022B1022A02DCD96848
:101ED0000A44DA6071BC8546704700BF00A0044028
:101EE0004886FF1F40F00F40B84F0000684620F0C2
:101EF00007018D462DE9F9413F4B1A68120603D4BC
:101F0000BDE8F941854670471A683C4C22F08002D2
:101F10001A602769A268A0696669E368BF1A381A5F
:101F2000F61A01F089FA364901F0DAFA0546384620
:101F300001F082FA334901F0D3FA0146284601F054
:101F4000C7F901F0A9FC051E37DD4FF6FF78A8EBB5
:101F5000050121EAE17189B2052000F04BF9414603
:101F6000062000F047F9E069301A01F065FA2449CB
:101F700001F0B6FA0546304601F05EFA214901F05B
:101F8000AFFA0146284601F0A3F901F085FC051ED1
:101F900022DD4FF6FF78A8EB050121EAE17189B255
:101FA000002000F027F94146012000F023F9C4E9A0
:101FB0000676BDE8F941854670474FF6FF7105206A
:101FC00000F018F905F57F41FF3121EAE17189B28E
:101FD000062000F00FF9C6E74FF6FF71002000F071
:101FE00009F905F57F41FF3121EAE17189B201204C
:101FF00000F000F9DBE700BF009003404886FF1FB8
:102000000080BB4600409C45064B0022C3E90622E7
:1020100072B6054B1A68502142F008021A60196026
:1020200062B670474886FF1F0090034008B572B63D
:102030000D4B4022196819601A6062B64FF6FF71A5
:10204000052000F0D7F84FF6FF71062000F0D2F817
:102050004FF6FF71002000F0CDF84FF6FF71012020
:10206000BDE8084000F0C6B800900340334BDFF8ED
:10207000ECC01A6832483349F0B5DFF8E4E0324F7B
:10208000324E02EA0E0242F480721A601A6802EAC4
:102090000C023A431A605A6802EA0E0242F4807255
:1020A0005A605A6802EA0C023A435A6000224FF022
:1020B000807380F8582383608C6904EA0E0444F42A
:1020C00080748C618D6905EA0C053D438D61CB6997
:1020D00003EA0E0343F48073CB61CC691C4B04EA22
:1020E0000C043C4341F23C054FF00077CC6180F892
:1020F000592387607459174F174944F0007474517D
:1021000004245C6508264FF0004550241A60DA6408
:102110005A60DA605A619E6080F83F2345601C6017
:102120003A6903F54623C2F3811240330A701B69F2
:102130000A7103F003034B704B71F0BD00A0044023
:1021400000E100E000B0044000000B01007004401A
:102150000090034080F00F404886FF1FFFFFF0FE15
:10216000FFF8FFFE1E481F4B41F23C0130B44258BD
:102170001D4D1E4C42F080724250042159650022D0
:102180002C2140F283301A60DA645A60DA605A61B6
:10219000DA615A62DA625A63DA635A649860D96023
:1021A0001A6159619A6159639A63D9631A646968BB
:1021B0000F48214041F480616960A968214041F4E1
:1021C0008061A9604169214041F480614161826977
:1021D000224042F4806209218261196030BC70475C
:1021E000007004400080034000B00440FFF8FFFE90
:1021F00000C00440074B9B6801339BB223B101FB35
:1022000003F101F50041090C034BC0000344996040
:10221000704700BF0080034008800340431E032B2B
:1022200013D872B60A4A52F8230060B170B402EBB8
:1022300043040588218A466842F82360491B2182AD
:1022400062B670BC704762B670470020704700BF2E
:102250000088FF1F013803280DD8094B03EB8000CD
:10226000836972B64BB100201A885B681044002B5A
:10227000FAD162B67047002070471846F9E700BFF0
:102280000088FF1F013803280CD872B6074B03EBF8
:102290008000836943B100205B680130002BFBD1D3
:1022A00062B67047002070471846F9E70088FF1FA4
:1022B00010B472B6264A137813F0080F254B05D0D8
:1022C000D3F8201221B3D3F8281281B351780C0728
:1022D00005D5D3F84012A9B3D3F8481261B3917869
:1022E000090705D5D3F8601271B3D3F8681229B382
:1022F000D278120705D5D3F880223AB3D3F88822D2
:10230000F2B162B6002283F8A02210BC00F088BEB1
:10231000042293F8A012104C03EBC20208300139DA
:10232000C2E9804083F8A01262B610BC7047052253
:1023300093F8A012094CEFE70922F9E70D22F7E71D
:102340001122F5E70822E4E70C22E2E71022E0E799
:10235000F84F00000088FF1F88004000C8004000C0
:1023600070B4441E032C20D81C4A400102F50073AF
:1023700040F01000184472B6131993F8A432032BDE
:102380001DD8DFE803F00214171903250E8810F09A
:10239000080F224414BFC823882343EA06430831A8
:1023A00082F8A452C0E9003162B670BC70470830B0
:1023B0000225EBE70525E9E708300425E6E7A40058
:1023C0001319986938B1D3F8A83259601444C4F885
:1023D000A81262B6E9E79961F8E700BF0088FF1F1D
:1023E00030B4451E032D16D80D4C400104F5007382
:1023F00040F01000184472B6631993F8A43263B128
:10240000083000232C44120442F08002026084F859
:10241000A432416062B630BC70470123F2E700BFCE
:102420000088FF1F684620F007018D462DE9F14F17
:10243000DFF85C92DFF85C82DFF85CA284B009F51B
:10244000007B3FE09D080BEBC506013A716813F075
:102450000803D4B2A1F1080040F026825BF83520D1
:10246000120C97B221F8087C002A00F0148259F867
:10247000242021F8063C41F8043C002A00F05D824B
:10248000A30009EB0302D2F8CC22506009EB44020E
:102490004B44118AC3F8CC027B18138200F0A2FDD2
:1024A000002800F04282744A744B16F0080F00F1C5
:1024B000080008BF134670604BF83530704B082297
:1024C00083F880206E4B93F88040E4B260071CD5FF
:1024D00099F8B832ABB199F8B92202F0FF032AB1EA
:1024E000013BDBB289F8B93203B900BE65490A780D
:1024F00002F0FF032AB1013BDBB20B70002B00F0AE
:1025000080825F4B042283F8802014F0080300F0DF
:10251000F1815B4B93F89030DBB21A0992D19B08A2
:10252000594850F8331000EBC304C1F3830101395B
:1025300064680C2900F29A80DFE801F08E8E98988A
:1025400098989898539898980700D4E900544B4F5E
:1025500040F83370A9B240F281630026012099420D
:10256000C9F8BC52C9F8C042C9F8C462C9F81062BF
:10257000C9F8186289F8C80200F29080B1F5D06FEE
:1025800080F00583B1F5817F00F04C8300F2288153
:10259000802900F07882822940F0748104F07F0362
:1025A000042B00F26F8130333549A9F8E06211F84D
:1025B000233013F002034FEA144400F01984012C75
:1025C00089F8E00200F2658299F8DC022F4D40F0B4
:1025D0000201C90009EB01032404C3F80452C82313
:1025E0003EE1D9F8C4524DB3B9F8E86299F8C8127F
:1025F00099F8DC22402E334628BF4023002942F0C0
:102600000204A6EB030014BFC827882747EA034744
:1026100009EBC40480B281F0010182F00102A9F843
:10262000E80289F8C8122B44C4E9807589F8DC22D5
:1026300010B93F2E98BF0023C9F8C432B9F8BC3294
:10264000B3F5A06F12D10E4B99F8BE2283F89820F3
:10265000002389F8BD3209E0B9F8BC1242F2210228
:10266000914200F09D81054A40F83320044B01223D
:1026700083F8942022E700BF88004000C800400093
:1026800000200740D98EFF1F008AFF1FE08AFF1F2E
:102690000088FF1FCC200740D020074042F22103D2
:1026A000994200F0E78000F2B480B1F5086F00F0C5
:1026B000FE81B1F5106F40F0E580D9F82022C5F316
:1026C0000743110689F8B83200F1E982D9F82832B7
:1026D0001A0600F1C682D9F830321B0600F1D98201
:1026E000D9F838321E0600F1CE82D9F840321D06E4
:1026F00000F1C382D9F848321C0600F1B882D9F83B
:102700005032180600F16E83D9F85832190600F1DC
:102710006383D9F860321A0600F14083D9F8683231
:102720001B0600F12183D9F870321E0600F14E839A
:10273000D9F878321D0600F14383D9F880321C069F
:1027400000F1E382D9F88832180600F1D882D9F86E
:102750009032190600F12E83D9F898321A0600F14A
:102760002383A94D05F11003029305F1180300938B
:1027700005F52A73039305F5337305F5297601935F
:10278000002455F8040B28B1476800F049FC38468E
:10279000002FF9D1009B45F8044C1868019B43F8C1
:1027A000044B019328B1476800F03AFC3846002FEB
:1027B000F9D1009A337842F8044B0092039A42F818
:1027C000044B0392029A22F8024B023B0292032B23
:1027D00000F29181DFE813F0D9018C01D9018C015D
:1027E00040F2023399424AD104F07F04042C49D8C4
:1027F0002B0C47D1A40004F1804404F5E42499F89B
:10280000DC0294F8C05040F00201C90045F0020516
:102810001EE242F22123994213D17C497C4B99F864
:10282000DC02096819607B4C40F00201C5F30743E4
:10283000C900237009EB01033446C3F80462C823BE
:102840000EE042F2213399421CD199F8DC0240F0AB
:102850000201C90009EB01030024C3F80442C823A4
:1028600049441C4380F00100C1F8004289F8DC02B1
:1028700089F8C822684B012283F89420F6E6B1F566
:10288000A06FE2D0644B0F2283F8C020624B01227C
:1028900083F89420EAE6614A614B16F0080F08BFFE
:1028A00013464BF8353009E600F0BAFB09EB84011A
:1028B0008B69002B45D009EB0402586892F8A422DA
:1028C000886103F108017160032A08D8DFE802F08B
:1028D00002524C5809EB0402032182F8A4121A8810
:1028E00016F0080F14BFC823882343EA02434BF8AD
:1028F0003530E3E5E00700F19780210646D4A207D2
:1029000008D5454B93F888200221D2B283F888205D
:1029100083F88010E30603D53F4B102283F8802014
:1029200004B0BDE8F14F8546704799F8A0324BF8E6
:102930003500013389F8A032C0E549F82400A3002E
:10294000A4E509EB040393F8A432032B00F2CC8234
:1029500001A252F823F000BFBD240000BD240000F6
:10296000E52A0000D92A000009EB0402052182F8BB
:10297000A412B4E709EB0402022182F8A412AEE724
:1029800009EB0402042182F8A412A8E7224B80225A
:102990000D2183F8C01083F88020A207BAD5B0E7D4
:1029A000204A2578617815705170A578E178957086
:1029B000D1702579116815716579A479947186298A
:1029C00099F8DC42557108BF0F2299F8C81208BF68
:1029D00089F8B92244F0020209EBC20284F0010432
:1029E000002989F8DC424FF00004C2F8044281F06B
:1029F000010114BFC824882489F8C812C2F8004213
:102A000031E600F041FC7CE50088FF1F4486FF1F93
:102A1000DC8EFF1FDA8EFF1F002007408800400079
:102A2000C8004000E08EFF1FD24AD34982F8DC3252
:102A3000022081F89400D14CFF200D2581F8C05070
:102A40009F2681F888000125C2F8103281F88000A5
:102A5000C2F8183281F8983081F88C0002F54B7377
:102A600002F53B7081F8846081F89450C2F804024A
:102A7000C2F80C32C2F80042C2F8084204B0BDE805
:102A8000F14F85467047240C012CA9F8E0627FF6CF
:102A90009BAD99F8DC02BA4D40F00201C90009EB88
:102AA00001034FF40034C3F80452C823D8E699F860
:102AB000DC0299F8B83289F8E03240F00201C9002E
:102AC00009EB0103240CAE4DC3F8045214BF4FF4BC
:102AD00080340024C823C3E609EB0402012382F8F2
:102AE000A432EBE409EB0402002382F8A432E5E40B
:102AF0004FF001033370A34BAB4206F101067FF4A4
:102B000040AEA14CA14A2378137000221B0789F81C
:102B1000A02200F1158163789D4A1E0713704FF0C3
:102B20000002C9F83022C9F8382200F1F480A378F5
:102B300088F8003000221D07C9F85022C9F8582231
:102B400000F1C880E3788AF8003000221C07C9F839
:102B50007022C9F8782200F1A88099F8DC0299F86F
:102B6000C82240F00201C900002409EB0103A2427F
:102B7000C3F8044282F00102C9F89042C9F89842B1
:102B800006BF01228823C8236AE63470B3E7814B6D
:102B9000596800293FF476AE2D0CA0B204E00C3346
:102BA000596800293FF46EAE1A88AA42F7D15A88B4
:102BB0008242F4D12D0A032D14BF1A890A7899F89C
:102BC000DC02230C934228BF1346402B80F0010205
:102BD00040F0020440F21D8109EBC404A3F140055A
:102BE0006D4EC4F80062402DC4F8041242F0020297
:102BF0004FF0000401F1400640F2648109EBC2028B
:102C0000803B5E4FC2F8046201259CB289F8DC0269
:102C10008031C2F8007289F8C852C9F8C412A9F804
:102C2000E84227E604F07F04042C3FF62BAE2B0C81
:102C30007FF428AEA40004F1804404F5E42499F85C
:102C4000DC0294F8C05040F00201C90005F0FD0517
:102C500084F8C05009EB01051C46C5F80432C823AE
:102C6000FEE5D9F82C02083800F0DAF933E5D9F896
:102C70004C02083800F0D4F941E5D9F8440208388C
:102C800000F0CEF936E5D9F83C02083800F0C8F972
:102C90002BE5D9F83402083800F0C2F920E5D9F85C
:102CA0002402083800F0BCF910E500F09BF9002878
:102CB00000F0E6800830C9F884023048C9F8800284
:102CC00000F090F9002800F0D380334B0830C9E9B8
:102CD000A23042E700F086F9002800F0ED800830CD
:102CE000C9F864022548C9F8600200F07BF90028A1
:102CF00000F0DA80284B0830C9E99A3022E7D9F889
:102D00008C02083800F08CF921E5D9F884020838E3
:102D100000F086F916E500F065F9002800F0BE80A5
:102D20000830C9F844021548C9F8400200F05AF9C1
:102D3000002800F0AB80184B0830C9E99230F6E665
:102D400000F050F9002800F08D800830C9F8240206
:102D50000A48C9F8200200F045F900287AD00E4B45
:102D60000830C9E98A30D6E6D9F86C02083800F094
:102D700057F9D8E40088FF1F002007408800400072
:102D8000E08AFF1F1088FF1FF84F0000C420074093
:102D9000C8200740FC4F0000C8004000D9F864027A
:102DA000083800F03DF9B9E4D9F89C02083800F081
:102DB00037F9D6E4D9F89402083800F031F9CBE4B9
:102DC000D9F87C02083800F02BF9B6E4D9F874027F
:102DD000083800F025F9ABE4D9F85C02083800F0B7
:102DE0001FF996E4D9F85402083800F019F98BE479
:102DF000012C3FF64EAE99F8DC02414E40F0020144
:102E0000C90009EB01051A462404C5F80462C82369
:102E100026E54FEA034309EBC40443F0C8034FF02F
:102E20000005C4E9803189F8DC2289F8C8527FF4B2
:102E300021AD42F0020209EBC20201F14003C2F8E7
:102E400004328821012389F8DC02C2F8001289F8D3
:102E5000C8320FE599F8A032C9F82802013389F881
:102E6000A03258E699F8A032013389F8A03270E711
:102E700099F8A032C9F88802013389F8A0326CE6CB
:102E800099F8A032013389F8A03217E799F8A032F7
:102E9000C9F84802013389F8A03248E699F8A0320F
:102EA000013389F8A0323FE799F8A032C9F86802E7
:102EB000013389F8A03245E699F8A032013389F848
:102EC000A03210E74FEA054509EBC20245F088053C
:102ED0004FF00107C2E9805689F8DC02194489F8ED
:102EE000C8723FF49AAEC5E416F0080F09EB04026D
:102EF00014BF0323022382F8A432FFF7DFBA00BF16
:102F0000E08AFF1F324B3349002270B441F234058E
:102F1000C3E98022C3E98222C3E98422C3E986226D
:102F2000C3E98822C3E98A22C3E98C22C3E98E223D
:102F3000C3E99022C3E99222C3E99422C3E996220D
:102F4000C3E99822C3E99A22C3E99C22C3E99E22DD
:102F5000C3F880224859C3F8842240F480204851A5
:102F600041F204021C4C8B5841F2480043F4A02368
:102F70008B50052580220D50234684F80C2193F8B0
:102F80000C211206FBD4154A1548C2F30725C2F3DB
:102F90000744120E83F89C50FF2183F8B0400125AE
:102FA00083F8B42000244FF40076102283F88010B8
:102FB00083F88810197483F8945083F8004183F8DB
:102FC000845080F84943866083F8082170BC7047BC
:102FD0000088FF1F0070044000200740008AFF1F88
:102FE00000E100E072B60C480268B2FA82F30B2BE3
:102FF0000FDC4FF00041D94022EA0102026062B6C4
:10300000064903EBC303DB00C8180022CA50426024
:10301000704762B6002070479C80FF1F6C8BFF1FBB
:103020000E4BC31AB3F5587F10D20D4A127872B9FD
:1030300072B60C4A0C49A2FB032308684FF0004209
:103040001B0922FA03F303430B6062B67047074A79
:103050001278002AECD0FFF72BB900BF6C8BFF1F52
:10306000A08AFF1F398EE3389C80FF1FB88AFF1F9C
:1030700038B50F4C206878B143880288C1180133F5
:103080009A420D7A02D94380284638BDFFF7C8FF1F
:1030900000232360284638BD064B1B782BB1032044
:1030A000FFF7BCF820600028E6D14FF0FF35EBE7D2
:1030B000CC8EFF1FB88AFF1F044B054A1B689088FF
:1030C0001BB11A885B88D31A18447047CC8EFF1F37
:1030D0001088FF1F2DE9F84FDFF85891012789F874
:1030E00004708846002956D00446514ED9F808008D
:1030F0000D46002863D04388C3F14001A94228BF90
:1031000029465A1892B200F1080C4FF0000A6D1AC5
:10311000428001F1FF3E9C4489F80CA0A1B303F169
:1031200008020C330244034404F1040A524538BF38
:103130009C426CD3BEF1070F69D921F0030BA34465
:10314000234653F804AB42F804AB5B45F9D121F0B8
:1031500003029142AEEB020E04EB02030CEB020AF7
:1031600053D014F802B00CF802B0BEF1000F08D032
:103170005A788AF80120BEF1010F1CBF9B788AF8AB
:103180000230214442880C463F2A0AD8052389F898
:103190000D30002DADD10023404689F80430BDE844
:1031A000F88F4023038001460420FFF7D9F800225E
:1031B0000523C9F8082089F80D30002DEBD048F61A
:1031C000014A05E0BAF1010A18D099F80C30ABB900
:1031D0003378042003F0FF021BB3FFF753F80728EE
:1031E000F0D889F80470FFF7FDFEC9F80800002840
:1031F00081D1BAF1010A89F80400E6D1012389F8E6
:103200000C304FF0FF30BDE8F88F1946BAE70CF1EB
:10321000FF3C214414F8013B0CF8013F8C42F9D1EA
:10322000B0E789F804204FF0FF30BDE8F88F00BF09
:10323000B88AFF1FCC8EFF1F114B1B788BB170B566
:10324000104CA5680126267165B100266B8866734F
:1032500029462B800420FFF783F8A6600023237102
:1032600070BD7047FFF7BEFE38B10146042065739C
:10327000FFF776F80023237170BD6673EEE700BF99
:10328000B88AFF1FCC8EFF1F38B50D4C23794BB980
:10329000A16841B103F0FF054B880B800420FFF7C4
:1032A0005FF8A56038BDFFF79DFE28B10146BDE877
:1032B00038400420FFF754B80123637338BD00BFC2
:1032C000CC8EFF1F80F0004002E000BF81F0004183
:1032D00042001FBF5FEA410392EA030F7FEA226CBC
:1032E0007FEA236C6AD04FEA1262D2EB1363C1BF4C
:1032F000D218414048404140B8BF5B42192B88BFBB
:10330000704710F0004F40F4000020F07F4018BFDD
:10331000404211F0004F41F4000121F07F4118BFFD
:10332000494292EA030F3FD0A2F1010241FA03FCA5
:1033300010EB0C00C3F1200301FA03F100F000438D
:1033400002D5494260EB4000B0F5000F13D3B0F155
:10335000807F06D340084FEA310102F10102FE2AC4
:1033600051D2B1F1004F40EBC25008BF20F0010034
:1033700040EA03007047490040EB000010F4000FE2
:10338000A2F10102EDD1B0FA80FCACF1080CB2EB75
:103390000C0200FA0CF0AABF00EBC25052421843D4
:1033A000BCBFD0401843704792F0000F81F4000179
:1033B00006BF80F400000132013BB5E74FEA41034C
:1033C0007FEA226C18BF7FEA236C21D092EA030FB8
:1033D00004D092F0000F08BF0846704790EA010F32
:1033E0001CBF0020704712F07F4F04D1400028BF5F
:1033F00040F00040704712F100723CBF00F5000041
:10340000704700F0004343F0FE4040F40000704776
:103410007FEA226216BF08467FEA23630146420222
:1034200006BF5FEA412390EA010F40F48000704735
:103430004FF0000304E000BF10F0004348BF4042DB
:103440005FEA000C08BF704743F0964301464FF017
:1034500000001CE050EA010208BF70474FF0000373
:103460000AE000BF50EA010208BF704711F00043B4
:1034700002D5404261EB41015FEA010C02BF844684
:103480000146002043F0B64308BFA3F18053A3F5E3
:103490000003BCFA8CF2083AA3EBC25310DB01FA2A
:1034A00002FC634400FA02FCC2F12002BCF1004FAE
:1034B00020FA02F243EB020008BF20F0010070473F
:1034C00002F1200201FA02FCC2F1200250EA4C0093
:1034D00021FA02F243EB020008BF20EADC707047D9
:1034E0004FF0FF0C1CEAD0521EBF1CEAD15392EAE7
:1034F0000C0F93EA0C0F6FD01A4480EA010C4002C3
:1035000018BF5FEA41211ED04FF0006343EA50101C
:1035100043EA5111A0FB01310CF00040B1F5000F5E
:103520003EBF490041EAD3715B0040EA010062F10D
:103530007F02FD2A1DD8B3F1004F40EBC25008BFF7
:1035400020F00100704790F0000F0CF0004C08BF15
:1035500049024CEA502040EA51207F3AC2BFD2F1E2
:10356000FF0340EAC250704740F400004FF00003F0
:10357000013A5DDC12F1190FDCBF00F0004070472A
:10358000C2F10002410021FA02F1C2F1200200FA68
:1035900002FC5FEA310040F1000053EA4C0308BF2F
:1035A00020EADC70704792F0000F00F0004C02BF80
:1035B000400010F4000F013AF9D040EA0C0093F0FB
:1035C000000F01F0004C02BF490011F4000F013B55
:1035D000F9D041EA0C018FE70CEAD15392EA0C0FC3
:1035E00018BF93EA0C0F0AD030F0004C18BF31F02E
:1035F000004CD8D180EA010000F00040704790F004
:10360000000F17BF90F0004F084691F0000F91F0A7
:10361000004F14D092EA0C0F01D142020FD193EA6D
:103620000C0F03D14B0218BF084608D180EA0100F5
:1036300000F0004040F0FE4040F40000704740F0D1
:10364000FE4040F4400070474FF0FF0C1CEAD0529F
:103650001EBF1CEAD15392EA0C0F93EA0C0F69D0FB
:10366000A2EB030280EA010C49024FEA402037D066
:103670004FF0805343EA111143EA10130CF000405D
:103680008B4238BF5B0042F17D024FF4000C8B424D
:1036900024BF5B1A40EA0C00B3EB510F24BFA3EB2D
:1036A000510340EA5C00B3EB910F24BFA3EB9103FD
:1036B00040EA9C00B3EBD10F24BFA3EBD10340EA57
:1036C000DC001B0118BF5FEA1C1CE0D1FD2A3FF69D
:1036D00050AF8B4240EBC25008BF20F00100704752
:1036E0000CF0004C4CEA50207F32C2BFD2F1FF03F5
:1036F00040EAC250704740F400004FF00003013A26
:1037000037E792F0000F00F0004C02BF400010F4C9
:10371000000F013AF9D040EA0C0093F0000F01F0DD
:10372000004C02BF490011F4000F013BF9D041EAFF
:103730000C0195E70CEAD15392EA0C0F08D1420232
:103740007FF47DAF93EA0C0F7FF470AF084676E705
:1037500093EA0C0F04D14B023FF44CAF08466EE7DE
:1037600030F0004C18BF31F0004CCAD130F00042AC
:103770007FF45CAF31F000437FF43CAF5FE700BF04
:103780004FF0FF3C06E000BF4FF0010C02E000BF2D
:103790004FF0010C4DF804CD4FEA40024FEA4103CF
:1037A0007FEA226C18BF7FEA236C11D001B052EA85
:1037B000530C18BF90EA010F58BFB2EB030088BF4B
:1037C000C81738BF6FEAE17018BF40F001007047BA
:1037D0007FEA226C02D15FEA402C05D17FEA236C9C
:1037E000E4D15FEA412CE1D05DF8040B704700BFE3
:1037F000844608466146FFE70FB5FFF7C9FF00287A
:1038000048BF10F1000F0FBD4DF808EDFFF7F4FFB2
:103810000CBF012000205DF808FB00BF4DF808ED4B
:10382000FFF7EAFF34BF012000205DF808FB00BF6E
:103830004DF808EDFFF7E0FF94BF012000205DF890
:1038400008FB00BF4DF808EDFFF7D2FF94BF012041
:1038500000205DF808FB00BF4DF808EDFFF7C8FF3A
:1038600034BF012000205DF808FB00BF4FEA400292
:103870004FEA41037FEA226C02D15FEA402C08D173
:103880007FEA236C02D15FEA412C02D14FF00000A5
:1038900070474FF0010070474FEA4002B2F1FE4F0F
:1038A0000FD34FF09E03B3EB12620DD94FEA002302
:1038B00043F0004310F0004F23FA02F018BF4042DB
:1038C00070474FF00000704712F1610F01D14202C2
:1038D00005D110F0004008BF6FF0004070474FF076
:1038E0000000704742000ED2B2F1FE4F0BD34FF0F2
:1038F0009E03B3EB126209D44FEA002343F0004366
:1039000023FA02F070474FF00000704712F1610F88
:1039100001D1420202D14FF0FF3070474FF000005A
:10392000704700BF00000000000000000000000021
:103930000000000000000000000000000000000087
:1039400090F800F06DE9024520F007016FF0000CDF
:1039500010F0070491F820F040F049804FF0000487
:103960006FF00700D1E9002391F840F000F1080062
:1039700082FA4CF2A4FA8CF283FA4CF3A2FA8CF39A
:103980004BBBD1E9022382FA4CF200F10800A4FA01
:103990008CF283FA4CF3A2FA8CF3E3B9D1E9042355
:1039A00082FA4CF200F10800A4FA8CF283FA4CF38C
:1039B000A2FA8CF37BB9D1E9062301F1200182FA46
:1039C0004CF200F10800A4FA8CF283FA4CF3A2FA4C
:1039D0008CF3002BC6D0002A04BF04301A4612BA5A
:1039E000B2FA82F2FDE8024500EBD2007047D1E95D
:1039F000002304F00305C4F100004FEAC50514F0EC
:103A0000040F91F840F00CFA05F562EA05021CBFBC
:103A100063EA050362464FF00004A9E7944895491C
:103A2000954A4FF480732DE9F04F43614869934CF8
:103A3000934E944DDFF870A240F0200048618868F2
:103A400040F020008860D360616941F00801616145
:103A5000616841F0080161609360616941F00401AF
:103A60006161A16841F00401A1601361616941F0E5
:103A700010016161A16841F01001A160D361616929
:103A800021F0800161615360636923F00203636187
:103A9000A1B0FEF767FB4FF6FF710020FEF7AAFB0F
:103AA0004FF6FF710120FEF7A5FB4FF6FF710520D1
:103AB000FEF7A0FB4FF6FF710620FEF79BFBFEF71B
:103AC000D5FAFFF71FFAFDF7B1F86F4B6F49196090
:103AD0004FF07E5201210027A04619719A60BB4623
:103AE00034686B4BA4EB0B049C4205D995F83C3031
:103AF00013B1002385F83C3033682A6842F2107114
:103B00009B1A8B424ED9D8F810302A7A03F0020360
:103B1000032A06D8DFE802F0332D10020BB1002390
:103B20002B72D8F810306A7A03F08003032A37D852
:103B3000DFE802F0756F2F2B002B40F09580AA88EC
:103B4000511C642AA980ECD95A1C2B445200032131
:103B5000D2B21972032A68D0042A6CD0022A68D023
:103B60004C48FCF7B7FD4A4B9C4268D9FDF7B0F8CA
:103B700018E0002B0CBF022300232B72D1E7002B8F
:103B8000CFD10122AB802A72CBE74BB100236B72FD
:103B900006E0002B61D1EB885A1C642BEA8065D8C3
:103BA00033682B60FFF788FA441E002898D04FF046
:103BB00000091DE01F2815D97E2F13D810F80A30F0
:103BC00003F00303022B07F10103DBB220AA174421
:103BD00008BF20381A4408BFC0B207F8800C1F463F
:103BE00002F8809C013C631CD6F800B03FF478AF2B
:103BF000FFF73EFA95F83C30002BF3D1C0B20A280B
:103C0000D8D1002FEED0394668461F46FDF7C2F9DD
:103C1000E8E7002B0CBF022300236B72C0E7002BE8
:103C2000BED10122EB806A72BAE71B48FCF752FD55
:103C3000B8E7FCF715FE1948FCF74CFDB2E7184849
:103C4000FCF748FD012385F83C30FDF7CDF8154819
:103C5000FCF740FDD6F800B0A4E70123E9180020E6
:103C60005B005A1C087275E70023F7E701236BE736
:103C700000B0044080F00F4000C00440C0F00F408E
:103C80004486FF1F0086FF1F0080FF1F0000B44214
:103C900090D00300A0510000CC510000E45100007E
:103CA000BC51000074510000ED550000F8B520F043
:103CB0000047FC0D7F3C162C054626DC002C0646F2
:103CC00014DB174F274138421DD01649FFF700FB80
:103CD0000021FFF7C1FDB0B1002D04DD4FF400035A
:103CE00043FA04F4264426EA0700F8BD0D49FFF71D
:103CF000EFFA0021FFF7B0FD28B1002D0CDB17B162
:103D00004FF07E50F8BD2846F8BDB7F1FF4FFAD30B
:103D10000146FFF7DDFAF8BD4FF00040F8BD00BFE7
:103D2000FFFF7F00CAF2497100B51C4A20F0004332
:103D3000934283B018DDB3F1FF4F05DB0146FFF777
:103D4000C5FA03B05DF804FB694600F01DF900F008
:103D50000302012A0ED0022A18D092B10122019941
:103D6000009800F009FFECE7002100F0D7FA03B05B
:103D70005DF804FB0199009800F0FEFE00F10040A0
:103D8000DFE70199009800F0C9FADAE70199009895
:103D900000F0C4FA00F10040D3E700BFD80F493F5C
:103DA00000B51D4A20F00043934283B019DDB3F102
:103DB000FF4F05DB0146FFF789FA03B05DF804FB0E
:103DC000694600F0E1F800F00300012810D0022855
:103DD00019D090B10199009800F0A0FA00F10040CC
:103DE000EBE70022002100F0C7FE03B05DF804FB02
:103DF0000199009800F092FADFE7012201990098FA
:103E000000F0BAFED9E701220199009800F0B4FE53
:103E100000F10040D1E700BFD80F493F00F024B8BF
:103E200038B5044600F024FA0E4B93F90030013304
:103E3000054609D021462046FFF718FD20B9204647
:103E40000021FFF7EBFC08B9284638BD01F0AEF8B9
:103E50000021212303600846FFF7F6FB05462846AC
:103E600038BD00BFA080FF1FF8B50D4621F000410E
:103E7000B1F1FF4F034614DC20F00046B6F1FF4FCE
:103E800007460EDCB5F17E5F3ED0AC1704F00204AD
:103E900044EAD07456B9022C29D0032C00D1314801
:103EA000F8BD19462846FFF713FAF8BDD9B1B1F1AC
:103EB000FF4F1ED0B6F1FF4F15D0711AC9153C291E
:103EC00026DC002D30DA3C312EDA0020012C3CD0EB
:103ED000022C32D0002CE3D02349FFF7F9F9234913
:103EE000FFF7F4F9F8BD002F1CDB2148F8BD1F488F
:103EF000F8BDB6F1FF4F0DD0022CF8D0032CCED078
:103F0000012C25D00020F8BDBDE8F84000F0AABE85
:103F10001748DBE7022C22D0032C1ED0012C1AD02C
:103F20001448F8BD1448F8BD29461846FFF78CFB25
:103F300000F0A6FF00F096FEC8E70B49FFF7C8F9AE
:103F400001460A48FFF7C2F9F8BD00F10040F8BD8C
:103F50004FF00040F8BD0948F8BD0948F8BD0948D0
:103F6000F8BD00BFDB0F49C02EBDBB33DB0F49409E
:103F7000DB0FC93FDB0F493FDB0FC9BFDB0F49BF79
:103F8000E4CB16C0E4CB16402DE9F04FAB4A20F04D
:103F90000044944289B06EDDA94A944206460D461B
:103FA0001CDC002824F00F04A64940F31E81FFF713
:103FB0008DF9A54B9C4206466CD0A449FFF786F9C3
:103FC000014628603046FFF781F9A049FFF77EF9E6
:103FD00001276860384609B0BDE8F08F9C4A9442DA
:103FE0006DDDB4F1FF4F4EDAE715863FA4EBC75401
:103FF0002046FFF751FCFFF71FFA03460146204613
:104000000593FFF763F94FF08741FFF769FA8046A0
:10401000FFF742FCFFF710FA0146044640460694BB
:10402000FFF754F94FF08741FFF75AFA0021079044
:10403000FFF7EAFB002800F0B68020460021FFF7DA
:10404000E3FB002814BF01230223824A01920221CC
:104050003A46009105A8294600F024FA002E0746AA
:10406000B8DAD5E9002302F1004203F100434742E8
:104070002A606B60AEE700270022086038464A607D
:1040800009B0BDE8F08F0146FFF720F9002768600E
:1040900028609FE77049FFF719F970490446FFF758
:1040A00015F9014628602046FFF710F96B49FFF724
:1040B0000DF901276860384609B0BDE8F08F00F0BF
:1040C000DFFE67498046FFF70BFA4FF07C51FFF7A0
:1040D000FFF8FFF7E1FB0746FFF7AEF959498346C2
:1040E000FFF7FEF901464046FFF7F0F857498146D1
:1040F0005846FFF7F5F91F2F82460146484620DC57
:10410000FFF7E4F8574A791E24F0FF0352F8212004
:104110009342804618D0C5F8008041464846FFF7D4
:10412000D5F85146FFF7D2F8002E6860BFF652AFBF
:1041300008F1004800F10040C5F8008068607F4247
:1041400048E7FFF7C3F88046E215C8F3C753D31A10
:10415000082BE0DD404903925846FFF7C1F980463D
:1041600001464846FFF7B2F8014604464846FFF7C5
:10417000ADF84146FFF7AAF8384980465846FFF7A0
:10418000AFF94146FFF7A2F8014682462046FFF705
:104190009DF8039AC0F3C753D21A192A804604DC4B
:1041A0002860A146B9E703234FE72F495846FFF798
:1041B00097F9804601462046FFF788F80146814678
:1041C0002046FFF783F84146FFF780F82749044669
:1041D0005846FFF785F92146FFF778F801468246F1
:1041E0004846FFF773F8804695E7FFF771F8164BDE
:1041F0009C4206460ED01549FFF76AF80146286032
:104200003046FFF763F81149FFF762F84FF0FF37C8
:104210006860DFE61049FFF75BF810490446FFF7D6
:1042200057F8014628602046FFF750F80B49FFF782
:104230004FF84FF0FF376860CCE600BFD80F493F1A
:10424000E3CB1640800FC93FD00FC93F43443537F9
:10425000800F49437C5200000044353708A3852E67
:1042600084F9223FFC51000000A3852E32318D24B9
:1042700020F00042B2F1FF4FF8B5044630D272B3DD
:10428000002803463FDB14F0FF4F4FEAE0502ED0EA
:10429000C3F316037F3843F40002C1074FF0000652
:1042A0004FEA42034FEA600748BF930031461924A2
:1042B0004FF080728D189D4202DC5B1BA9181644DA
:1042C000013C4FEA43034FEA5202F3D113B10136E6
:1042D00026F00106701000F17C5000EBC750F8BDCD
:1042E0000146FFF7FDF82146FEF7F2FFF8BD14F492
:1042F000000201D00EE00A465B001C0202F101013F
:10430000F9D5801AC4E70146FEF7E0FF0146FFF742
:104310009BF9F8BD4FF0FF32F3E700BF2DE9F843FA
:1043200020F00045B5F1485F06460F4649DAFFF731
:10433000B3FA002800F09D8031463046FFF7D0F8F0
:104340004E490446FFF7CCF84D49FEF7C1FF214620
:10435000FFF7C6F84B49FEF7B9FF2146FFF7C0F853
:104360004949FEF7B5FF2146FFF7BAF84749FEF77E
:10437000ADFF2146FFF7B4F84549FEF7A9FF2146F6
:10438000FFF7AEF880464FF07C512046FFF7A8F8C3
:10439000414605462046FFF7A3F839460446304615
:1043A000FFF79EF801462046FEF790FF014628469B
:1043B000FEF78CFF01464FF07E50FEF787FFBDE809
:1043C000F8830146FFF78CF82C490446FFF788F87C
:1043D0002B49FEF77DFF2146FFF782F82949FEF7BA
:1043E00075FF2146FFF77CF82749FEF771FF21464C
:1043F000FFF776F82549FEF769FF2146FFF770F8C9
:104400002349FEF765FF2146FFF76AF8214B9D42DD
:104410008046B8DD204B9D4227DC05F17F452946CB
:104420004FF07E50FEF752FF81464FF07C51204600
:10443000FFF756F82946FEF749FF41460546204654
:10444000FFF74EF8394604463046FFF749F8014673
:104450002046FEF73BFF01462846FEF737FF0146A0
:104460004846FEF733FFBDE8F883DFF834900B4D84
:10447000DBE74FF07E50BDE8F88300BF4ED747AD75
:10448000F6740F317CF29334010DD037610BB63ADC
:10449000ABAA2A3D9999993E0000483F0000903E02
:1044A0000000383F2DE9F04FDDB0A34C669D099127
:1044B000591E54F825400191111D039406930B9247
:1044C0000546C0F29882D31E44BF13460433DB1066
:1044D00005930133DB000A93DDE90A239B1A049359
:1044E000059A019BD61A039A12EB030818D408F117
:1044F00001080024B04420AFDDF89C9108E059F891
:104500002600FEF799FF0136464547F8040B07D011
:10451000002EF4DA01362046464547F8040BF7D161
:10452000039B002BC0F20683069B03999B002A1F66
:10453000D518029220AA89000093D71849AB079199
:1045400003EB010848AE4FF00009019B002BB8BFF8
:10455000CB460FDB029CBA46CB465AF8041D54F8F2
:10456000040FFEF7BDFF01465846FEF7B1FEAC4210
:104570008346F2D146F804BB464507F10407E4D16F
:1045800000990298079A039E0144A2F108030D4680
:104590000CA90B4407930BAB134408934FEA86090D
:1045A0005CAB4B44002E53F850AC22DD0DF59078F7
:1045B00008EB86040CAF4FF06E515046FEF790FFAB
:1045C000FFF76AF9FEF738FF4FF087418346FEF7A1
:1045D00087FF01465046FEF779FEFFF75DF954F874
:1045E000041D47F8040B5846FEF772FE4445824608
:1045F000E1D1049F5046394600F084FC4FF07851D9
:104600000446FEF76DFF00F03FFC4FF08241FEF7DD
:1046100067FF01462046FEF759FE0446FFF73CF9C6
:104620008246FEF709FF01462046FEF74FFE002FA7
:10463000044640F38380711E0CAAC7F1080352F8A8
:10464000212042FA03F000FA03F3D31AC7F1070856
:104650000CAA43FA08F8B8F1000F42F8213082445E
:1046600077DC00212046FFF7CFF8002800F0B48067
:10467000039B771EBB4210DC06F180430CAA013B72
:10468000089802EB8303002253F80419834242EA9C
:104690000102F9D1002A40F0F880039B0CAA013BEB
:1046A00052F82330002B40F0EA80079B012753F893
:1046B00004290137002AFAD006F1010AF319009300
:1046C000D046059B0AEB0309069B9C1920AB09F118
:1046D000804903EB8404679B09F1FF3903EB8909E7
:1046E00048AB03EB8A0A59F8040FFEF7A5FE019BBD
:1046F0002646002B46F8040B1BDB043CDDF808B013
:10470000002701E054F804095BF8041FFEF7E8FEF7
:1047100001463846FEF7DCFDAB450746F2D1009B6B
:104720004AF8047B08F1010898453446DBDD1E4653
:1047300034E70027F3E700BFC055000040F0968043
:10474000731E0CAA52F823304FEA2328B8F1000F49
:1047500087DD002E0AF1010A40F3CF810C9F002F64
:104760006CD1012E09D00CA9012251F8047F531CF1
:10477000002F65D19E421A46F7D1049B002B0DDD18
:10478000012B00F02E81022B08D1721E0CAB0CA95C
:1047900053F8223003F03F0341F82230B8F1020F02
:1047A0007FF45FAF21464FF07E50FEF78FFD044649
:1047B000002F3FF456AF04994FF07E5000F0A2FB5B
:1047C00001462046FEF782FD044600212046FFF701
:1047D0001BF800287FF44CAFDDE90A322046991A15
:1047E000CDF8048000F08EFB4FF087410446FFF7C0
:1047F00029F8002800F083814FF06E512046FEF723
:104800006FFEFFF749F8FEF717FE4FF087410546A8
:10481000FEF766FE01462046FEF758FDFFF73CF81E
:104820000CAB771C43F826002846FFF735F8049BAD
:10483000083304930CAB43F827003CE0012300222B
:104840000CA9C7F580779E4241F822700CDD51F823
:104850002320894401EB830300E01A68C2F1FF02C0
:1048600043F8042B4B45F8D1012786E74FF07C51E4
:10487000FEF7E8FF002840F0C3808046F1E606F12D
:10488000010AD046CDF800A01BE70CAB049A53F800
:104890002730CDF80480083A049263B906F18043CA
:1048A000023B0CA901EB830353F80419013F083ABA
:1048B0000029F9D0049204994FF07E5000F022FBB9
:1048C000002F0446C0F23F814FEA870848AA08F14A
:1048D000040390440CAA04934FF06E5602EB0309B4
:1048E00008F1040559F8040DFEF7A6FD2146FEF770
:1048F000F7FD314645F8040D2046FEF7F1FD0CABFF
:1049000099450446EED1DDF80C90CDF814A034ABF7
:10491000B9F1000F0293A8F104084FF000069B467E
:10492000009723DB924D934847464FF0000A00243E
:1049300003E0B4420DDC55F8040F57F8041FFEF7EE
:10494000CFFD01465046FEF7C3FC0134A145824627
:10495000EFDA009A4BF804AB9642A8F1040806F18E
:10496000010306D0B9F1000F1E46DBDA4FF0000A52
:10497000EFE7669BDDF814A0009F032B2CD8DFE83F
:1049800003F0A6020250049B1D46029B0024204611
:104990001D441C4655F8041DFEF79AFCAC42F9D1A3
:1049A000044634982146FEF791FC019B002B40F011
:1049B000AE80099B002F1C600CDD34AD0124013456
:1049C00055F8041FFEF784FCA742F8DA019B0BB1EF
:1049D00000F10040099B58600AF007005DB0BDE897
:1049E000F08F721E0CAB0CA953F8223003F07F033A
:1049F00041F82230D2E608230A93002305936BE5A1
:104A0000002E0AF1010AC8BF4FF002083FF7A6AE18
:104A100021464FF07E50FEF759FC4FF00208044645
:104A20001FE6002F40F3A280BD005CAB2B4434AAEC
:104A300053F8A08C02925419934654F8049C4146B2
:104A40004846FEF745FC064601464846FEF73EFC52
:104A50004146FEF73DFC206044F8046DA345B04696
:104A6000EBD1012F40F382805CAB2B44029A53F8C8
:104A7000A08C15442C4635AF54F8049C414648465A
:104A8000FEF726FC064601464846FEF71FFC414657
:104A9000FEF71EFC206044F8046DA742B046EBD13F
:104AA000029C00200435083455F8041DFEF710FC64
:104AB000AC42F9D10199349A359B81BB09990A60BE
:104AC0004B6088600AF007005DB0BDE8F08F049B82
:104AD000029D1C4600202C4454F8041DFEF7F8FBF0
:104AE000A542F9D1019B0BB100F10040099B186070
:104AF0000AF007005DB0BDE8F08F00273DE62046D4
:104B0000FEF7CAFE0CAB374643F82600D3E6099BF6
:104B100004F10044002F1C603FF74FAF58E709999C
:104B200002F1004203F1004300F100400A604B60D3
:104B30008860C7E72B1F0293069B9B000093039B93
:104B40009B0007931CE5669B032B3FF645AF01A234
:104B500052F823F0694B0000654B0000654B0000E4
:104B6000234A000000241CE70020BBE70020A1E747
:104B7000945500000000C93F2DE9F84320F00043A0
:104B8000B3F1485F04460F46904603DAFEF784FE11
:104B9000002858D021462046FEF7A2FC05460146D3
:104BA0002046FEF79DFC294906462846FEF798FC5C
:104BB0002749FEF78BFB2946FEF792FC2549FEF7B5
:104BC00087FB2946FEF78CFC2349FEF77FFB29462D
:104BD000FEF786FC2149FEF77BFB8146B8F1000F0A
:104BE00022D04FF07C513846FEF77AFC4946804689
:104BF0003046FEF775FC01464046FEF767FB294646
:104C0000FEF76EFC3946FEF761FB15490546304656
:104C1000FEF766FC01462846FEF75AFB0146204691
:104C2000FEF754FBBDE8F88301462846FEF758FC22
:104C30000B49FEF74BFB3146FEF752FC2146FEF7CF
:104C400047FBBDE8F8832046BDE8F883D3C92E2F83
:104C5000342FD7321BEF3836010D50398988083C84
:104C6000ABAA2A3E2DE9F04120F00045B5F1A14F55
:104C70000446064608DBB5F1FF4F73DC002840F31D
:104C800081806B48BDE8F0816A4B9D4200F38280D1
:104C9000B5F1445F6BDB4FF0FF3721462046FEF74E
:104CA0001FFC01468046FEF71BFC63490546FEF7E4
:104CB00017FC6249FEF70CFB2946FEF711FC604920
:104CC000FEF706FB2946FEF70BFC5E49FEF700FBEC
:104CD0002946FEF705FC5C49FEF7FAFA2946FEF77D
:104CE000FFFB5A49FEF7F4FA4146FEF7F9FB584933
:104CF00080462846FEF7F4FB5649FEF7E7FA2946B8
:104D0000FEF7EEFB5449FEF7E1FA2946FEF7E8FB11
:104D10005249FEF7DBFA2946FEF7E2FB5049FEF75F
:104D2000D5FA2946FEF7DCFB01464046FEF7D0FAED
:104D30002146FEF7D5FB7B1C014626D0494B4A4D48
:104D400053F82710FEF7C2FA2146FEF7BFFA0146D4
:104D500055F82700FEF7BAFA002E93DA00F100406A
:104D6000BDE8F0810146FEF7B3FABDE8F0813F49A6
:104D7000FEF7AEFA4FF07E51FEF76EFD00288AD0A6
:104D800020467FE73A48BDE8F0812046FEF79EFACC
:104D9000BDE8F08100F074F8364B9D42044617DC04
:104DA000A3F5D0039D4232DC0146FEF791FA4FF0A5
:104DB0007E51FEF78BFA4FF0804105462046FEF704
:104DC00087FA01462846FEF73FFC0027044664E7C1
:104DD000294B9D4214DC4FF07F51FEF777FA4FF0DC
:104DE0007F5105462046FEF77BFB4FF07E51FEF7D4
:104DF0006FFA01462846FEF727FC022704464CE7D7
:104E000001461E48FEF720FC0327044645E74FF005
:104E10007E51FEF75BFA4FF07E5105462046FEF7C5
:104E200057FA01462846FEF70FFC0127044634E7EF
:104E3000DB0FC93FFFFFDF3ED769853C59DA4B3DA9
:104E4000356B883D6E2EBA3D2549123EABAAAA3E6F
:104E500021A215BD6BF16E3D95879D3D388EE33DDA
:104E6000CDCC4C3EDC550000CC550000CAF2497157
:104E7000DB0FC9BFFFFF973FFFFF1B40000080BF54
:104E800020F00040704700BFF8B520F00047FC0D4F
:104E90007F3C162C054624DC002C064614DB164FFE
:104EA000274138421BD01549FEF712FA0021FEF7C0
:104EB000D3FCA0B1002D04DA4FF4000343FA04F44C
:104EC000264426EA0700F8BD0C49FEF701FA002146
:104ED000FEF7C2FC18B1002D0ADB0020F8BD284601
:104EE000F8BDB7F1FF4FFAD30146FEF7F1F9F8BD6F
:104EF000002FF4D00248F8BDFFFF7F00CAF24971CD
:104F0000000080BF10B50C4630F0004103461BD0B6
:104F1000B1F1FF4F19D210F0FF4F024619D14FF0F7
:104F20009841FEF7DDFA1E4A944203462ADB024608
:104F3000C0F3C75019382044FE280EDD1949184621
:104F400061F31E00FEF7CCFA10BD0146FEF7C0F972
:104F500010BDC80D2044FE28F0DC00280DDC10F147
:104F6000160F13DA4CF250329442E7DC0E49184621
:104F700061F31E00FEF7B4FA10BD22F0FF4242EAD0
:104F8000C05010BD0849FEF7ABFA10BD22F0FF4239
:104F9000193042EAC0504FF04C51FEF7A1FA10BD53
:104FA000B03CFFFFCAF249716042A20D014B186884
:104FB000704700BFA480FF1F0001FF03FF00020134
:104FC00001FE00FF03FF01000001FFFEFF000301DF
:104FD000010300FF02FF01000001FF02FF000301C7
:104FE000010300FFFEFF01000001FF03FF00FE01BF
:104FF000010200FF03FF0100001519150001000068
:105000008880FF1F12000000000200004480FF1F84
:1050100043000000000300004080FF1F000000006C
:10502000010309042880FF1F000000000203090497
:105030001080FF1F000000000000000000000000C2
:10504000000000002A20456E746572696E67206258
:105050006F6F746C6F616465720D0A002A20556E63
:105060006C6F6164696E670D0A0000002A204C6F46
:105070006164696E670D0A002A20446F6E650D0A2F
:10508000000000006875683F20470D0A000000001E
:105090002A206C6F6164696E67206D61740D0A006F
:1050A0002A20756E6C6F6164696E67206D61740D86
:1050B0000A0000002A202D2D205465656E73794367
:1050C0004E432052657620322053657020203920CF
:1050D000323031392031343A32363A3336202D2DC0
:1050E0007C437265617465642062793A7C202D206E
:1050F0004D6174742057696C6C69616D737C77695C
:105100007468206164646974696F6E732062793AAF
:105110007C202D20416C756E204A6F6E65732028AF
:1051200032303138297C202D205761796E65204836
:105130006F6C646572202832303139290D0A000005
:105140006875683F204D0D0A000000006F6B0D0A66
:10515000000000002A20486561642077656E742095
:105160006F7574206F6620626F756E6473210D0A0F
:105170000000000063616E63656C6C65640D0A007D
:105180002A20696C6C6567616C202763616E6365BA
:105190006C6C696E67272073746174650D0A00007A
:1051A0002A204C6F616420427574746F6E207761A1
:1051B0007320707265737365640D0A002A20436161
:1051C0006E63656C6C696E670D0A00002A20504F93
:1051D0005745525F53484F52545F50524553530DF9
:1051E0000A0000002A20504F5745525F4C4F4E474F
:1051F0005F50524553530D0A00000000000FC93F95
:10520000000F494000CB9640000FC9400053FB40BF
:1052100000CB164100ED2F41000F494100316241A2
:1052200000537B41003A8A4100CB9641005CA34188
:1052300000EDAF41007EBC41000FC94100A0D54147
:105240000031E24100C2EE410053FB4100F2034253
:10525000003A0A420083104200CB164200141D425D
:10526000005C234200A5294200ED2F420036364261
:10527000007E3C4200C74242000F4942A2000000AB
:10528000F9000000830000006E0000004E000000E6
:10529000440000001500000029000000FC00000090
:1052A0002700000057000000D1000000F5000000BA
:1052B00034000000DD000000C0000000DB00000042
:1052C0006200000095000000990000003C00000012
:1052D000430000009000000041000000FE000000BC
:1052E0005100000063000000AB000000DE00000081
:1052F000BB000000C500000061000000B700000016
:10530000240000006E0000003A000000420000008F
:105310004D000000D2000000E00000000600000088
:10532000490000002E000000EA0000000900000013
:10533000D1000000920000001C000000FE000000F0
:105340001D000000EB0000001C000000B100000088
:1053500029000000A70000003E000000E800000057
:105360008200000035000000F50000002E00000063
:10537000BB0000004400000084000000E9000000C1
:105380009C0000007000000026000000B400000037
:105390005F0000007E0000004100000039000000B6
:1053A00091000000D60000003900000083000000DA
:1053B0005300000039000000F40000009C000000D1
:1053C000840000005F0000008B000000BD000000B2
:1053D000F9000000280000003B0000001F00000052
:1053E000F800000097000000FF000000DE00000051
:1053F00005000000980000000F000000EF00000012
:105400002F000000110000008B0000005A00000077
:105410000A0000006D0000001F0000006D00000089
:10542000360000007E000000CF00000027000000D2
:10543000CB00000009000000B70000004F00000092
:10544000460000003F000000660000009E000000D3
:105450005F000000EA0000002D0000007500000061
:1054600027000000BA000000C7000000EB000000A9
:10547000E5000000F10000007B0000003D0000009E
:105480000700000039000000F70000008A0000005B
:105490005200000092000000EA0000006B000000D3
:1054A000FB0000005F000000B10000001F000000D2
:1054B0008D0000005D0000000800000056000000A4
:1054C000030000003000000046000000FC00000067
:1054D0007B0000006B000000AB000000F00000004B
:1054E000CF000000BC000000200000009A00000077
:1054F000F4000000360000001D000000A9000000BC
:10550000E300000091000000610000005E00000068
:10551000E60000001B00000008000000650000001D
:1055200099000000850000005F00000014000000EA
:10553000A000000068000000400000008D00000096
:10554000FF000000D8000000800000004D000000B7
:10555000730000002700000031000000060000007A
:10556000060000001500000056000000CA00000000
:1055700073000000A8000000C900000060000000E7
:10558000E20000007B000000C00000008C00000072
:105590006B0000000000C93F0000F0390000DA375E
:1055A0000000A2330000842E0000502B0000C22710
:1055B0000000D0220000C41F0000C61B00004417DA
:1055C0000400000007000000090000003863ED3E01
:1055D000DA0F493F5E987B3FDA0FC93F6937AC313C
:1055E00068212233B40F14336821A2330020202015
:1055F0002020202020202828282828202020202083
:105600002020202020202020202020202088101052
:1056100010101010101010101010101010040404AE
:10562000040404040404041010101010101041416C
:10563000414141410101010101010101010101015A
:10564000010101010101010110101010101042426E
:10565000424242420202020202020202020202022A
:1056600002020202020202021010101020000000CA
:10567000000000000000000000000000000000002A
:10568000000000000000000000000000000000001A
:10569000000000000000000000000000000000000A
:1056A00000000000000000000000000000000000FA
:1056B00000000000000000000000000000000000EA
:1056C00000000000000000000000000000000000DA
:1056D00000000000000000000000000000000000CA
:1056E00000000000000000000000000000000000BA
:0456F000A880FF1F70
:1056F4000000B442010000000000803F01FF0000F0
:105704001603550053004200200053006500720048
:10571400690061006C000000180354006500650016
:105724006E00730079006400750069006E006F00FC
:105734000403090409024300020100C03209040001
:1057440000010202010005240010010524010101E9
:105754000424020605240600010705820310004004
:1057640009040100020A00000007050302400000CA
:1057740007058402400000001201100102000040ED
:10578400C01683047502010200010000FFFFFFFF41
:10579400FF000000A880FF1F000000009483FF1F8B
:1057A400FC83FF1F6484FF1F000000000000000052
:1057B40000000000000000000000000000000000E5
:1057C40000000000000000000000000000000000D5
:1057D40000000000000000000000000000000000C5
:1057E40000000000000000000000000000000000B5
:1057F40000000000000000000000000000000000A5
:105804000000000000000000000000000000000094
:105814000000000000000000000000000000000084
:105824000000000000000000000000000000000074
:105834000000000000000000000000000000000064
:1058440001000000000000000E33CDAB34126DE601
:10585400ECDE05000B00000000000000000000006A
:105864000000000000000000000000000000000034
:105874000000000000000000000000000000000024
:105884000000000000000000000000000000000014
:105894000000000000000000000000000000000004
:105BC400F45600000080FF1FD0040000C45B0000F6
:105BD40000000020000000000000000000000000A1
:045BE40000000000BD
:0400000300001D4D8F
:00000001FF
