:1000000000000020F5220000292000002920000027
:1000100029200000292000002920000029200000BC
:1000200029200000292000002920000029200000AC
:10003000292000002920000029200000392000008C
:10004000292000002920000029200000292000008C
:10005000292000002920000029200000292000007C
:10006000292000002920000029200000292000006C
:10007000292000002920000029200000292000005C
:10008000292000002920000029200000292000004C
:10009000292000002920000029200000292000003C
:1000A000292000002920000029200000292000002C
:1000B000292000002920000029200000292000001C
:1000C000292000002920000029200000292000000C
:1000D00029200000292000002920000029200000FC
:1000E00029200000292000002920000029200000EC
:1000F00029200000292000002920000029200000DC
:1001000029200000292000002920000029200000CB
:1001100029200000292000002920000029200000BB
:1001200029200000292000002920000029200000AB
:10013000292000002920000029200000912400002F
:10014000292000002920000029200000292000008B
:10015000292000002920000029200000292000007B
:1001600029200000C92900002920000029200000C2
:10017000292000002920000029200000292000005B
:10018000292000002920000029200000292000004B
:10019000292000002920000029200000292000003B
:1001A00025240000B9230000292000002920000098
:0C01B00029200000292000002920000068
:10040000FFFFFFFFFFFFFFFFFFFFFFFF7EFBFFFF81
:100440002A4A2B4B1269197802F00202032906D8B6
:10045000DFE801F02A2418020AB100221A70234AA8
:100460005978126902F08002032906D8DFE801F00A
:1004700022282E020AB100225A701E4A12689A607F
:100480000020704752BB9988481C64299880E6D99F
:10049000501C032140009954C0B27047002A0CBF81
:1004A000022200221A70DAE7002AD8D101219A80AC
:1004B0001970D4E7002AE0D10121DA805970DCE715
:1004C000002A0CBF022200225A70D6E762B9DA88ED
:1004D000511C642AD980D0D90122D9E700220021F9
:1004E00050009954013070470122F8E7C0F00F40E6
:1004F0000086FF1F4886FF1F2DE9F04F4849494BF2
:100500004A68494D9E689888DC88DFF824E142F00B
:1005100020024A6083B000212A6801928C468846F6
:1005200042F2107A4FF001090091019F2A68D21B14
:100530003E4FBA4254D82A68921B5245F5D9DEF88C
:10054000102093F800B002F00202BBF1030F06D8AE
:10055000DFE80BF0332D3B020AB183F80080DEF8B0
:10056000102093F801B002F08002BBF1030F06D80F
:10057000DFE80BF0121709020AB183F801802E6838
:100580004FF0010CD1E7002A3CD1621C642C92B2DE
:1005900041D814460121F2E7002AF0D183F80190F6
:1005A000F7E7002A0CBF022200225A70E7E7002A70
:1005B0000CBF022200221A70D1E7002ACFD11046C8
:1005C000012283F800900092C9E7BAB900F1010B4B
:1005D00064281FFA8BFB17D8012258460092BEE709
:1005E000009FBCF1000F00D09E6007B1988001B160
:1005F000DC8001221A7303B0BDE8F08F002203F8FB
:10060000028092E70122FAE7012000904FF00300F8
:100610009854584689E70121144683460A46F5E76F
:1006200080F00F400086FF1F4886FF1FDF93040005
:10063000C0F00F402DE9F04F4849494B8A68494DB9
:100640009E689888DC88DFF824E142F020028A6006
:1006500083B000212A6801928C46884642F2107AC3
:100660004FF001090091019F2A68D21B3E4FBA4208
:1006700054D82A68921B5245F5D9DEF8102093F819
:1006800000B002F00202BBF1030F06D8DFE80BF066
:10069000332D3B020AB183F80080DEF8102093F876
:1006A00001B002F08002BBF1030F06D8DFE80BF0C7
:1006B000121709020AB183F801802E684FF0010C6D
:1006C000D1E7002A3CD1621C642C92B241D8144676
:1006D0000121F2E7002AF0D183F80190F7E7002A20
:1006E0000CBF022200225A70E7E7002A0CBF022248
:1006F00000221A70D1E7002ACFD11046012283F8D8
:1007000000900092C9E7BAB900F1010B64281FFA02
:100710008BFB17D8012258460092BEE7009FBCF120
:10072000000F00D09E6007B1988001B1DC800022EC
:100730001A7303B0BDE8F08F002203F8028092E73D
:100740000122FAE7012000904FF003009854584628
:1007500089E70121144683460A46F5E780F00F40F9
:100760000086FF1F4886FF1FDF930400C0F00F4084
:1007700038B504460D4604F013F800B92C4620465F
:1007800038BD00BF10B5044604F07AF80146204693
:1007900002F072FFBDE8104003F020B8034A116870
:1007A00013685B1A8342FBD3704700BF4886FF1F64
:1007B0002DE9F04F4B494C4B8C681E68B1F8048012
:1007C000B1F80690DFF824C183B04FF0000A4FF46F
:1007D0007A7202FB00F0D64642F21077CDF804A000
:1007E0001A68921B824241D21A68121BBA42F7D988
:1007F000DCF810200D7802F00202032D07D8DFE8A4
:1008000005F02311170212B14FF000020A70DCF854
:1008100010204D7802F08002032D20D8DFE805F08B
:10082000444A391B002A0CBF022200220A70EEE75C
:10083000002A45D108F10105ADB2B8F1640FA84610
:100840004DD801220192E2E7002AE0D14FF00105E4
:100850000D709046F5E712B14FF000024A701C6827
:100860001A68921B82424FF0010EBDD3DDF804B02E
:10087000BEF1000F00D08C60BBF1000F01D0A1F8D9
:100880000480BAF1000F01D0A1F8069003B0BDE8D2
:10089000F08FD2B909F10102B9F1640F92B216D802
:1008A00091464FF0010ADAE7002AD8D14FF001044F
:1008B0004C70F5E7002A0CBF022200224A70CEE7F6
:1008C00000224FF000058D548AE70122F9E74FF02E
:1008D000010A914652464FF003058D5480E70125E9
:1008E0000195F8E70086FF1F4886FF1FC0F00F4004
:1008F000044B054919604FF07E52012119719A602D
:10090000704700BF0080FF1F0000B44208B501F02F
:100910005FFE0448FFF736FF4FF4FA70FFF748FF19
:1009200000BEFEE7505F00004F4B197B01B97047D6
:100930002DE9F04FDFF83CC14C48DCF808209C68FA
:100940009D88DF88DFF830A142F02002CCF8082033
:1009500083B04FF0000C02680192E046E64642F296
:1009600010790268019E921B524545D80268121BFD
:100970004A45F6D93E4A93F800B0126902F00202E5
:10098000BBF1030F07D8DFE80BF02413190212B1F3
:100990004FF000021A70364A93F801B0126902F063
:1009A0008002BBF1030F20D8DFE80BF03F47371B75
:1009B000002A0CBF022200221A70ECE7002A4AD15A
:1009C00005F1010B642D1FFA8BFB4BD85D46884661
:1009D000E1E7002ADFD14FF001051D70884615467A
:1009E000D9E712B14FF000025A700468019E026804
:1009F000921B52458E46B9D9BEF1000F00D09C60C3
:100A0000B8F1000F00D09D80BCF1000F00D0DF8056
:100A100000221A7303B0BDE8F08F0ABB7A1C92B2B1
:100A2000642F17460FD88C46DFE7002ADDD14FF040
:100A300001045C7017468C46D7E7002A0CBF0222DF
:100A400000225A70D1E7AB468C4601224FF00305D5
:100A50009D545D4685E700224FF000069E5480E7D6
:100A60000122F9E78846F1E70086FF1F4886FF1F4D
:100A7000C0F00F4080F00F40DF9304004D4B197B16
:100A800001B17047DFF838C14B48DCF8042042F070
:100A900020022DE9F04F9C689D88DF88CCF8042067
:100AA000DFF82091454ED0F800808A468C460268D7
:100AB000A2EB08024A4546D8026842F2107E121B99
:100AC0007245F4D9326993F800B002F00202BBF12A
:100AD000030F07D8DFE80BF02312180212B14FF012
:100AE00000021A70326993F801B002F08002BBF183
:100AF000030F20D8DFE80BF03E44351B002A0CBF63
:100B0000022200221A70EDE7002A3FD105F1010B05
:100B1000642D1FFA8BFB41D85D460121E2E7002AD4
:100B2000E0D14FF00101197015460121DAE712B149
:100B30004FF000025A7004680268A2EB08024A45AE
:100B40004FF0010CB8D9BCF1000F00D09C6001B18E
:100B50009D80BAF1000F00D0DF8001221A73BDE83A
:100B6000F08FCAB97A1C642F92B21DD817464FF085
:100B7000010AE0E7002ADED14FF001045C70F5E7DE
:100B8000002A0CBF022200225A70D4E700224FF044
:100B9000000E03F802E08AE70122F8E701214FF096
:100BA00003059D545D4682E74FF0010A1746AB46A8
:100BB0005246F4E70086FF1F4886FF1FC0F00F4033
:100BC00080F00F40DF930400F8B52C4C6169206978
:100BD00003F020FB20F000430646216AE069A36190
:100BE00003F018FB20F000436362054631463046AF
:100BF00003F01AFC29460646284603F015FC014678
:100C0000304603F009FB04F057F80346A3621C4981
:100C1000206A03F009FC03F0E3FD19490746E06987
:100C200003F002FC03F0DCFD16490546206903F0E1
:100C3000FBFB03F0D5FD13490646606903F0F4FBA6
:100C400003F0CEFD331A002BA5EB070083EAE37215
:100C5000A2EBE372C8BF01210B4BE262D8BF4FF099
:100C6000FF31002880EAE075CCBF01224FF0FF324F
:100C7000A5EBE07519735A732563F8BD0086FF1F55
:100C800014E0D645D04933450080FF1FF8B5344CF9
:100C90000D46E5616169206103F0BCFA064626F065
:100CA0000043216AA361284603F0B4FA20F0004310
:100CB000636205463146304603F0B6FB29460646D8
:100CC000284603F0B1FB0146304603F0A5FA03F0D5
:100CD000F3FF0346A3622349206A03F0A5FB03F058
:100CE0007FFD20490746E06903F09EFB03F078FD95
:100CF0001D490546206903F097FB03F071FD1A4971
:100D00000646606903F090FB03F06AFDEB1B301AA6
:100D1000002883EAE37280EAE071A2EBE372A1EBC0
:100D2000E071C8BF01251148E162D8BF4FF0FF351F
:100D3000002BCCBF01234FF0FF3391422263057398
:100D4000437306DD4A100023C4E90E1284F83430E0
:100D5000F8BD51100123C4E90E2184F83430F8BDE8
:100D60000086FF1F14E0D645D04933450080FF1FA1
:100D7000F8B52E4C03460D46636101462562206995
:100D800003F048FA20F0004306462946E069A361D3
:100D900003F040FA20F000436362054631463046D6
:100DA00003F042FB29460646284603F03DFB014678
:100DB000304603F031FA03F07FFF0346A3621C497B
:100DC000206A03F031FB03F00BFD19490746E06987
:100DD00003F02AFB03F004FD16490546206903F0E1
:100DE00023FB03F0FDFC13490646606903F01CFB7E
:100DF00003F0F6FC331A002BA5EB070083EAE3723D
:100E0000A2EBE372C8BF01210B4BE262D8BF4FF0E7
:100E1000FF31002880EAE075CCBF01224FF0FF329D
:100E2000A5EBE07519735A732563F8BD0086FF1FA3
:100E300014E0D645D04933450080FF1F2DE9F04F1F
:100E4000394F3A4983B00446B86A03F0EDFAD7E95E
:100E50000B98214603F09CFBC84504464046B8BFAA
:100E6000484603F08DFA0146204603F091FB03F05B
:100E7000DDFC97F84030002B36D1BE6B2C4A97F83A
:100E800034E092F90CA092F90D200192013E711C00
:100E9000FC6B284DDFF8A4C0274A45F6566B20D0DE
:100EA000BEF1000F29D0DCF8003001994C440B440E
:100EB000A045CCF8003004DC2B685344A4EB0804B4
:100EC0002B602B68002B29DB2B685B4526DC116827
:100ED00013685B1A9842FBD8013E711C4FF0010366
:100EE000DED1BE6303B1FC633A69FB697A613B62A0
:100EF00003B0BDE8F04FFFF767BE2B68444453448E
:100F0000A1452B60DDDCDCF8003001990B44CCF806
:100F100000302B68002BA4EB0904D5DA0223C7E9C3
:100F20000E6487F84030DFE70086FF1FC0E1644CA5
:100F30000080FF1F5C86FF1F4886FF1F6086FF1F23
:100F40002DE9F84F424E337B002B68D1414C424F84
:100F500001F03EFB4148D7F80080256842F20F7A45
:100F600001F0E6F942F2107BD4F8009005E0236826
:100F70009B1A5B4502D9FFF763FAB2682368A3EBBB
:100F800009035345F3D923685B1BB3F57A7FFAD97C
:100F90003B68434508D0D7F80080256823685B1B71
:100FA000B3F57A7FEFD9F3E7002001F0C1F9DFF85C
:100FB000C490D4F8008042F2107A05E023685B1BED
:100FC000534502D9FFF73CFAB5682368A3EB080341
:100FD0004B45F3D9224A23482349DFF89880002360
:100FE0003B6013600022036072610B603262FFF7A6
:100FF000EBFD276842F210792368DB1B43450AD8D2
:1010000023685B1B4B45F7D9FFF71AFA2368B568CD
:10101000DB1B4345F4D9BDE8F84F01F0C7BA134ACA
:101020000C4C9368124F43F020039360256842F202
:10103000107805E023689B1A434502D9FFF700FAB0
:10104000B26823685B1BBB42F4D9002333737EE78D
:101050000086FF1F4886FF1F5086FF1FC063FFFFEB
:101060005886FF1F5C86FF1F6086FF1F80F00F40C1
:10107000DF9304009F86010070B53C4CFFF760FFD2
:1010800094F8415065B30D210025394802F0F4FA77
:1010900002F0A4FB65612562FFF796FD354BE36125
:1010A0002561FFF791FDD4E90B239A4254DC03EB51
:1010B000D3725210C4E90E32012184F834102E4844
:1010C000FFF7BCFE002363612362FFF77DFD2B4A1F
:1010D0009368002143F01003936084F841102BE0E3
:1010E0000B210026264802F0C7FA02F077FB666162
:1010F0002662FFF769FD234BE3612661FFF764FD7C
:10110000D4E90B239A421FDC03EBD3725210C4E9DB
:101110000E32012184F834101B48FFF78FFE0023A4
:1011200063612362FFF750FD144A5368012143F0C5
:101130001003536084F841101448082102F09CFA0F
:10114000BDE8704002F04ABB02EBD2735B10C4E909
:101150000E2384F83450DFE702EBD2735B100021DA
:10116000C4E90E2384F83410A9E700BF0086FF1FEE
:10117000685F0000000060C100007A43C0F00F40CB
:10118000785F00000000E03F00004842845F0000FC
:101190002DE9F04F694C237B83B0002B40F09F80FA
:1011A000A668674D00232361E361FFF70DFDD4E9D5
:1011B0000B239A4240F38A8002EBD2735B10C4E99E
:1011C0000E23002184F834105E48FFF737FE00221A
:1011D0002B68A188E088DFF888E101939446904667
:1011E00042F2107A4FF001090092019F2B68DB1B3D
:1011F000554FBB4255D82B689B1B5345F5D9DEF89C
:10120000103094F800B003F00203BBF1030F06D8CE
:10121000DFE80BF02D4135020BB184F80080DEF8D9
:10122000103094F801B003F08003BBF1030F06D82F
:10123000DFE80BF0121709020BB184F801802E6869
:101240004FF0010CD1E7002B69D1431C64289BB2FD
:101250006ED818460122F2E7002BF0D184F80190F5
:10126000F7E7002B0CBF022300236370E7E7002B96
:10127000D5D11946012384F800900093CFE7002BC5
:1012800049D101F1010B64291FFA8BFB49D80123D5
:1012900059460093C3E7002B0CBF022300232370A1
:1012A000BDE7009FBCF1000F00D0A66007B1A18090
:1012B00002B1E080254C26482649274A00232360B6
:1012C00003600B60136003B0BDE8F08F03EBD372D3
:1012D00052100121C4E90E3284F8341074E71F4A19
:1012E000174D9368DFF87C9043F020039360D5F8A6
:1012F000008042F2107705E02B689B1BBB4202D9AD
:10130000FFF79EF8A6682B68A3EB08034B45F3D9BB
:101310000023237346E7002304F8038065E70123D5
:10132000FAE7012100914FF00301E15459465CE7CF
:10133000012218468B461346F5E700BF0086FF1FC3
:101340004886FF1F0000C8429F8601005086FF1F8D
:101350005886FF1F5C86FF1F6086FF1F80F00F40CE
:10136000C0F00F40DF9304002DE9F04F874B8BB0A6
:101370005A6905920F1E1A6A5B6C009004920293E0
:1013800040F335824FF07E53069300230793089372
:101390004FF0FF3303934FF00008009A08F1FF333A
:1013A000134413F801AFAAF12802322A1BD8DFE850
:1013B00002F08D1A1A1A1A1A1A1A1A1A1A1A1A1A5C
:1013C0001A1A1A1A1AA01A1A1A1A1A1A1A1A1A1AF7
:1013D0001F1F1A1F1F1A1A1F1A1A1F1A1A1A1A1A4F
:1013E0001A1A1F1F1F0008F101084745D9DC80E0C9
:1013F00008F101039F427CDD009B1A464244C3F181
:10140000010B0BEB020812F8011F2029F9D0092962
:10141000F7D02D2900F08E812B2900F093814745CC
:1014200040F3958100230193009B08F1FF3803EB03
:1014300008050BEB050000264FF07E5103463446AD
:1014400008460CE02E2A21D116B1514902F0ECFFDA
:101450000BEB0503BB4298464FF0010616DA15F870
:10146000012FA2F130095FFA89FCBCF1090F9846FF
:10147000E8D816B1464902F0D7FF0BEB050304EBA1
:101480008404BB4209EB44049846E8DB019B014617
:1014900003B16442AAF1460ABAF1140F40D8DFE85A
:1014A0001AF0FC007B003F00EC00DC003F003F0036
:1014B00043003F003F00D0003F003F003F003F009F
:1014C0003F003F003F0020010C01A30008F1010391
:1014D0009F420EDD009A904418F8012F292A00F04F
:1014E000238101339F42F7D1009AD25D292A00F06F
:1014F0001B81039B042B00F27A81DFE813F05B0170
:10150000E603A102A1020404702C00F01C85732CD8
:1015100040F0FC818A211F4802F0AEF802F05EF92B
:1015200047453FF73AAFE4E7282CEDDC012C40F3C8
:10153000ED81023C262C00F2E981DFE814F0F10194
:10154000F701F7011102E701F7011102E701E701D5
:10155000E701E701E701E701E701E701E701E7014B
:10156000E701E701E701E701E701E701E701E7013B
:10157000E701E701E701F101E701E701E701E70121
:10158000E701E701E701E7012902C7010086FF1F24
:1015900000002041C05F00001C2C00F3B680002C2E
:1015A000C0F23E821C2C00F23B82DFE814F04402C1
:1015B0004402440244024402390239023902390227
:1015C0003902390239023902390239023902390243
:1015D0003902390239022A02320239023902390249
:1015E000390239023902F9012046019102F0C8FEA0
:1015F000019902F0CDFFBD4D2B79A968002B40F079
:10160000288102F0C5FF0146029802F005FE029013
:10161000002103F0A7F8B64B1B7B002840F01D818A
:10162000002B40F04D8147453FF7B7AE039B042B9D
:1016300000F2DD80DFE813F0C3005204040204026C
:1016400067032046019102F09BFE019902F0A0FF82
:10165000474506903FF7A1AE4BE72046019102F0C7
:101660008FFE019902F094FFA04DA96802F090FF4F
:10167000474508903FF791AE3BE72046019102F0C5
:101680007FFE019902F084FF984DA96802F080FF67
:10169000474507903FF781AE2BE72046019102F0C6
:1016A0006FFE019902F074FF904DA96802F070FF7F
:1016B000474528603FF771AE1BE72046019102F0D5
:1016C0005FFE019902F064FF884D2B79A968002B19
:1016D00000F0B48002F05CFF474504903FF75DAE38
:1016E00007E72046019102F04BFE019902F050FFFE
:1016F0007E4D2B79A968002B00F0958002F048FF01
:10170000474505903FF749AEF3E65B2C00F04E836A
:101710005C2C7ED1764B00225A611A62FFF754FA94
:1017200047453FF73AAEE4E603F1010847453FF786
:1017300034AEDEE608F10108474540F31483012387
:10174000019371E608F1010847453FF76BAEAAF136
:10175000460ABAF1140F3FF6CCAE01A353F82AF0B3
:10176000E31E0000351A0000F3140000E91E00001B
:10177000EF1E0000F3140000F31400000D19000028
:10178000F3140000F3140000F51E0000F314000031
:10179000F3140000F3140000F3140000F31400002D
:1017A000F3140000F3140000FD1E0000031F0000EE
:1017B000091F00004E4B1B7B002B40F01D834C4B40
:1017C000059A1A611C46049ADA61FFF7FDF9E26A8C
:1017D000236B9A4240F3FC8202EBD2735B10C4E9A4
:1017E0000E23002184F834104248FFF727FB404BBA
:1017F00093F84030012B5AD0022B47D0002B3CD01D
:101800001E213D4801F038FF0BB0BDE8F04F01F05C
:10181000E5BF5A2C40F00481344D012347452B711C
:101820003FF7BBAD65E602F0B3FE0146059802F056
:10183000F3FC474505903FF7B0AD5AE602F0A8FE2D
:101840000146049802F0E8FC474504903FF7A5AD37
:101850004FE602F09DFE0290DAE6002B00F088824F
:1018600047453FF79AAD039B042BC0D8DFE813F040
:10187000C4023302E800E8004B0204211F4801F0D3
:10188000FBFE0BB0BDE8F04F01F0A8BF1C211C48C7
:1018900001F0F2FE01F0A2FF0B211A4801F0ECFE6C
:1018A00001F09CFF0BB0BDE8F04FFFF771BC0B21BE
:1018B000144801F0E1FE0BB0BDE8F04F01F08EBF1F
:1018C000FEF7B8FE47453FF768AD12E611210E4816
:1018D00001F0D2FE01F082FF0123054A82F8413077
:1018E000FFF7CAFB47453FF758AD02E60080FF1FF0
:1018F0000086FF1F00007A438C60000058600000E3
:101900006060000080600000AC5F00000821A84813
:1019100001F0B2FE01F062FF47453FF73EADE8E55A
:10192000FFF736FC47453FF738ADE2E5A14B1B7B9F
:10193000002B00F0EC8247453FF72FAD039B042BB3
:101940003FF655AF01A252F823F000BFB5170000D3
:101950004B1F0000411A0000411A0000071D000043
:10196000944B1B7B002BABD147453FF716AD039B38
:10197000042B3FF63CAF01A252F823F0B51700004C
:10198000DB1E0000411A0000411A0000071D000084
:101990000F21894801F070FE01F020FF00239CE731
:1019A00000210846FFF772F98448854CFFF746FA94
:1019B000804B25689A68B3F804B08248DB88DFF86A
:1019C00020E201934FF00009CDF82490CA4642F27C
:1019D000107C23685B1B834200F23F8123689B1AC3
:1019E0006345F6D9734BDEF810101B7801F0020145
:1019F000032B00F2FC80DFE813F01B011401060149
:101A0000F500714D4FF07E534745AB603FF7C5ACD5
:101A10006FE56D4D6D4BAB6047453FF7BEAC68E57C
:101A200008216B4801F028FE01F0D8FE47453FF73A
:101A3000B4AC5EE50024474503943FF7AEAC58E5EF
:101A40005C4C07996569284602F0E6FB246A089910
:101A50000746204602F0E0FB39460646019028463C
:101A600002F0D8FB31460546204602F0D3FB39464A
:101A70000446059802F0CEFB31468146049802F0F8
:101A8000C9FB039B022B824600F0AC81294620460D
:101A900003F010F949460646504603F00BF981461B
:101AA0004946304602F072FE20B14846494902F0EC
:101AB000B3FB81464846314602F0ACFB29468146DD
:101AC000284602F0B1FC21460546204602F0ACFC57
:101AD0000146284602F0A0FB03F0EEF83E4904461A
:101AE000484602F0A1FC21460546484602F09CFC0F
:101AF0003A4902F04DFD82460146284602F050FE6A
:101B000000B95546284603F01DF802F069FE034669
:101B1000002B00937FF76BAE02F032FC039B032B8C
:101B20008246009B00F06B81274D03F1FF3B584636
:101B300002F026FC514602F02BFD494602F074FCEF
:101B4000314602F069FB804603F03AF800904046C7
:101B500003F072F800998046204602F065FC394691
:101B600002F05AFB134B02461A614146204602F02E
:101B70005BFC019902F050FB0E4BD861FFF724F893
:101B80000C49D1E90B329A42C0F2D98002EBD273F0
:101B90004FF001005B1081F834000BF1FF3B286827
:101BA0008A63CB63FFF74AF9BBF1FF3FBFD11EE663
:101BB0004C6000000086FF1F9C5F00000000C842D0
:101BC0004886FF1F9F8601000080FF1F3333CB41F3
:101BD000905F0000DA0FC9409A9919400AD7A33BD9
:101BE000C0F00F4019B1A94B4FF000011970A7497F
:101BF000DEF81030497803F08003032925D8DFE8A8
:101C000001F0565D491F002940F09B810BF1010353
:101C10009BB2BBF1640F9B4600F28F8101230993B5
:101C2000E5E7002999490CBF022300230B70DEE78A
:101C30000029DCD1954B4FF001061E708B46EDE775
:101C40001BB1924B4FF000025A70226823685B1B55
:101C500083424FF0010A7FF6C1AEBAF1000F01D006
:101C60008A4B9A60099B13B1884BA3F804B0B9F171
:101C7000000F02D0854B019ADA80854C8548864951
:101C8000864A00234745236003600B6013603FF7DB
:101C900084AB2EE4002B40F04A8101994B1C64294F
:101CA0009BB200F23B8101934FF00109CDE7002B7D
:101CB000CBD1764A4FF001015170F4E7002B734A03
:101CC0000CBF022300235370BFE7704B744D1B7B86
:101CD000002B00F003816D4B059A1A611C46049A93
:101CE000DA61FEF771FFE26A236B9A4266DD02EB6E
:101CF000D2735B10C4E90E23002184F834102868E5
:101D0000FFF79CF873E567490698674C02F08CFB77
:101D100002F08CFD4FF47A75266805FB00F542F25F
:101D2000107705E023689B1ABB4203D9FEF788FBB6
:101D3000564B9A6823689B1BAB42F3D357E5534934
:101D400003EBD3724FF00000521081F834000BF116
:101D5000FF3B28688B63CA63FFF770F8BBF1FF3F56
:101D60007FF4E5AE43E500244FF07E51FFF792BBD0
:101D70004E4A4D4C5368DFF838A143F020035360BE
:101D8000D4F8009042F2107B05E023689B1A5B4573
:101D900003D9FEF755FB3D4B9A682368A3EB090373
:101DA0005345F2D9394A0123137359E53C4D0023B9
:101DB00047452B713FF7F1AAFFF79BBB334803EB75
:101DC000D37252100121C0E90E3280F8341096E728
:101DD0002E4803EBD37252100121C0E90E3280F875
:101DE000341001E5494602F065FF294606462046C3
:101DF00002F060FF814653E6FEF71CFCDFE44FF083
:101E0000010B5B44264D0293584602F0B9FA514645
:101E100002F0BEFB494602F007FB314602F0FCF936
:101E2000804602F0CDFE0090404602F005FF009A89
:101E300080462146104602F0F7FA394602F0ECF9E6
:101E4000124B02461A612146404602F0EDFA019912
:101E500002F0E2F90D4BD861FEF7B6FE0B49D1E96D
:101E60000B239A4226DD02EBD2734FF000005B1089
:101E700081F834002868CB638A63FEF7DFFF029B9A
:101E80000BF1010B9B45BFD1B1E400BF0086FF1FE2
:101E90005086FF1F5886FF1F5C86FF1F6086FF1F4E
:101EA0000080FF1F00007A444886FF1F80F00F402B
:101EB000DF930400264903EBD3724FF00100521068
:101EC00081F8340028688B63CA63FEF7B7FF029B72
:101ED0000BF1010B9B4597D189E41E4DFEF70CFBDE
:101EE000F9E60020FFF7E0BB0020FFF7CDBB0020A4
:101EF000FFF7BABB00230693FFF712BB0020FFF7E2
:101F0000F7BB0020FFF7E0BB0020FFF774BBFEF734
:101F1000F3FA47453FF741AAFFF7EBBA4FF0010943
:101F200001934B460A494FF00306CE5451E5012375
:101F300007494FF00006CE544BE50B4601210991AD
:101F4000F0E70023F4E7FEF7E1FC024DC3E600BF33
:101F50000086FF1F0080FF1F3049314B0A6810B414
:101F60009C6842F21070121B82420AD92D4A1878DE
:101F7000126902F00202032809D8DFE800F01B21F1
:101F80002705002010BC70470AB100221A70254AAC
:101F90005878126902F08002032806D8DFE800F0C2
:101FA000302A22020AB100225A700A6810BC9A60D4
:101FB00000207047002AEAD101209A801870E6E7D5
:101FC000002A0CBF022200221A70E0E7F2B99888BA
:101FD000441C64289C80DAD9501C40000321995489
:101FE000C0B2CFE7C2B9DA88501C642AD880DCD9E5
:101FF0000122F1E7002A0CBF022200225A70D4E726
:10200000002AD2D10120DA805870CEE700220021C8
:10201000500099540130B5E70122F8E74886FF1FC8
:102020000086FF1FC0F00F40684620F007018D4674
:1020300001B401BC85467047684620F00701044A98
:102040008D4601B4136801BC0133136085467047A7
:102050004886FF1F214803E049B9002B3CD00C30D3
:10206000D0E900218368002AF6D09142F7D0002BF6
:10207000F5D010B442EA010414F0030F13D0E407C2
:102080001BD512F8014B01F8014B013B002BF1D19C
:102090000C30D0E900218368CAB90029F6D1002BA1
:1020A000F6D110BC7047032BE9D952F8044B41F824
:1020B000044B043B002BDDD1EAE7012BE1D932F9D7
:1020C000024B21F8024B023B002BD3D1E0E79142B7
:1020D000DED0002BCED1DBE7704700BFF06A0000F6
:1020E00088420ED06AB141EA000313F0030F09D011
:1020F000DB070FD511F8013B00F8013B013A002A3C
:10210000F1D17047032AF3D951F8043B40F8043B5E
:10211000043AE7E7012AEDD931F9023B20F8023B06
:10212000023ADFE7014B03B194E77047F06A000021
:10213000104A114BD21A0AD0002013F0030107D124
:10214000032A05D9043A43F8041B002AF5D1704745
:1021500013F0010107D1012A05D0023A23F8021B2E
:10216000002AEAD1F3E7013A03F8010B002AE4D18F
:10217000EDE700BFE88EFF1F0086FF1F2D492E4AA6
:102180002E482F4B30B4886041F244014CF220506D
:10219000D0812C4C4FF4E9704DF62815D581108074
:1021A0005C5041F2380028491A5842F4F0521A5053
:1021B0008B781C0703D58B7843F008038B70234B77
:1021C000234A8A242420A021147058701A461970BA
:1021D00093799807FCD51D4A9379D906FCD41B4AFC
:1021E000937903F00C03082BFAD1052043231749F8
:1021F000107153718B799A06FCD5144A93795B065A
:10220000FCD50F4B114941F244004FF0817541F26A
:1022100048041D50052520201D5110708B7903F0B6
:102220000C030C2BFAD1064A0A4941F2040330BCD4
:10223000D150704700ED00E0002005400000000094
:10224000007004400000330100D007400040064009
:1022500000500640C000050080F31188704700BFA1
:1022600030B41E4A1E4B51791E481F4D1F4C01F0C1
:10227000E0015171117901F0F80111711A781C49CE
:1022800002F08C0242F050021A705A7802F09C025E
:1022900042F040025A709A7802F0E6029A700023E7
:1022A00002222B70A27280F8493380F814334A69F5
:1022B00004F50324803422F003024A616269472551
:1022C00022F0C0020721626140F8EC5C40F8F01C8B
:1022D00083F3118862B630BC704700BF00F007403E
:1022E00000D0074000E100E000E0074000C00740E8
:1022F00040F00F4008B5FFF741FF0B4B1846002890
:1023000007D0854681B04FF000006FEA00000090D2
:1023100001B0FFF70DFF054B0BB1FFF79BFEFFF779
:102320009FFF02F01BFBFEE700000020F06A0000A8
:1023300038B5041E0EDD4FF6FF75291B21EAE17149
:1023400089B2052000F028FA29460620BDE8384069
:1023500000F022BA4FF6FF71052000F01DFA04F5D7
:102360007F41FF3121EAE171BDE8384089B20620A2
:1023700000F012BA38B5041E0EDD4FF6FF75291BAA
:1023800021EAE17189B2002000F006FA2946012015
:10239000BDE8384000F000BA4FF6FF71002000F0B1
:1023A000FBF904F57F41FF3121EAE171BDE83840D6
:1023B00089B2012000F0F0B9164B68469A6920F006
:1023C00007018D46D20131B402D4DB69DB011DD592
:1023D000104A114B9169114D114841F08071916182
:1023E000D16941F08071D16119785C782A6959709E
:1023F00001EB8401C2F3811200EB81011A708A564D
:10240000032A03D012B159680A445A6031BC854688
:10241000704700BF00B004404C86FF1F80F00F40A3
:10242000C45E0000164B68461A6820F007018D460E
:10243000D20131B402D45B68DB011DD5104A114BC7
:102440001068197A5C7A597240F080701060506898
:102450000D4D40F0807050602A690C4801EB8401FA
:1024600002F0030200EB81011A728A56032A03D09C
:1024700012B1D9680A44DA6031BC8546704700BFA2
:1024800000A004404C86FF1F40F00F40C45E0000D7
:10249000684620F007018D462DE9F9413F4B1A6847
:1024A000120603D4BDE8F941854670471A683C4FCF
:1024B00022F080021A603E697A68B8697D69FB681B
:1024C000B61A301AED1A01F05BFF364901F0ACFF85
:1024D0000446304601F054FF334901F0A5FF0146A0
:1024E000204601F099FE02F07BF9041E37DD4FF61D
:1024F000FF78A8EB040121EAE17189B2052000F020
:102500004BF94146062000F047F9F869281A01F016
:1025100037FF244901F088FF0446284601F030FFC8
:10252000214901F081FF0146204601F075FE02F0CD
:1025300057F9041E22DD4FF6FF78A8EB040121EACB
:10254000E17189B2002000F027F94146012000F036
:1025500023F9C7E90665BDE8F941854670474FF69E
:10256000FF71052000F018F904F57F41FF3121EAE1
:10257000E17189B2062000F00FF9C6E74FF6FF714E
:10258000002000F009F904F57F41FF3121EAE171F3
:1025900089B2012000F000F9DBE700BF00900340A2
:1025A0004C86FF1F0080BB4600409C45064B002226
:1025B000C3E9062272B6054B1A68502142F00802A0
:1025C0001A60196062B670474C86FF1F0090034086
:1025D00008B572B60D4B4022196819601A6062B6D0
:1025E0004FF6FF71052000F0D7F84FF6FF71062077
:1025F00000F0D2F84FF6FF71002000F0CDF8BDE8F2
:1026000008404FF6FF71012000F0C6B8009003406B
:10261000324BDFF8ECC01A6831483249F0B5DFF8C8
:10262000E4E0314F314E02EA0E0242F480721A6049
:102630001A6802EA0C023A431A605A6802EA0E0269
:1026400042F480725A605A6802EA0C023A435A60B5
:1026500000224FF0807380F8582383608C6904EA6D
:102660000E0444F480748C618D6905EA0C053D43C9
:102670008D61CB6903EA0E0343F48073CB61CC69AF
:102680001B4B04EA0C043C4341F23C054FF000773D
:10269000CC6180F8592387607459164F164944F06D
:1026A0000074745104245C6508264FF000455024E2
:1026B0001A60DA645A60DA605A619E6080F83F23DB
:1026C00045601C603B690D4AC3F381130B704B706E
:1026D000136903F003030B724B72F0BD00A00440BA
:1026E00000E100E000B0044000000B010070044075
:1026F0000090034080F00F404C86FF1F40F00F40D9
:10270000FFFFF0FEFFF8FFFE1E481F4B41F23C01A9
:1027100030B442581D4D1E4C42F08072425004218C
:10272000596500222C2140F283301A60DA645A6025
:10273000DA605A61DA615A62DA625A63DA635A64B9
:102740009860D9601A6159619A6159639A63D96333
:102750001A6469680F48214041F480616960A96882
:10276000214041F48061A9604169214041F48061C8
:1027700041618269224042F48062092182611960CC
:1027800030BC7047007004400080034000B004403B
:10279000FFF8FFFE00C00440074B9B6801339BB26B
:1027A00023B101FB03F101F50041090C034BC0000B
:1027B00003449960704700BF0080034008800340D5
:1027C000431E032B13D872B60A4A52F8230060B195
:1027D00070B402EB43040588218A466842F82360FE
:1027E000491B218262B670BC704762B670470020F8
:1027F000704700BF0088FF1F013803280DD8094B20
:1028000003EB8000836972B64BB100201A885B68C5
:102810001044002BFAD162B670470020704718466A
:10282000F9E700BF0088FF1F013803280CD872B6F3
:10283000074B03EB8000836943B100205B680130E4
:10284000002BFBD162B67047002070471846F9E7AD
:102850000088FF1F10B472B6264A137813F0080FD1
:10286000254B05D0D3F8201221B3D3F8281281B319
:1028700051780C0705D5D3F84012A9B3D3F8481204
:1028800061B39178090705D5D3F8601271B3D3F815
:10289000681229B3D278120705D5D3F880223AB34B
:1028A000D3F88822F2B162B6002283F8A02210BCCD
:1028B00000F088BE042293F8A012104C03EBC20271
:1028C00008300139C2E9804083F8A01262B610BC1A
:1028D0007047052293F8A012094CEFE70922F9E7A7
:1028E0000D22F7E71122F5E70822E4E70C22E2E7E0
:1028F0001022E0E7045F00000088FF1F880040000E
:10290000C800400070B4441E032C20D81C4A40016B
:1029100002F5007340F01000184472B6131993F8D2
:10292000A432032B1DD8DFE803F002141719032586
:102930000E8810F0080F224414BFC823882343EAEE
:102940000643083182F8A452C0E9003162B670BC77
:10295000704708300225EBE70525E9E70830042534
:10296000E6E7A4001319986938B1D3F8A832596082
:102970001444C4F8A81262B6E9E79961F8E700BF09
:102980000088FF1F30B4451E032D16D80D4C4001A2
:1029900004F5007340F01000184472B6631993F800
:1029A000A43263B1083000232C44120442F08002A8
:1029B000026084F8A432416062B630BC70470123E3
:1029C000F2E700BF0088FF1F684620F007018D4630
:1029D0002DE9F14FDFF85C92DFF85C82DFF85CA252
:1029E00084B009F5007B3FE09D080BEBC506013A7A
:1029F000716813F00803D4B2A1F1080040F02682F8
:102A00005BF83520120C97B221F8087C002A00F000
:102A1000148259F8242021F8063C41F8043C002A8D
:102A200000F05D82A30009EB0302D2F8CC225060D3
:102A300009EB44024B44118AC3F8CC027B18138281
:102A400000F0A2FD002800F04282744A744B16F098
:102A5000080F00F1080008BF134670604BF83530CE
:102A6000704B082283F880206E4B93F88040E4B2CC
:102A700060071CD599F8B832ABB199F8B92202F0C9
:102A8000FF032AB1013BDBB289F8B93203B900BEBA
:102A900065490A7802F0FF032AB1013BDBB20B70F3
:102AA000002B00F080825F4B042283F8802014F01A
:102AB000080300F0F1815B4B93F89030DBB21A0908
:102AC00092D19B08594850F8331000EBC304C1F36E
:102AD0008301013964680C2900F29A80DFE801F073
:102AE0008E8E989898989898539898980700D4E95B
:102AF00000544B4F40F83370A9B240F28163002676
:102B000001209942C9F8BC52C9F8C042C9F8C46250
:102B1000C9F81062C9F8186289F8C80200F29080FA
:102B2000B1F5D06F80F00583B1F5817F00F04C8363
:102B300000F22881802900F07882822940F0748197
:102B400004F07F03042B00F26F8130333549A9F87C
:102B5000E06211F8233013F002034FEA144400F04E
:102B60001984012C89F8E00200F2658299F8DC02F0
:102B70002F4D40F00201C90009EB01032404C3F802
:102B80000452C8233EE1D9F8C4524DB3B9F8E86203
:102B900099F8C81299F8DC22402E334628BF40230A
:102BA000002942F00204A6EB030014BFC8278827BF
:102BB00047EA034709EBC40480B281F0010182F0C7
:102BC0000102A9F8E80289F8C8122B44C4E980750B
:102BD00089F8DC2210B93F2E98BF0023C9F8C4320F
:102BE000B9F8BC32B3F5A06F12D10E4B99F8BE22E2
:102BF00083F89820002389F8BD3209E0B9F8BC12A7
:102C000042F22102914200F09D81054A40F83320B2
:102C1000044B012283F8942022E700BF8800400083
:102C2000C800400000200740D98EFF1F008AFF1F08
:102C3000E08AFF1F0088FF1FCC200740D0200740FC
:102C400042F22103994200F0E78000F2B480B1F52E
:102C5000086F00F0FE81B1F5106F40F0E580D9F803
:102C60002022C5F30743110689F8B83200F1E98242
:102C7000D9F828321A0600F1C682D9F830321B067C
:102C800000F1D982D9F838321E0600F1CE82D9F887
:102C900040321D0600F1C382D9F848321C0600F10B
:102CA000B882D9F85032180600F16E83D9F858323C
:102CB000190600F16383D9F860321A0600F14083E7
:102CC000D9F868321B0600F12183D9F870321E064C
:102CD00000F14E83D9F878321D0600F14383D9F80C
:102CE00080321C0600F1E382D9F88832180600F120
:102CF000D882D9F89032190600F12E83D9F898328B
:102D00001A0600F12383A94D05F11003029305F182
:102D10001803009305F52A73039305F5337305F53E
:102D200029760193002455F8040B28B1476800F078
:102D300049FC3846002FF9D1009B45F8044C18682F
:102D4000019B43F8044B019328B1476800F03AFC1B
:102D50003846002FF9D1009A337842F8044B00929C
:102D6000039A42F8044B0392029A22F8024B023B68
:102D70000292032B00F29181DFE813F0D9018C015C
:102D8000D9018C0140F2023399424AD104F07F0408
:102D9000042C49D82B0C47D1A40004F1804404F53D
:102DA000E42499F8DC0294F8C05040F00201C90014
:102DB00045F002051EE242F22123994213D17C49DB
:102DC0007C4B99F8DC02096819607B4C40F00201E9
:102DD000C5F30743C900237009EB01033446C3F868
:102DE0000462C8230EE042F2213399421CD199F8C3
:102DF000DC0240F00201C90009EB01030024C3F822
:102E00000442C82349441C4380F00100C1F8004239
:102E100089F8DC0289F8C822684B012283F89420E3
:102E2000F6E6B1F5A06FE2D0644B0F2283F8C02024
:102E3000624B012283F89420EAE6614A614B16F066
:102E4000080F08BF13464BF8353009E600F0BAFB0F
:102E500009EB84018B69002B45D009EB040258680B
:102E600092F8A422886103F108017160032A08D84E
:102E7000DFE802F002524C5809EB0402032182F809
:102E8000A4121A8816F0080F14BFC823882343EA37
:102E900002434BF83530E3E5E00700F19780210667
:102EA00046D4A20708D5454B93F888200221D2B218
:102EB00083F8882083F88010E30603D53F4B102267
:102EC00083F8802004B0BDE8F14F8546704799F83B
:102ED000A0324BF83500013389F8A032C0E549F83B
:102EE0002400A300A4E509EB040393F8A432032B08
:102EF00000F2CC8201A252F823F000BF612A000048
:102F0000612A0000893000007D30000009EB0402D6
:102F1000052182F8A412B4E709EB0402022182F829
:102F2000A412AEE709EB0402042182F8A412A8E778
:102F3000224B80220D2183F8C01083F88020A20745
:102F4000BAD5B0E7204A2578617815705170A57818
:102F5000E1789570D1702579116815716579A4793A
:102F60009471862999F8DC42557108BF0F2299F8AF
:102F7000C81208BF89F8B92244F0020209EBC20264
:102F800084F00104002989F8DC424FF00004C2F803
:102F9000044281F0010114BFC824882489F8C812B2
:102FA000C2F8004231E600F041FC7CE50088FF1FDA
:102FB0004886FF1FDC8EFF1FDA8EFF1F00200740B0
:102FC00088004000C8004000E08EFF1FD24AD3496D
:102FD00082F8DC32022081F89400D14CFF200D25CC
:102FE00081F8C0509F2681F888000125C2F8103270
:102FF00081F88000C2F8183281F8983081F88C008E
:1030000002F54B7302F53B7081F8846081F89450AF
:10301000C2F80402C2F80C32C2F80042C2F80842F8
:1030200004B0BDE8F14F85467047240C012CA9F887
:10303000E0627FF69BAD99F8DC02BA4D40F00201E8
:10304000C90009EB01034FF40034C3F80452C8234C
:10305000D8E699F8DC0299F8B83289F8E03240F005
:103060000201C90009EB0103240CAE4DC3F8045260
:1030700014BF4FF480340024C823C3E609EB0402D4
:10308000012382F8A432EBE409EB0402002382F866
:10309000A432E5E44FF001033370A34BAB4206F1D9
:1030A00001067FF440AEA14CA14A237813700022A0
:1030B0001B0789F8A02200F1158163789D4A1E073D
:1030C00013704FF00002C9F83022C9F8382200F11D
:1030D000F480A37888F8003000221D07C9F8502238
:1030E000C9F8582200F1C880E3788AF8003000223D
:1030F0001C07C9F87022C9F8782200F1A88099F855
:10310000DC0299F8C82240F00201C900002409EB52
:103110000103A242C3F8044282F00102C9F89042BE
:10312000C9F8984206BF01228823C8236AE6347092
:10313000B3E7814B596800293FF476AE2D0CA0B25D
:1031400004E00C33596800293FF46EAE1A88AA4295
:10315000F7D15A888242F4D12D0A032D14BF1A895F
:103160000A7899F8DC02230C934228BF1346402BBF
:1031700080F0010240F0020440F21D8109EBC4041A
:10318000A3F140056D4EC4F80062402DC4F804124E
:1031900042F002024FF0000401F1400640F2648167
:1031A00009EBC202803B5E4FC2F8046201259CB26B
:1031B00089F8DC028031C2F8007289F8C852C9F877
:1031C000C412A9F8E84227E604F07F04042C3FF675
:1031D0002BAE2B0C7FF428AEA40004F1804404F540
:1031E000E42499F8DC0294F8C05040F00201C900D0
:1031F00005F0FD0584F8C05009EB01051C46C5F833
:103200000432C823FEE5D9F82C02083800F0DAF9B8
:1032100033E5D9F84C02083800F0D4F941E5D9F883
:103220004402083800F0CEF936E5D9F83C020838F7
:1032300000F0C8F92BE5D9F83402083800F0C2F9DB
:1032400020E5D9F82402083800F0BCF910E500F0B8
:103250009BF9002800F0E6800830C9F88402304865
:10326000C9F8800200F090F9002800F0D380334BB9
:103270000830C9E9A23042E700F086F9002800F0E2
:10328000ED800830C9F864022548C9F8600200F0F2
:103290007BF9002800F0DA80284B0830C9E99A3021
:1032A00022E7D9F88C02083800F08CF921E5D9F82A
:1032B0008402083800F086F916E500F065F9002868
:1032C00000F0BE800830C9F844021548C9F8400231
:1032D00000F05AF9002800F0AB80184B0830C9E91B
:1032E0009230F6E600F050F9002800F08D800830AA
:1032F000C9F824020A48C9F8200200F045F900285C
:103300007AD00E4B0830C9E98A30D6E6D9F86C027B
:10331000083800F057F9D8E40088FF1F0020074064
:1033200088004000E08AFF1F1088FF1F045F000034
:10333000C4200740C8200740085F0000C8004000C4
:10334000D9F86402083800F03DF9B9E4D9F89C02D4
:10335000083800F037F9D6E4D9F89402083800F0BC
:1033600031F9CBE4D9F87C02083800F02BF9B6E447
:10337000D9F87402083800F025F9ABE4D9F85C02FA
:10338000083800F01FF996E4D9F85402083800F024
:1033900019F98BE4012C3FF64EAE99F8DC02414E50
:1033A00040F00201C90009EB01051A462404C5F8E2
:1033B0000462C82326E54FEA034309EBC40443F043
:1033C000C8034FF00005C4E9803189F8DC2289F890
:1033D000C8527FF421AD42F0020209EBC20201F1B2
:1033E0004003C2F804328821012389F8DC02C2F8C4
:1033F000001289F8C8320FE599F8A032C9F82802FE
:10340000013389F8A03258E699F8A032013389F8DF
:10341000A03270E799F8A032C9F88802013389F820
:10342000A0326CE699F8A032013389F8A03217E790
:1034300099F8A032C9F84802013389F8A03248E669
:1034400099F8A032013389F8A0323FE799F8A03209
:10345000C9F86802013389F8A03245E699F8A0322C
:10346000013389F8A03210E74FEA054509EBC202A3
:1034700045F088054FF00107C2E9805689F8DC0263
:10348000194489F8C8723FF49AAEC5E416F0080FE3
:1034900009EB040214BF0323022382F8A432FFF7CE
:1034A000DFBA00BFE08AFF1F324B3349002270B4FD
:1034B00041F23405C3E98022C3E98222C3E98422B0
:1034C000C3E98622C3E98822C3E98A22C3E98C22A0
:1034D000C3E98E22C3E99022C3E99222C3E9942270
:1034E000C3E99622C3E99822C3E99A22C3E99C2240
:1034F000C3E99E22C3F880224859C3F8842240F4CD
:103500008020485141F204021C4C8B5841F2480083
:1035100043F4A0238B50052580220D50234684F8C8
:103520000C2193F80C211206FBD4154A1548C2F35E
:103530000725C2F30744120E83F89C50FF2183F83D
:10354000B040012583F8B42000244FF40076102207
:1035500083F8801083F88810197483F8945083F8E6
:10356000004183F8845080F84943866083F808213D
:1035700070BC70470088FF1F0070044000200740A7
:10358000008AFF1F00E100E072B60C480268B2FA40
:1035900082F30B2B0FDC4FF00041D94022EA0102ED
:1035A000026062B6064903EBC303DB00C8180022C1
:1035B000CA504260704762B6002070479C80FF1F6F
:1035C0006C8BFF1F0E4BC31AB3F5587F10D20D4AF8
:1035D000127872B972B60C4A0C49A2FB0323086830
:1035E0004FF000421B0922FA03F303430B6062B65B
:1035F0007047074A1278002AECD0FFF72BB900BFBA
:103600006C8BFF1FA08AFF1F398EE3389C80FF1F41
:10361000B88AFF1F38B50F4C206878B143880288FC
:10362000C11801339A420D7A02D94380284638BD29
:10363000FFF7C8FF00232360284638BD064B1B78E0
:103640002BB10320FFF7BCF820600028E6D14FF033
:10365000FF35EBE7CC8EFF1FB88AFF1F044B054AEE
:103660001B6890881BB11A885B88D31A184470476E
:10367000CC8EFF1F1088FF1F2DE9F84FDFF85891FF
:10368000012789F804708846002956D00446514E17
:10369000D9F808000D46002863D04388C3F14001E3
:1036A000A94228BF29465A1892B200F1080C4FF0DF
:1036B000000A6D1A428001F1FF3E9C4489F80CA07B
:1036C000A1B303F108020C330244034404F1040AD9
:1036D000524538BF9C426CD3BEF1070F69D921F027
:1036E000030BA344234653F804AB42F804AB5B45F9
:1036F000F9D121F003029142AEEB020E04EB02037A
:103700000CEB020A53D014F802B00CF802B0BEF170
:10371000000F08D05A788AF80120BEF1010F1CBFB3
:103720009B788AF80230214442880C463F2A0AD806
:10373000052389F80D30002DADD10023404689F8CE
:103740000430BDE8F88F4023038001460420FFF7D2
:10375000D9F800220523C9F8082089F80D30002D7A
:10376000EBD048F6014A05E0BAF1010A18D099F801
:103770000C30ABB93378042003F0FF021BB3FFF722
:1037800053F80728F0D889F80470FFF7FDFEC9F850
:103790000800002881D1BAF1010A89F80400E6D1B5
:1037A000012389F80C304FF0FF30BDE8F88F19463F
:1037B000BAE70CF1FF3C214414F8013B0CF8013F3F
:1037C0008C42F9D1B0E789F804204FF0FF30BDE812
:1037D000F88F00BFB88AFF1FCC8EFF1F114B1B78DC
:1037E0008BB170B5104CA5680126267165B1002615
:1037F0006B88667329462B800420FFF783F8A66048
:103800000023237170BD7047FFF7BEFE38B101463B
:1038100004206573FFF776F80023237170BD66738B
:10382000EEE700BFB88AFF1FCC8EFF1F38B50D4CE6
:1038300023794BB9A16841B103F0FF054B880B8098
:103840000420FFF75FF8A56038BDFFF79DFE28B1A3
:103850000146BDE838400420FFF754B801236373E4
:1038600038BD00BFCC8EFF1F4FF0FF0C1CEAD052BA
:103870001EBF1CEAD15392EA0C0F93EA0C0F6FD0D3
:103880001A4480EA010C400218BF5FEA41211ED0B1
:103890004FF0006343EA501043EA5111A0FB01319D
:1038A0000CF00040B1F5000F3EBF490041EAD37172
:1038B0005B0040EA010062F17F02FD2A1DD8B3F1EE
:1038C000004F40EBC25008BF20F00100704790F05D
:1038D000000F0CF0004C08BF49024CEA502040EAAF
:1038E00051207F3AC2BFD2F1FF0340EAC250704775
:1038F00040F400004FF00003013A5DDC12F1190FB3
:10390000DCBF00F000407047C2F10002410021FA24
:1039100002F1C2F1200200FA02FC5FEA310040F13C
:10392000000053EA4C0308BF20EADC70704792F0B5
:10393000000F00F0004C02BF400010F4000F013AED
:10394000F9D040EA0C0093F0000F01F0004C02BFE8
:10395000490011F4000F013BF9D041EA0C018FE757
:103960000CEAD15392EA0C0F18BF93EA0C0F0AD05D
:1039700030F0004C18BF31F0004CD8D180EA010083
:1039800000F00040704790F0000F17BF90F0004F1C
:10399000084691F0000F91F0004F14D092EA0C0FFE
:1039A00001D142020FD193EA0C0F03D14B0218BF91
:1039B000084608D180EA010000F0004040F0FE40D7
:1039C00040F40000704740F0FE4040F44000704773
:1039D00081F0004102E000BF83F0004330B54FEAC0
:1039E00041044FEA430594EA050F08BF90EA020F2D
:1039F0001FBF54EA000C55EA020C7FEA645C7FEAC0
:103A0000655C00F0E2804FEA5454D4EB5555B8BFE2
:103A10006D420CDD2C4480EA020281EA030382EA53
:103A2000000083EA010180EA020281EA0303362DE5
:103A300088BF30BD11F0004F4FEA01314FF4801CB8
:103A40004CEA113102D0404261EB410113F0004FCA
:103A50004FEA03334CEA133302D0524263EB430381
:103A600094EA050F00F0A780A4F10104D5F1200E1F
:103A70000DDB02FA0EFC22FA05F2801841F100017A
:103A800003FA0EF2801843FA05F359410EE0A5F14E
:103A900020050EF1200E012A03FA0EFC28BF4CF07F
:103AA000020C43FA05F3C01851EBE37101F0004535
:103AB00007D54FF0000EDCF1000C7EEB00006EEB42
:103AC0000101B1F5801F1BD3B1F5001F0CD34908CC
:103AD0005FEA30004FEA3C0C04F101044FEA445223
:103AE00012F5800F80F09A80BCF1004F08BF5FEAAA
:103AF000500C50F1000041EB045141EA050130BD8A
:103B00005FEA4C0C404141EB0101013C28BFB1F59B
:103B1000801FE9D291F0000F04BF01460020B1FAE6
:103B200081F308BF2033A3F10B03B3F120020CDAB9
:103B30000C3208DD02F1140CC2F10C0201FA0CF097
:103B400021FA02F10CE002F11402D8BFC2F1200CFC
:103B500001FA02F120FA0CFCDCBF41EA0C019040B2
:103B6000E41AA2BF01EB0451294330BD6FEA0404FB
:103B70001F3C1CDA0C340EDC04F11404C4F12002E6
:103B800020FA04F001FA02F340EA030021FA04F3F8
:103B900045EA030130BDC4F10C04C4F1200220FA4F
:103BA00002F001FA04F340EA0300294630BD21FA8D
:103BB00004F0294630BD94F0000F83F4801306BF53
:103BC00081F480110134013D4EE77FEA645C18BF47
:103BD0007FEA655C29D094EA050F08BF90EA020FDE
:103BE00005D054EA000C04BF1946104630BD91EAD6
:103BF000030F1EBF0021002030BD5FEA545C05D1D9
:103C00004000494128BF41F0004130BD14F5800417
:103C10003CBF01F5801130BD01F0004545F0FE418B
:103C200041F470014FF0000030BD7FEA645C1ABFC0
:103C3000194610467FEA655C1CBF0B46024650EAF7
:103C4000013406BF52EA033591EA030F41F4002123
:103C500030BD00BF90F0000F04BF0021704730B5A9
:103C60004FF4806404F132044FF000054FF000017E
:103C700050E700BF90F0000F04BF0021704730B53F
:103C80004FF4806404F1320410F0004548BF404214
:103C90004FF000013EE700BF42004FEAE2014FEA69
:103CA00031014FEA02701FBF12F07F4393F07F4F44
:103CB00081F06051704732F07F4208BF704793F047
:103CC0007F4F04BF41F40021704730B54FF460745A
:103CD00001F0004521F000411CE700BF50EA01025D
:103CE00008BF704730B54FF000050AE050EA010206
:103CF00008BF704730B511F0004502D5404261EB76
:103D000041014FF4806404F132045FEA915C3FF4B6
:103D1000D8AE4FF003025FEADC0C18BF03325FEA53
:103D2000DC0C18BF033202EBDC02C2F1200300FA04
:103D300003FC20FA02F001FA03FE40EA0E0021FA29
:103D400002F11444BDE600BF70B54FF0FF0C4CF417
:103D5000E06C1CEA11541DBF1CEA135594EA0C0FC9
:103D600095EA0C0F00F0DEF82C4481EA030621EA04
:103D70004C5123EA4C5350EA013518BF52EA03353F
:103D800041F4801143F4801338D0A0FB02CE4FF0F1
:103D90000005E1FB02E506F00042E0FB03E54FF021
:103DA0000006E1FB03569CF0000F18BF4EF0010E19
:103DB000A4F1FF04B6F5007F64F5407404D25FEA15
:103DC0004E0E6D4146EB060642EAC62141EA5551C8
:103DD0004FEAC52040EA5E504FEACE2EB4F1FD0C0A
:103DE00088BFBCF5E06F1ED8BEF1004F08BF5FEA88
:103DF000500E50F1000041EB045170BD06F000463A
:103E000046EA010140EA020081EA0301B4EB5C04E6
:103E1000C2BFD4EB0C0541EA045170BD41F48011DE
:103E20004FF0000E013C00F3AB8014F1360FDEBF03
:103E3000002001F0004170BDC4F10004203C35DADF
:103E40000C341BDC04F11404C4F1200500FA05F362
:103E500020FA04F001FA05F240EA020001F0004203
:103E600021F0004110EBD37021FA04F642EB060179
:103E70005EEA430E08BF20EAD37070BDC4F10C04A3
:103E8000C4F1200500FA04F320FA05F001FA04F267
:103E900040EA020001F0004110EBD37041F1000153
:103EA0005EEA430E08BF20EAD37070BDC4F120055E
:103EB00000FA05F24EEA020E20FA04F301FA05F2C6
:103EC00043EA020321FA04F001F0004121FA04F26E
:103ED00020EA020000EBD3705EEA430E08BF20EA3E
:103EE000D37070BD94F0000F0FD101F00046400078
:103EF00041EB010111F4801F08BF013CF7D041EAFA
:103F0000060195F0000F18BF704703F000465200FD
:103F100043EB030313F4801F08BF013DF7D043EACE
:103F20000603704794EA0C0F0CEA135518BF95EA84
:103F30000C0F0CD050EA410618BF52EA4306D1D10B
:103F400081EA030101F000414FF0000070BD50EA2A
:103F5000410606BF1046194652EA430619D094EAB4
:103F60000C0F02D150EA013613D195EA0C0F05D19E
:103F700052EA03361CBF104619460AD181EA0301F2
:103F800001F0004141F0FE4141F470014FF00000AA
:103F900070BD41F0FE4141F4780170BD70B54FF045
:103FA000FF0C4CF4E06C1CEA11541DBF1CEA1355C5
:103FB00094EA0C0F95EA0C0F00F0A7F8A4EB0504A7
:103FC00081EA030E52EA03354FEA013100F088809E
:103FD0004FEA03334FF0805545EA131343EA126367
:103FE0004FEA022245EA111545EA10654FEA00261C
:103FF0000EF000419D4208BF964244F1FD0404F5D5
:10400000407402D25B084FEA3202B61A65EB030530
:104010005B084FEA32024FF480104FF4002CB6EBED
:10402000020E75EB030E22BFB61A754640EA0C006D
:104030005B084FEA3202B6EB020E75EB030E22BFAD
:10404000B61A754640EA5C005B084FEA3202B6EBEE
:10405000020E75EB030E22BFB61A754640EA9C00AD
:104060005B084FEA3202B6EB020E75EB030E22BF7D
:10407000B61A754640EADC0055EA060E18D04FEA3B
:10408000051545EA16754FEA06164FEAC30343EADB
:1040900052734FEAC2025FEA1C1CC0D111F4801FA8
:1040A0000BD141EA00014FF000004FF0004CB6E7A1
:1040B00011F4801F04BF01430020B4F1FD0C88BF40
:1040C000BCF5E06F3FF6AFAEB5EB030C04BFB6EB4B
:1040D000020C5FEA500C50F1000041EB045170BD3E
:1040E0000EF0004E4EEA113114EB5C04C2BFD4EB6B
:1040F0000C0541EA045170BD41F480114FF0000EEF
:10410000013C90E645EA060E8DE60CEA135594EA6A
:104110000C0F08BF95EA0C0F3FF43BAF94EA0C0F6D
:104120000AD150EA01347FF434AF95EA0C0F7FF4E2
:1041300025AF104619462CE795EA0C0F06D152EA36
:1041400003353FF4FDAE1046194622E750EA41061A
:1041500018BF52EA43067FF4C5AE50EA41047FF42B
:104160000DAF52EA43057FF4EBAE12E74FEA41028E
:10417000B2F1E04324BFB3F5001CDCF1FE5C0DD9C5
:1041800001F0004C4FEAC0024CEA5070B2F1004F0F
:1041900040EB830008BF20F00100704711F0804F12
:1041A00021D113F13872BCBF01F00040704741F4D7
:1041B00080114FEA5252C2F11802C2F1200C10FADB
:1041C0000CF320FA02F018BF40F001004FEAC123BF
:1041D0004FEAD32303FA0CFC40EA0C0023FA02F363
:1041E0004FEA4303CCE77FEA625307D150EA013339
:1041F0001EBF4FF0FE4040F44000704701F0004009
:1042000040F0FE4040F40000704700BF80F00040E6
:1042100002E000BF81F0004142001FBF5FEA41039E
:1042200092EA030F7FEA226C7FEA236C6AD04FEA9E
:104230001262D2EB1363C1BFD218414048404140E3
:10424000B8BF5B42192B88BF704710F0004F40F495
:10425000000020F07F4018BF404211F0004F41F4B1
:10426000000121F07F4118BF494292EA030F3FD07D
:10427000A2F1010241FA03FC10EB0C00C3F1200390
:1042800001FA03F100F0004302D5494260EB40001F
:10429000B0F5000F13D3B0F1807F06D340084FEA8A
:1042A000310102F10102FE2A51D2B1F1004F40EB7F
:1042B000C25008BF20F0010040EA030070474900E7
:1042C00040EB0000013A28BFB0F5000FEDD2B0FA84
:1042D00080FCACF1080CB2EB0C0200FA0CF0AABFA7
:1042E00000EBC25052421843BCBFD0401843704745
:1042F00092F0000F81F4000106BF80F4000001324B
:10430000013BB5E74FEA41037FEA226C18BF7FEA21
:10431000236C21D092EA030F04D092F0000F08BF63
:104320000846704790EA010F1CBF0020704712F04A
:104330007F4F04D1400028BF40F00040704712F189
:1043400000723CBF00F50000704700F0004343F0EE
:10435000FE4040F4000070477FEA226216BF084624
:104360007FEA23630146420206BF5FEA412390EAE7
:10437000010F40F4800070474FF0000304E000BFDD
:1043800010F0004348BF40425FEA000C08BF70478E
:1043900043F0964301464FF000001CE050EA010252
:1043A00008BF70474FF000030AE000BF50EA010267
:1043B00008BF704711F0004302D5404261EB410154
:1043C0005FEA010C02BF84460146002043F0B64379
:1043D00008BFA3F18053A3F50003BCFA8CF2083A9E
:1043E000A3EBC25310DB01FA02FC634400FA02FCA7
:1043F000C2F12002BCF1004F20FA02F243EB0200AE
:1044000008BF20F00100704702F1200201FA02FC0F
:10441000C2F1200250EA4C0021FA02F243EB020002
:1044200008BF20EADC7070474FF0FF0C1CEAD05246
:104430001EBF1CEAD15392EA0C0F93EA0C0F6FD007
:104440001A4480EA010C400218BF5FEA41211ED0E5
:104450004FF0006343EA501043EA5111A0FB0131D1
:104460000CF00040B1F5000F3EBF490041EAD371A6
:104470005B0040EA010062F17F02FD2A1DD8B3F122
:10448000004F40EBC25008BF20F00100704790F091
:10449000000F0CF0004C08BF49024CEA502040EAE3
:1044A00051207F3AC2BFD2F1FF0340EAC2507047A9
:1044B00040F400004FF00003013A5DDC12F1190FE7
:1044C000DCBF00F000407047C2F10002410021FA59
:1044D00002F1C2F1200200FA02FC5FEA310040F171
:1044E000000053EA4C0308BF20EADC70704792F0EA
:1044F000000F00F0004C02BF400010F4000F013A22
:10450000F9D040EA0C0093F0000F01F0004C02BF1C
:10451000490011F4000F013BF9D041EA0C018FE78B
:104520000CEAD15392EA0C0F18BF93EA0C0F0AD091
:1045300030F0004C18BF31F0004CD8D180EA0100B7
:1045400000F00040704790F0000F17BF90F0004F50
:10455000084691F0000F91F0004F14D092EA0C0F32
:1045600001D142020FD193EA0C0F03D14B0218BFC5
:10457000084608D180EA010000F0004040F0FE400B
:1045800040F40000704740F0FE4040F440007047A7
:104590004FF0FF0C1CEAD0521EBF1CEAD15392EA26
:1045A0000C0F93EA0C0F69D0A2EB030280EA010C16
:1045B00049024FEA402037D04FF0805343EA1111AF
:1045C00043EA10130CF000408B4238BF5B0042F10D
:1045D0007D024FF4000C8B4224BF5B1A40EA0C00B2
:1045E000B3EB510F24BFA3EB510340EA5C00B3EBE4
:1045F000910F24BFA3EB910340EA9C00B3EBD10FD2
:1046000024BFA3EBD10340EADC001B0118BF5FEA23
:104610001C1CE0D1FD2A3FF650AF8B4240EBC2504C
:1046200008BF20F0010070470CF0004C4CEA50200D
:104630007F32C2BFD2F1FF0340EAC250704740F45C
:1046400000004FF00003013A37E792F0000F00F04E
:10465000004C02BF400010F4000F013AF9D040EACC
:104660000C0093F0000F01F0004C02BF490011F460
:10467000000F013BF9D041EA0C0195E70CEAD15358
:1046800092EA0C0F08D142027FF47DAF93EA0C0F3F
:104690007FF470AF084676E793EA0C0F04D14B0223
:1046A0003FF44CAF08466EE730F0004C18BF31F0D5
:1046B000004CCAD130F000427FF45CAF31F00043CF
:1046C0007FF43CAF5FE700BF4FF0FF3C06E000BF68
:1046D0004FF0010C02E000BF4FF0010C4DF804CD8B
:1046E0004FEA40024FEA41037FEA226C18BF7FEA9B
:1046F000236C11D001B052EA530C18BF90EA010F9D
:1047000058BFB2EB030088BFC81738BF6FEAE1702B
:1047100018BF40F0010070477FEA226C02D15FEAC7
:10472000402C05D17FEA236CE4D15FEA412CE1D033
:104730005DF8040B704700BF844608466146FFE7FA
:104740000FB5FFF7C9FF002848BF10F1000F0FBDDC
:104750004DF808EDFFF7F4FF0CBF012000205DF8D5
:1047600008FB00BF4DF808EDFFF7EAFF34BF01205A
:1047700000205DF808FB00BF4DF808EDFFF7E0FFF3
:1047800094BF012000205DF808FB00BF4DF808ED44
:10479000FFF7D2FF94BF012000205DF808FB00BFA7
:1047A0004DF808EDFFF7C8FF34BF012000205DF889
:1047B00008FB00BF4FEA40024FEA41037FEA226C48
:1047C00002D15FEA402C08D17FEA236C02D15FEA74
:1047D000412C02D14FF0000070474FF001007047AC
:1047E0004FEA4002B2F1FE4F0FD34FF09E03B3EBFE
:1047F00012620DD94FEA002343F0004310F0004F3E
:1048000023FA02F018BF404270474FF00000704793
:1048100012F1610F01D1420205D110F0004008BF32
:104820006FF0004070474FF00000704742000ED21A
:10483000B2F1FE4F0BD34FF09E03B3EB126209D4DB
:104840004FEA002343F0004323FA02F070474FF091
:104850000000704712F1610F01D1420202D14FF006
:10486000FF3070474FF00000704700BF00000000AD
:104870000000000000000000000000000000000038
:1048800090F800F06DE9024520F007016FF0000C90
:1048900010F0070491F820F040F049804FF0000438
:1048A0006FF00700D1E9002391F840F000F1080013
:1048B00082FA4CF2A4FA8CF283FA4CF3A2FA8CF34B
:1048C0004BBBD1E9022382FA4CF200F10800A4FAB2
:1048D0008CF283FA4CF3A2FA8CF3E3B9D1E9042306
:1048E00082FA4CF200F10800A4FA8CF283FA4CF33D
:1048F000A2FA8CF37BB9D1E9062301F1200182FAF7
:104900004CF200F10800A4FA8CF283FA4CF3A2FAFC
:104910008CF3002BC6D0002A04BF04301A4612BA0A
:10492000B2FA82F2FDE8024500EBD2007047D1E90D
:10493000002304F00305C4F100004FEAC50514F09C
:10494000040F91F840F00CFA05F562EA05021CBF6D
:1049500063EA050362464FF00004A9E72DE9F04F32
:10496000694E6A486A496B4B6B4C6C4DDFF8CC81E1
:10497000DFF8CC914FF480727261466946F02006F0
:104980004661866846F020068660CA60586940F035
:1049900008005861586840F0080058608A605869FB
:1049A00040F004005861986840F0040098600A6183
:1049B000586940F010005861986840F01000986005
:1049C000CA61586920F0800058614A605A6922F033
:1049D00002025A61A1B0FDF797FE4FF6FF71002069
:1049E000FDF7DAFE4FF6FF710120FDF7D5FE4FF619
:1049F000FF710520FDF7D0FE4FF6FF710620FDF791
:104A0000CBFEFDF705FEFEF74FFDFCF799FA444B90
:104A1000444919604FF07E520121002619719A60B5
:104A2000B3462768A7EB0B07474505D995F84030F3
:104A300013B1002385F840302368AA6842F2107150
:104A40009B1A8B420BD9FBF7FBFC0138032806D8D5
:104A5000DFE800F041493D023348FBF793FEFEF7E3
:104A6000FDFD002800F1FF3ADBDD00271EE01F28D6
:104A700015D97E2E13D810F8093003F00303022B4A
:104A800006F10103DBB220AA164408BF20381A44FD
:104A900008BFC0B206F8800C1E4602F8807C0AF1FE
:104AA000FF3ABAF1FF3FD4F800B0BAD0FEF7B2FD3A
:104AB00095F84030002BF2D1C0B20A28D7D1002E91
:104AC000EDD0314668461E46FCF74EFCE7E7174836
:104AD000FBF758FEC3E71648FBF754FE474504D9D9
:104AE000FCF7CAFABBE7FBF711FF1248FBF74AFED7
:104AF000012385F84030FCF74BFB0F48FBF742FEE3
:104B0000D4F800B0ABE700BF00B0044080F00F4025
:104B100000C00440C0F00F404886FF1F0086FF1F02
:104B20000080FF1F0000B442F0600000D860000069
:104B3000AC600000C86000008060000090D00300FE
:104B400019650000F8B5C0F3C7557F3D162D044622
:104B500020F0004717DC002D06461BDB164F2F41C7
:104B6000384221D01549FFF757FB0021FFF718FE07
:104B7000D0B1002C04DD4FF4000343FA05F52E44B8
:104B800026EA0700F8BDB7F1FF4F0DD30146FFF746
:104B900043FBF8BD0949FFF73FFB0021FFF700FE8B
:104BA00010B1002C05DB0FB92046F8BD4FF07E5048
:104BB000F8BD4FF00040F8BDFFFF7F00CAF2497119
:104BC00000B51C4A20F00043934283B018DDB3F1D6
:104BD000FF4F05DB0146FFF71DFB03B05DF804FB4B
:104BE000694600F043F900F00302012A0ED0022AC0
:104BF00018D092B101990098012200F033FFECE740
:104C0000002100F0F9FA03B05DF804FB0199009867
:104C100000F028FF00F10040DFE70199009800F064
:104C2000EBFADAE70199009800F0E6FA00F10040AB
:104C3000D3E700BFD80F493F00B51D4A20F000431D
:104C4000934283B019DDB3F1FF4F05DB0146FFF757
:104C5000E1FA03B05DF804FB694600F007F900F0E3
:104C60000300012810D0022819D090B101990098B2
:104C700000F0C2FA00F10040EBE70022002100F052
:104C8000F1FE03B05DF804FB0199009800F0B4FA5E
:104C9000DFE701990098012200F0E4FED9E70199CD
:104CA0000098012200F0DEFE00F10040D1E700BFD5
:104CB000D80F493F00F052B8F0B58BB0044600F071
:104CC00049FA244B93F900707B1C05460AD0214613
:104CD0002046FFF76FFD064620B900212046FFF76A
:104CE00041FD10B928460BB0F0BD1B4B08960122C0
:104CF0002046CDE90023FEF7CFFF0022CDE90401D5
:104D0000CDE902010023AFB110461946FFF746F97D
:104D1000022FCDE906010FD101F0CEF82123036067
:104D2000089B8BB9DDE90601FFF720FA0546284606
:104D30000BB0F0BDCDE90623684600F009FF00285E
:104D4000EAD0089B002BEDD001F0B6F8089B036079
:104D5000E8E700BFA080FF1F08610000F8B521F060
:104D60000045B5F1FF4F0A4603462CDC20F0004613
:104D7000B6F1FF4F074626DCB1F17E5F34D08C17C9
:104D800004F0020444EAD07416B33DB3B5F1FF4F0A
:104D900032D0B6F1FF4F21D0751BB5F1F45F4FEA69
:104DA000E55027DA002932DA3C3030DA0020012CD5
:104DB0003ED0022C34D02CB12449FFF72DFA2449DF
:104DC000FFF728FAF8BD19461046FFF725FAF8BD97
:104DD000022C07D0032CF5D11E48F8BD002F07DBAD
:104DE0001D48F8BD1A48F8BDBDE8F84000F0B2BE55
:104DF0001A48F8BD1848DAE7B6F1FF4F04F1FF345E
:104E000019D0022C1DD8164B53F82400F8BD1146BA
:104E10001846FFF7BDFB00F0B5FF00F09BFEC6E7AC
:104E20000A49FFF7F9F901460948FFF7F3F9F8BD18
:104E300000F10040F8BD022C05D80A4B53F82400BD
:104E4000F8BD0020F8BD0848F8BD00BF2EBDBB333B
:104E5000DB0F4940DB0F49C0DB0FC93FDB0FC9BF88
:104E60001C61000010610000DB0F493F2DE9F04F8D
:104E7000AB4A20F00044944289B00D466CDDA94A4B
:104E8000944207461CDC0028A74940F31E81FFF727
:104E9000C1F9A64B24F00F049C4206466BD0A449EE
:104EA000FFF7B8F9014628603046FFF7B3F9A0498B
:104EB000FFF7B0F901266860304609B0BDE8F08F11
:104EC0009C4A94426CDDB4F1FF4F4DDAE615863E04
:104ED000A4EBC6542046FFF783FCFFF751FA0146C6
:104EE00020460591FFF796F94FF08741FFF79CFAAE
:104EF0008046FFF775FCFFF743FA0446214640461B
:104F00000694FFF787F94FF08741FFF78DFA0021EC
:104F10000790FFF71DFC002800F0BA802046002112
:104F2000FFF716FC002814BF01230223824A0192D6
:104F300002213246009105A8294600F023FA002FED
:104F40000646B9DAD5E9002302F1004203F1004335
:104F500046422A606B60AFE7002628600022304698
:104F60004A6009B0BDE8F08F0146FFF753F900260B
:104F700068602860A0E77149FFF74CF97049044662
:104F8000FFF748F9014629602046FFF743F96C49CD
:104F9000FFF740F901266860304609B0BDE8F08FA0
:104FA00000F0F0FE67498046FFF73EFA4FF07C5173
:104FB000FFF732F9FFF714FC0646FFF7E1F95A490B
:104FC0008346FFF731FA01464046FFF723F9584977
:104FD00082465846FFF728FA1F2E814622DC5A4A9D
:104FE000711E24F0FF0352F8212093421AD0494643
:104FF0005046FFF70FF98046C5F8008041465046FD
:10500000FFF708F94946FFF705F9002F6860BFF67A
:1050100053AF08F1004800F10040C5F80080686017
:10502000764249E749465046FFF7F4F8C0F3C753C4
:10503000C3EBD453082B80464FEAE452DCDD3F49F2
:1050400003925846FFF7F0F9804601465046FFF7B5
:10505000E1F8044621465046FFF7DCF84146FFF7E9
:10506000D9F8374980465846FFF7DEF94146FFF741
:10507000D1F8014681462046FFF7CCF8039AC0F3E9
:10508000C753D21A192A804604DC2860A246B5E725
:1050900003234BE72D495846FFF7C6F901468046E2
:1050A0002046FFF7B7F8824651462046FFF7B2F890
:1050B0004146FFF7AFF8264904465846FFF7B4F9D2
:1050C0002146FFF7A7F8814691E7FFF7A5F8174BB0
:1050D00024F00F049C4206460ED01549FFF79CF8B9
:1050E000014628603046FFF795F81149FFF794F81C
:1050F0004FF0FF366860DFE61049FFF78DF8104982
:105100000446FFF789F8014629602046FFF782F838
:105110000B49FFF781F84FF0FF366860CCE600BF1F
:10512000D80F493FE3CB1640800FC93FD00FC93F8E
:1051300043443537800F4943A861000000443537A8
:1051400008A3852E84F9223F2861000000A3852E44
:1051500032318D2420F00042B2F1FF4FF8B5044601
:105160002ED262B3002803463CDB10F0FF4F4FEA1B
:10517000E0542CD0C3F31603E20743F40003A4F178
:105180007F0058BF5B00002647105B0031461924A2
:105190004FF080728D189D4202DC5B1BA9181644EB
:1051A000013C4FEA43034FEA5202F3D113B10136F7
:1051B00026F00106701000F17C5000EBC750F8BDDE
:1051C0000146FFF731F92146FFF726F8F8BD10F444
:1051D00000020ED15B001802114602F10102F9D55E
:1051E000641AC7E70146FFF715F80146FFF7D0F943
:1051F000F8BD4FF0FF31F3E72DE9F84320F000450B
:10520000B5F1485F064688464ADAFFF7E9FA002812
:1052100000F09F8031463046FFF706F94F490446BB
:10522000FFF702F94E49FEF7F7FF2146FFF7FCF8BA
:105230004C49FEF7EFFF2146FFF7F6F84A49FEF723
:10524000EBFF2146FFF7F0F84849FEF7E3FF214660
:10525000FFF7EAF84649FEF7DFFF2146FFF7E4F8DB
:1052600007464FF07C512046FFF7DEF839460346EB
:1052700020461C46FFF7D8F8414605463046FFF762
:10528000D3F801462846FEF7C5FF01462046FEF743
:10529000C1FF01464FF07E50FEF7BCFFBDE8F8832A
:1052A0000146FFF7C1F82D490446FFF7BDF82C4928
:1052B000FEF7B2FF2146FFF7B7F82A49FEF7AAFF2B
:1052C0002146FFF7B1F82849FEF7A6FF2146FFF770
:1052D000ABF82649FEF79EFF2146FFF7A5F82449C3
:1052E000FEF79AFF2146FFF79FF8224B9D420746A3
:1052F000B7DD214B9D4228DC05F17F4529464FF063
:105300007E50FEF787FF81464FF07C512046FFF725
:105310008BF82946FEF77EFF3946034620461C4699
:10532000FFF782F8414605463046FFF77DF8014613
:105330002846FEF76FFF01462046FEF76BFF014649
:105340004846FEF767FFBDE8F883DFF834900B4D61
:10535000DAE74FF07E50BDE8F88300BF4ED747AD87
:10536000F6740F317CF29334010DD037610BB63AED
:10537000ABAA2A3D9999993E0000483F0000903E13
:105380000000383F2DE9F04FDDB0C04C669D09911B
:10539000591E54F825400191111D039406930B9258
:1053A0000546C0F20083D31E44BF13460433DB100E
:1053B00005930133DB000A93DDE90A239B1A04936A
:1053C000059A019BD61A039A12EB030818D408F128
:1053D0000108DDF89C910024B04420AF08E059F8A2
:1053E0002600FEF7CDFF0136464547F8040B07D0EF
:1053F000002EF4DA01362046464547F8040BF7D173
:10540000039B002BA5F104030293C0F212831946FB
:10541000069B019E9A000092039A01EB830520A946
:1054200001EB83070DF5907802EB0309019B002B3C
:10543000B8BF002410DBDDF808A0BB4600245BF8F1
:10544000041D5AF8040FFEF7EFFF01462046FEF751
:10545000E3FEAA450446F2D101364E4548F8044B16
:1054600007F10407E2D1039A02980CA901EB820329
:1054700000990144083B0D460BA90793134601EB25
:10548000820208929A464FEA83085CAB03EB8A03D8
:10549000BAF1000F53F8509C21DD48AF07EB8A04A6
:1054A0000CAE4FF06E514846FEF7BEFFFFF798F97D
:1054B000FEF766FF4FF087418346FEF7B5FF0146D2
:1054C0004846FEF7A7FEFFF78BF954F8041D46F88F
:1054D000040B5846FEF7A0FEBC428146E1D1049E73
:1054E0004846314600F092FC4FF078510446FEF7F2
:1054F0009BFF00F04BFC4FF08241FEF795FF014609
:105500002046FEF787FE0446FFF76AF90746FEF7D6
:1055100037FF01462046FEF77DFE002E044640F38D
:1055200089800AF1FF310CAAC6F1080352F8212044
:1055300042FA03F000FA03F3D31AC6F107060CAAE5
:1055400043FA06F6002E42F8213007447CDC0021A5
:105550002046FFF7FDF8002800F0D380039B0AF1F6
:10556000FF34A34210DC0AF180430CAA013B0898E7
:1055700002EB8303002253F80419834242EA01023A
:10558000F9D1002A40F01681039B0CAA013B52F886
:105590002330002B40F00981079B012753F8042991
:1055A0000137002AFAD00AF101030AEB0702009240
:1055B0009846059A03EB0209069A02EB0A0620AA0E
:1055C00009F1804902EB8606679A09F1FF3902EB7F
:1055D000890948AA02EB830A59F8040FFEF7D0FEA6
:1055E000019B3060002B344606F1040619DBDDF820
:1055F00008B0043C002701E054F804095BF8041FDC
:10560000FEF712FF01463846FEF706FEAB45074699
:10561000F2D1009B4AF8047B08F101089845DBDDD4
:1056200030E7009B08F10108002798454AF8047B01
:10563000D2DD27E740F0A1800AF1FF330CAA52F82F
:1056400023603612002E82DDBAF1000F07F1010748
:1056500040F3AE810C9A002A40F08780BAF1010F26
:105660001ED00CAB012153F8042F002A00F08080DB
:105670004B1C0CA8C2F580729A4540F821200EDD23
:1056800050F82320804400EB830302E0EC64000028
:105690001A68C2F1FF0243F8042B4345F8D10122F6
:1056A000049B002B0EDD012B00F07281022B09D12F
:1056B0000AF1FF310CAB0CA853F8213003F03F0383
:1056C00040F82130022E7FF442AF21464FF07E5049
:1056D0000092FEF79FFD009A0446002A3FF437AF80
:1056E00004994FF07E5000F091FB01462046FEF7F2
:1056F00091FD044600212046FFF72AF800287FF498
:105700002DAFDDE90A322046991ACDE9016700F094
:105710007DFB4FF087410446FFF738F8002800F082
:1057200072814FF06E512046FEF77EFEFFF758F86B
:10573000FEF726FE4FF087410546FEF775FE01464F
:105740002046FEF767FDFFF74BF80CAA034642F828
:105750002A302846FFF744F8049B08330AF1010475
:1057600004930CAB43F824003AE00123002180E7C6
:10577000013151457FF477AF92E74FF07C51FFF74D
:1057800005F8064600283FF4E2AEBAF1000F07F133
:105790000107C8BF02263FF75DAF21464FF07E509C
:1057A000FEF738FD02260446D1E60AF101039846C9
:1057B0000093FEE60CAB049A53F82430083ACDE986
:1057C0000167049263B90AF18043023B0CA901EB23
:1057D000830353F80419013C083A0029F9D00492D4
:1057E00004994FF07E5000F011FB002C0746C0F2E8
:1057F0002481A30048A91A1D01EB030804930CABF4
:1058000005924FF06E5603EB020908F1040559F8B2
:10581000040DFEF7B5FD3946FEF706FE034645F8D2
:10582000043D38463146FEF7FFFD0CAB994507466F
:10583000EDD1DDF80CA00094A8F1040800274FF08A
:105840000009BAF1000FB8BF4D4615DB834C844800
:10585000C3464D46002603E0B7420DDB54F8040F63
:105860005BF8041FFEF7E0FD01462846FEF7D4FC76
:105870000136B2450546EFDA009A5CAB03EB8703CD
:10588000BA4243F8A05CA8F1040807F1010301D073
:105890001F46D6E7669A009C022A1ADC002A00F30B
:1058A000898010D1059B34AD2B4400201C4654F850
:1058B000041DFEF7B1FCA542F9D1019B0BB100F12B
:1058C0000040099B1860029B03F007005DB0BDE833
:1058D000F08F669B032BF6D1002C00F0BB80049A5E
:1058E0005CAB134434AD53F8A07CAE1856F8048C6E
:1058F00038464146FEF790FCB946074639464046D1
:10590000FEF788FC4946FEF787FC306046F8047DC8
:10591000B542EBD1012C40F39D80049A5CAB13445B
:10592000AF1853F8A06C3C460DF1D40854F8049C11
:1059300030464946FEF770FCB246064631464846B8
:10594000FEF768FC5146FEF767FC206044F8046DE2
:10595000A045EBD100200437083557F8041DFEF7A9
:105960005BFCBD42F9D1019B002B54D0DDE934230F
:1059700000F1004002F1004203F1004309994B603D
:10598000029B886003F007000A605DB0BDE8F08FFD
:105990000AF1FF310CAB0CA853F8213003F07F0360
:1059A00040F821308EE608230A930023059303E58F
:1059B000002275E634AE06EB8305002055F8041D81
:1059C000FEF72AFCAE42F9D1019B3BBB099B014685
:1059D00018603498FEF71EFC002C0CDD34AE012557
:1059E00056F8041F0135FEF717FCAC42F8DA019BAC
:1059F0000BB100F10040099B5860029B03F00700C7
:105A00005DB0BDE8F08F2046FEF7EAFE0CAB5446D1
:105A100043F82A00E4E6349A359BAFE7099A00F18F
:105A20000043014613603498FEF7F4FB002CD5DCEC
:105A3000DFE7069B9B00009315E5669B022B05DCC8
:105A4000002B09DC7FF43FAF002036E7669B032B79
:105A50007FF439AF002086E70020B5E7C06400007E
:105A60000000C93F2DE9F84320F00043B3F1485F3F
:105A700004460E46904603DAFEF7B2FE002858D0E0
:105A800021462046FEF7D0FC054601462046FEF79B
:105A9000CBFC294981462846FEF7C6FC2749FEF77C
:105AA000B9FB2946FEF7C0FC2549FEF7B5FB2946A0
:105AB000FEF7BAFC2349FEF7ADFB2946FEF7B4FC1E
:105AC0002149FEF7A9FB0746B8F1000F22D04FF09D
:105AD0007C513046FEF7A8FC394680464846FEF722
:105AE000A3FC01464046FEF795FB2946FEF79CFCC9
:105AF0003146FEF78FFB154905464846FEF794FCF4
:105B000001462846FEF788FB01462046FEF782FB49
:105B1000BDE8F88301462846FEF786FC0B49FEF7F0
:105B200079FB4946FEF780FC2146FEF775FBBDE890
:105B3000F8832046BDE8F883D3C92E2F342FD732FF
:105B40001BEF3836010D50398988083CABAA2A3E34
:105B5000002070472DE9F04120F00045B5F1A14F3C
:105B60000446074608DBB5F1FF4F72DC002840F31E
:105B70009F807048BDE8F0816F4B9D4279DCB5F1A4
:105B8000445F6BDB4FF0FF3821462046FEF74CFCAC
:105B900001460646FEF748FC68490546FEF744FC08
:105BA0006749FEF739FB2946FEF73EFC6549FEF7DB
:105BB00033FB2946FEF738FC6349FEF72DFB2946E7
:105BC000FEF732FC6149FEF727FB2946FEF72CFC65
:105BD0005F49FEF721FB3146FEF726FC5D4906468C
:105BE0002846FEF721FC5C49FEF714FB2946FEF728
:105BF0001BFC5A49FEF70EFB2946FEF715FC5849D7
:105C0000FEF708FB2946FEF70FFC5649FEF702FB9C
:105C10002946FEF709FCB8F1FF3F014630464AD05D
:105C2000FEF7FAFA2146FEF7FFFB4F4B4F4D53F8B4
:105C30002810FEF7EFFA2146FEF7ECFA014655F878
:105C40002800FEF7E7FA002F94DA00F10040BDE8E3
:105C5000F0810146FEF7E0FABDE8F0814449FEF725
:105C6000DBFA4FF07E51FEF79BFD00288AD02046DC
:105C700080E700F087F83F4B9D42044626DCA3F501
:105C8000D0039D4244DC0146FEF7C6FA4FF07E5138
:105C9000FEF7C0FA4FF0804105462046FEF7BCFAF9
:105CA00001462846FEF774FC4FF0000804466BE7F7
:105CB0003148BDE8F081FEF7AFFA2146FEF7B4FBAC
:105CC00001462046FEF7A6FABDE8F0812B4B9D4227
:105CD00016DC4FF07F51FEF79DFA4FF07F510346DF
:105CE00020461C46FEF7A0FB4FF07E51FEF794FACB
:105CF00001462046FEF74CFC4FF00208044643E7FD
:105D000001461F48FEF744FC4FF0030804463BE7FA
:105D10004FF07E51FEF77EFA4FF07E510546204649
:105D2000FEF77AFA01462846FEF732FC4FF00108EA
:105D3000044629E7DB0FC93FFFFFDF3ED769853CFB
:105D400059DA4B3D356B883D6E2EBA3D2549123EE2
