:100000000000002079200000AD1D0000AD1D0000A3
:10001000AD1D0000AD1D0000AD1D0000AD1D0000B8
:10002000AD1D0000AD1D0000AD1D0000AD1D0000A8
:10003000AD1D0000AD1D0000AD1D0000BD1D000088
:10004000AD1D0000AD1D0000AD1D0000AD1D000088
:10005000AD1D0000AD1D0000AD1D0000AD1D000078
:10006000AD1D0000AD1D0000AD1D0000AD1D000068
:10007000AD1D0000AD1D0000AD1D0000AD1D000058
:10008000AD1D0000AD1D0000AD1D0000AD1D000048
:10009000AD1D0000AD1D0000AD1D0000AD1D000038
:1000A000AD1D0000AD1D0000AD1D0000AD1D000028
:1000B000AD1D0000AD1D0000AD1D0000AD1D000018
:1000C000AD1D0000AD1D0000AD1D0000AD1D000008
:1000D000AD1D0000AD1D0000AD1D0000AD1D0000F8
:1000E000AD1D0000AD1D0000AD1D0000AD1D0000E8
:1000F000AD1D0000AD1D0000AD1D0000AD1D0000D8
:10010000AD1D0000AD1D0000AD1D0000AD1D0000C7
:10011000AD1D0000AD1D0000AD1D0000AD1D0000B7
:10012000AD1D0000AD1D0000AD1D0000AD1D0000A7
:10013000AD1D0000AD1D0000AD1D00001922000026
:10014000AD1D0000AD1D0000AD1D0000AD1D000087
:10015000AD1D0000AD1D0000AD1D0000AD1D000077
:10016000AD1D000051270000AD1D0000AD1D0000B9
:10017000AD1D0000AD1D0000AD1D0000AD1D000057
:10018000AD1D0000AD1D0000AD1D0000AD1D000047
:10019000AD1D0000AD1D0000AD1D0000AD1D000037
:1001A000A92100003D210000AD1D0000AD1D000093
:0C01B000AD1D0000AD1D0000AD1D0000E5
:10040000FFFFFFFFFFFFFFFFFFFFFFFF7EFBFFFF81
:100440002DE9F04F524CDFF854C1A368BCF80A50B4
:10045000504A9CF80410BCF806B09CF808004E4EB8
:10046000DFF83CE185B04FF0000843F02003019530
:10047000A360CDE902881568DCF80040C246C14699
:1004800042F2107713685B1BB3422CD813681B1B16
:10049000BB42F7D9DEF81030012903F002035CD02B
:1004A00011F0FF0F3DD0022904D1002B1CBF4FF0EB
:1004B000010A0021DEF81030012803F080033ED04D
:1004C00010F0FF0F55D0022806D1002B029B18BF59
:1004D0000123029318BF0020146813685B1BB3420A
:1004E0004FF00109D2D9B9F1000F01D0CCF800408A
:1004F000BAF1000F01D08CF80410039B0BB1ACF8DB
:1005000006B0029B0BB18CF80800B8F1000F02D0C6
:10051000019BACF80A3000238CF80C3005B0BDE824
:10052000F08F13B94FF0010A514601230393DEF80F
:10053000103001284FF0000B03F08003C0D123BB23
:10054000019B01331FFA83F8019BCDF80480642BD3
:100550008046C1D90290022094E79BB90BF10103B8
:100560009BB2BBF1640F03919B46A3D98A4602213B
:1005700088E713B901230293184600234FF00108BE
:100580000193A9E78A4600217CE70290002079E7E1
:1005900080F00F404886FF1FDF9304000086FF1F96
:1005A000C0F00F4038B504460D4603F0EBFA00B931
:1005B0002C46204638BD00BF10B5044603F060FB52
:1005C0000146204602F01CFFBDE8104002F0CABF01
:1005D000034A116813685B1A8342FBD3704700BF5C
:1005E0004886FF1F2DE9F04FDFF844E14F4ABEF87F
:1005F0000A301668DEF800509EF80410BEF806A017
:100600009EF80840DFF82CC14FF0000885B0CDE916
:10061000028801934FF47A7303FB00F0C346C1468E
:1006200042F2107713689B1B83422CD213685B1B2A
:10063000BB42F7D9DCF81030012903F0020359D08E
:1006400011F0FF0F3AD0022904D1002B1CBF4FF04C
:10065000010B0021DCF81030012C03F080033BD0AB
:1006600014F0FF0F52D0022C06D1002B029B18BFB2
:100670000123029318BF0024156813689B1B834253
:100680004FF00109D2D3B9F1000F01D0CEF80050DC
:10069000BBF1000F01D08EF80410039B0BB1AEF834
:1006A00006A0029B0BB18EF80840B8F1000F02D0F3
:1006B000019BAEF80A3005B0BDE8F08F13B94FF0DA
:1006C000010B594601230393DCF81030012C4FF045
:1006D000000A03F08003C3D123BB019B01331FFA3F
:1006E00083F8019BCDF80480642BA046C4D9029402
:1006F000022497E79BB90AF101039BB2BAF1640F98
:1007000003919A46A6D98B4602218BE713B90123A0
:1007100002931C4600234FF001080193ACE78B467F
:1007200000217FE7029400247CE700BF4886FF1F7A
:100730000086FF1FC0F00F40044B054919604FF0C1
:100740007E52012119719A60704700BF0080FF1F1F
:100750000000B4422DE9804883B001F0FDFDDFF8D0
:1007600018814248DFF814B1FFF726FF4049D8F856
:10077000003001930020D1F800900A79CF880B7ADD
:100780004E8900908446054682468646019CD8F8EC
:100790000000001B374CA04248D8D8F8000042F2B5
:1007A0001074A0EB0900A042F0D9DBF81000012A78
:1007B00000F0020030D012F0FF0F4AD0022A03D11D
:1007C00000281CBF01250022DBF81000012B00F0DF
:1007D000800017D013F0FF0F0DD0022B06D1002898
:1007E000009818BF0120009018BF0023D8F800908F
:1007F0004FF0010ACAE708B9012300934FF0010E38
:100800000026F3E778BB701C80B2642E9E46064635
:10081000ECD900930223B9E710BB781C80B2642F97
:1008200094460746D0D915460222AFE7009C704691
:10083000BAF1000F01D0C1F8009005B10A71BCF106
:10084000000F00D0CF8004B10B7200B14E8100BE0A
:10085000FEE708B901252A464FF0010C0027B3E74F
:100860001546002292E7009300238FE7F052000024
:100870000086FF1F1FA107004886FF1FC0F00F4022
:100880002DE9F04F524E347B87B0002C62D0514D91
:10089000F188A8687789504B039140F020000497B5
:1008A0003279317AA8604FF0000ADFF830C1DFF802
:1008B00030911F683568CDF808A0CDF814A0D34654
:1008C000CDF804A042F210781868C01B60452CD8FF
:1008D0001868401B4045F7D9D9F81000012A00F0EC
:1008E000020055D04FFA82FEBEF1000F35D0022A29
:1008F00003D100281CBFA3460022D9F8100001290B
:1009000000F0800036D04DB2002D4FD0022906D124
:100910000028029818BF2046029018BF00211D68C9
:1009200001941868C01B6045D2D9019B03B13560A2
:10093000BBF1000F00D03271059B0BB1039BF3801C
:10094000029B03B13172BAF1000F01D0049B738195
:100950000023337307B0BDE8F08F0028D9F81000EA
:10096000CDF80CE004BFA34601220129059400F054
:100970008000C8D148BB049801301FFA80FE04985B
:10098000CDF810E06428A246C9D9029402219BE761
:10099000C0B90398059401301FFA80FE0398CDF882
:1009A0000CE06428A9D9A34602228DE7002802980A
:1009B000049508BF2046029008BF0121A2461D6889
:1009C0000194AEE7A34600227EE7029400217BE774
:1009D0000086FF1F80F00F404886FF1FDF93040052
:1009E000C0F00F402DE9F04F4D4E357B85B0002D06
:1009F00059D14C4C778963684B4A019743F02003E7
:100A00003179B6F806A0307A6360DFF820C1DFF8EC
:100A10002081176834680395AB460295A94642F2D7
:100A2000107E1368DB1B634529D813681B1B7345B5
:100A3000F7D9D8F81030012903F0020351D011F092
:100A4000FF0F33D0022903D1002B1CBF0125002149
:100A5000D8F81030012803F0800334D010F0FF0FD5
:100A60004BD0022804D1002B1CBF4FF0010B0020FB
:100A700014684FF001091368DB1B6345D5D9B9F140
:100A8000000F00D0346005B13171029B0BB1A6F8A4
:100A900006A0BBF1000F00D03072039B0BB1019B8D
:100AA00073810123337305B0BDE8F08F0BB90125C5
:100AB000294601230293D8F8103001284FF0000A8C
:100AC00003F08003CAD13BBB019B01339BB203936C
:100AD000019B642B039B01930390C9D98346022099
:100AE0009FE7B3B90AF101039BB2BAF1640F029117
:100AF0009A46ADD90D46022193E713B94FF0010B89
:100B00005846012303930023019314684FF0010911
:100B1000B1E70D46002184E78346002081E700BF4E
:100B20000086FF1F80F00F404886FF1FDF93040000
:100B3000C0F00F40F8B52B4C6169206902F05CFDF4
:100B400020F000430646216AE069A36102F054FDEB
:100B500020F00043636205463146304602F056FEFF
:100B600029460646284602F051FE0146304602F06C
:100B700045FD03F0ABFA1C49A062206A02F046FE74
:100B800003F020F818490746E06902F03FFE03F041
:100B900019F816490546206902F038FE03F012F8EC
:100BA00012490646606902F031FE03F00BF8301A74
:100BB000EB1B002883EAE375CCBF01214FF0FF3126
:100BC0000B4A002BA5EBE37580EAE076CCBF01234E
:100BD0004FF0FF33A6EBE07611735373E6622563A3
:100BE000F8BD00BF0086FF1F14E0D645D04933454D
:100BF0000080FF1FF8B5334C0D46E5616169206147
:100C000002F0FAFC20F000430646216AA361284660
:100C100002F0F2FC20F000436362054631463046A4
:100C200002F0F4FD29460646284602F0EFFD014693
:100C3000304602F0E3FC03F049FA2349A062206A3F
:100C400002F0E4FD02F0BEFF1F490746E06902F032
:100C5000DDFD02F0B7FF1D490546206902F0D6FD13
:100C600002F0B0FF19490646606902F0CFFD02F0BC
:100C7000A9FFEB1B301A002883EAE37280EAE071D7
:100C8000A2EBE372A1EBE071CCBF01254FF0FF3581
:100C90000F48E162002BCCBF01234FF0FF3391429C
:100CA00022630573437306DD4A100023C4E90E1264
:100CB00084F83430F8BD51100123C4E90E2184F8C2
:100CC0003430F8BD0086FF1F14E0D645D0493345C7
:100CD0000080FF1FF8B52D4C03460D462069636167
:100CE0001946256202F088FC20F00043064629469A
:100CF000E069A36102F080FC20F0004363620546D6
:100D00003146304602F082FD29460646284602F06A
:100D10007DFD0146304602F071FC03F0D7F91C4915
:100D2000A062206A02F072FD02F04CFF18490746EB
:100D3000E06902F06BFD02F045FF164905462069A7
:100D400002F064FD02F03EFF12490646606902F0BF
:100D50005DFD02F037FF301AEB1B002883EAE375D4
:100D6000CCBF01214FF0FF310B4A002BA5EBE375FF
:100D700080EAE076CCBF01234FF0FF33A6EBE076AC
:100D800011735373E6622563F8BD00BF0086FF1F31
:100D900014E0D645D04933450080FF1F2DE9F84FB8
:100DA000354F36490446B86A02F030FDD7E90B9852
:100DB000214602F0DFFDC84504464046B8BF48461C
:100DC00002F0D0FC0146204602F0D4FD02F020FFE4
:100DD0002B4B97F84010BA6B97F834C0FD6B93F922
:100DE0000CA093F90DB0002938D1561E002A40D02E
:100DF000244C254A45F6566EBCF1000F1BD06368A3
:100E00004D445B44A845636004DC23685344A5EB70
:100E1000080523602368002B1BDB2368734518DC5F
:100E2000116813685B1A9842FBD8731EF6B11E4610
:100E3000BCF1000FE3D1236845445344A945236026
:100E4000E8DC63685B4463602368002BA5EB09055D
:100E5000E3DAC7E90E65022387F840303A69FB6997
:100E60007A613B62BDE8F84FFFF764BEFD63BB6388
:100E7000F4E74FF0FF33FAE70086FF1FC0E1644C50
:100E80000080FF1F5C86FF1F4886FF1F2A492B4BEF
:100E90000A6810B41C6842F21070121B82421CD9FE
:100EA000274A18791269012802F0020218D018B3F3
:100EB000022800D1EAB922481A7A0069012A00F012
:100EC000800028D0F2B1022A02D108B100221A72A1
:100ED0000A681A60002010BC7047002010BC7047E0
:100EE0001ABBDA88501C642AD880E4D90220187111
:100EF000F4E700221A71DEE70AB901221A71002212
:100F0000DA80D8E708B901221A7200225A810A68E9
:100F10001A600020DFE758B95A89501C642A5881AA
:100F2000D6D902221A720420D8E700221A71D5E716
:100F300000221A720320D1E74886FF1F0086FF1F98
:100F4000C0F00F402DE9F04F6A4D2B7B85B0002B90
:100F500040F0B480684C00232B61EB61FFF7EAFDA1
:100F6000D5E90B239A4240F3A08002EBD2735B10C9
:100F7000C5E90E23002185F834104FF000085F48C2
:100F80005F4EFFF70BFFCDE902886B892768286861
:100F90002A79B5F806B0297ADFF878E10193C246DC
:100FA000C14642F2107C2368DB1BB3422CD8236875
:100FB0001B1A6345F7D9DEF81030012A03F002034B
:100FC00040D012F0FF0F4AD0022A04D1002B1CBFE0
:100FD0004FF0010A0022DEF81030012903F08003EF
:100FE0004BD011F0FF0F57D0022906D1002B029BE6
:100FF00018BF0123029318BF002120682368DB1B60
:10100000B3424FF00109D2D9B9F1000F00D02860E6
:10101000BAF1000F00D02A71039B0BB1A5F806B0FE
:10102000029B03B12972B8F1000F01D0019B6B81C3
:101030003449354A00230B604B601360536005B0A0
:10104000BDE8F08F002B4ED10BF101039BB2BBF139
:10105000640F03929B46BED992460222A3E713B9BE
:101060004FF0010A524601230393DEF810300129A4
:101070004FF0000B03F08003B3D1002B36D1019B5E
:1010800001331FFA83F8019BCDF80480642B884656
:10109000B3D90291022186E713B9012302931946BD
:1010A00000234FF001080193A7E703EBD37252101E
:1010B0000121C5E90E3285F834105EE7134A0E4C63
:1010C0009368134E43F02003936027682368DB1B6B
:1010D000B34205D8FFF7DAFE2368DB1BB342F9D928
:1010E00000232B7337E7924600225CE70291002130
:1010F00059E700BF0086FF1F4886FF1F0000C84257
:101100009F8601005486FF1F5C86FF1F80F00F4002
:10111000DF930400C0F00F402DE9F047384F3B7BD0
:10112000002B57D1374C384E01F016F93748D6F816
:1011300000A0256800F0BEFFD4F80090236842F2BA
:101140000F78A3EB0903434506D8FFF79FFE2368FA
:10115000A3EB09034345F8D923685B1BB3F57A7FFA
:10116000FAD93368534508D0D6F800A0256823681B
:101170005B1BB3F57A7FEFD9F3E7002000F09AFF0D
:10118000D4F800802368224DA3EB0803AB4206D8B5
:10119000FFF77CFE2368A3EB0803AB42F8D91D4A96
:1011A0001B4D002300213360796173603962136045
:1011B0005360FFF7BFFC266823689B1BAB4205D832
:1011C000FFF764FE23689B1BAB42F9D9BDE8F047EB
:1011D00001F0B0B8104A0B4C9368104D43F0200357
:1011E0009360266823689B1BAB4205D8FFF74EFE31
:1011F00023689B1BAB42F9D900233B7393E700BFE5
:101200000086FF1F4886FF1F5486FF1FC063FFFF35
:101210009F8601005C86FF1F80F00F40DF93040073
:1012200070B53C4CFFF778FF94F84150002D3CD04E
:101230000D210025384802F0E3F802F093F96561CA
:101240002562FFF777FC354BE3612561FFF772FC00
:10125000D4E90B239A421FDC03EBD3725210C4E98A
:101260000E32012184F834102D48FFF797FD00233A
:1012700063612362FFF75EFC2A4A9368002143F012
:101280001003936084F841100821274802F0B8F851
:10129000BDE8704002F066B902EBD2735B1000212A
:1012A000C4E90E2384F83410DEE70B2100261F4822
:1012B00002F0A6F802F056F966612662FFF73AFCE2
:1012C0001B4BE3612661FFF735FCD4E90B239A42FF
:1012D00017DD02EBD2735B10C4E90E2384F834509F
:1012E0001448FFF75BFD002363612362FFF722FCD4
:1012F0000C4A5368012143F01003536084F84110F5
:10130000C2E703EBD37252100121C4E90E3284F814
:101310003410E5E70086FF1F08530000000060C19D
:1013200000007A43C0F00F4024530000185300001F
:101330000000E03F000048422DE9F04F9F4B8BB08A
:101340005A690592B1F100091A6A5B6C069203931F
:1013500040F30B82002309934FF07E5208934FF025
:10136000FF33CB460792049300248146631E4B440F
:1013700013F8011FA1F12802322A00F2B180DFE840
:1013800002F08DAFAFAFAFAFAFAFAFAFAFAFAFAFFB
:10139000AFAFAFAFAFA4AFAFAFAFAFAFAFAFAFAF68
:1013A0001A1AAF1A1AAFAF1AAFAF1AAFAFAFAFAFCB
:1013B000AFAF1A1A1A00631C9B45029140F3858057
:1013C00009EB0403C9F1010A0AEB030413F8011F36
:1013D0002029F9D00929F7D02D2900F06B812B297C
:1013E00000F06F81A34540F3708100230193013C1D
:1013F00009EB040500234FF07E510AEB0506CDF8FA
:1014000000901F46D14608469A460EE02E2A25D166
:1014100009EB05063446BAF1000F02D0684902F024
:10142000F5F95E454FF0010A18DA15F8012FA2F11F
:1014300030085FFA88FCBCF1090F3446E6D809EBA6
:1014400005063446BAF1000F02D05D4902F0DEF91C
:1014500007EB87075E4508EB4707E6DBDDE900930E
:10146000014603B17F42029B463B142B67D8DFE85D
:1014700013F0AB008A0066007A006A00660066001E
:10148000F800660066005E006600660066006600A2
:101490006600660066004D003C00B500631C9B457D
:1014A00013DD09F1FF3009EB040358445A789C1C02
:1014B000292AA4EB090403F1010340D09842F5D195
:1014C00019F80430292B00F05B84049B042B00F2F4
:1014D0004C81DFE813F02D0139036D026D02210309
:1014E0000134A3453FF744AFEFE73846009102F0DF
:1014F00039F9009902F03EFA324DA96802F03AFA41
:101500002B79002B00F0D081069018E0384600912E
:1015100002F028F9009902F02DFA2A4DA96802F08C
:1015200029FA2B79002B00F0B981059007E03846A5
:10153000009102F017F9009902F01CFA0790A345F8
:101540003FF714AFC1E73846009102F00BF900995C
:1015500002F010FA1B4DA96802F00CFAA34508909E
:101560003FF704AFB1E73846009102F0FBF800996D
:1015700002F000FA134DA96802F0FCF9A3450990A6
:101580003FF7F4AEA1E7152F00F0668340F36281C8
:101590005A2F00F05A8340F33B815B2F00F0E88123
:1015A0005C2F40F04B83054B00225A611A62FFF713
:1015B000C1FAA3453FF7DAAE87E700BF0086FF1FF9
:1015C000000020410080FF1F3846009102F0CAF859
:1015D000009902F0CFF9B74D2860B0E73846009186
:1015E00002F0C0F8009902F0C5F9B24DA96802F006
:1015F000C1F92B79002B40F04F810146039801F08F
:10160000FDFF0390AC4B00211E7B02F09DFA0028E9
:1016100040F06E81BEB1A94AA94E9368A94F43F02C
:1016200020039360D6F800803368A3EB0803BB4225
:1016300006D8FFF72BFC3368A3EB0803BB42F8D9AD
:101640009D4A00231373A3453FF790AE049B042BE0
:1016500000F28B80DFE813F071007C02AC01AC017A
:101660006002082F00F08B8140F39380282F00F058
:10167000D28212DC1E2F00F09380272F40F0AC8224
:101680000F21914801F0BCFE01F06CFF8A4A002353
:1016900082F84130FFF7C4FD51E7702F00F07583E9
:1016A000732F40F099828A21884801F0A9FE01F049
:1016B00059FF44E70134A34540F3A9820123019374
:1016C00095E60134A3453FF790AE029B463B142BB1
:1016D0003FF6FBAE01A252F823F000BF7D1D0000D3
:1016E000311C0000CB140000671D00006B1D0000C2
:1016F000CB140000CB140000D91B0000CB14000059
:10170000CB140000711D0000CB140000CB140000AE
:10171000CB140000CB140000CB140000CB1400004D
:10172000CB1400005B1D0000611D0000791D00004E
:10173000614B1B7B0BB1FEF783FE5F4B059A1A6171
:101740001C46069ADA61FFF7F5F9E26A236B9A42C2
:1017500040F3898202EBD2735B10C4E90E230021AF
:1017600084F834105A48FFF719FB534B93F8403074
:10177000012B00F0F480002B00F0E880022B7AD0DF
:101780001E21544801F03CFE0BB0BDE8F04F01F0C3
:10179000E9BE042F0ADC032F0EDA022F40F01C8270
:1017A000FFF7D0FBA3453FF7E1AD8EE6052F00F034
:1017B000E680072F40F010823F4B1B7BA3B93F4AC6
:1017C0003F4E53683F4D43F0200353603768336802
:1017D000DB1BAB4205D8FFF759FB3368DB1BAB4281
:1017E000F9D9354A01231373A3453FF7BFAD049BD5
:1017F000042BBAD801A252F823F000BF371700001B
:10180000871D0000B1190000B1190000191B00006C
:101810001C2F40F0138200210846294E2E4DFFF761
:10182000E9F92E48FFF7BAFA37683368DB1BAB4299
:1018300005D8FFF72BFB3368DB1BAB42F9D92848EF
:1018400028490023A345036043600B604B603FF7CA
:101850008DAD3AE6002FC0F2F181042F40F3E9810B
:10186000142F40F0EB81134D4FF07E53A345AB6036
:101870003FF77CAD29E61C211B4801F0C1FD01F0BA
:1018800071FE0B21194801F0BBFD01F06BFE0BB09E
:10189000BDE8F04FFFF756BB0390B3E6014605984D
:1018A00001F0ACFE05904AE60146069801F0A6FE5E
:1018B000069044E60080FF1F0086FF1F80F00F4067
:1018C0004886FF1FDF9304003C5300006053000074
:1018D00000007A432C5400009F8601000000C8429B
:1018E0005486FF1F5C86FF1F005400002054000038
:1018F000BEB9AE4AAE4E5368AE4F43F020035360BC
:10190000D6F800803368A3EB0803BB4206D8FFF784
:10191000BDFA3368A3EB0803BB42F8D9A64A0123FA
:101920001373A3453FF722AD049B042B3FF61DAF75
:1019300001A252F823F000BF371700007B1B000004
:10194000B1190000B1190000191B000004219B48C7
:1019500001F056FD0BB0BDE8F04F01F003BE0B21C6
:10196000974801F04DFD0BB0BDE8F04F01F0FABD16
:10197000944D0023A3452B713FF7F8ACA5E58E4BA2
:101980001B7B002B40F0E581A3453FF7EFAC049BA8
:10199000042B3FF6EAAE01A252F823F03117000003
:1019A0008F1D0000B1190000B1190000191B0000C3
:1019B000814C09996569284601F020FE246A08993E
:1019C0000746204601F01AFE39468046284601F0B7
:1019D00013FE41460546204601F00EFE39460446F8
:1019E000059801F009FE41468146069801F004FE83
:1019F000049B022B824600F04A812946204602F0D1
:101A000063FB49460646504602F05EFB8146494666
:101A1000304602F0ADF820B148466B4901F0EEFDCA
:101A200081464846314601F0E7FD29468146284671
:101A300001F0ECFE21460546204601F0E7FE014696
:101A4000284601F0DBFD02F041FB604904464846B0
:101A500001F0DCFE21460546484601F0D7FE5C4910
:101A600001F088FF82460146284602F08BF800B953
:101A70005546284602F070FA02F0A4F8031E0093BF
:101A80007FF773AE01F06EFE049B0190032B009B69
:101A900000F007814B4D03F1FF3A504601F062FE22
:101AA000019901F067FF494601F0B0FE314601F0AF
:101AB000A5FD834602F08EFA0090584602F0C6FA61
:101AC00000998346204601F0A1FE394601F096FDBB
:101AD000394B59461861204601F098FE414601F005
:101AE0008DFD354BD861FFF725F83349D1E90B322D
:101AF0009A4278DB02EBD2734FF001005B1081F861
:101B000034000AF1FF3A28688A63CB63FFF746F98D
:101B1000BAF1FF3FC1D128E62E490798244C01F0C5
:101B200075FE02F04FF8266823684FF47A7505FBBE
:101B300000F59B1B9D427FF618AEFFF7A7F92368BF
:101B40009B1B9D42F9D810E61B4B1E4D1B7BA3B976
:101B5000164A174C5368174E43F02003536027680A
:101B60002368DB1BB34205D8FFF790F92368DB1B22
:101B7000B342F9D9104A012313730F4B059A1A6126
:101B80001C46069ADA61FEF7D5FFE26A236B9A4299
:101B900073DD02EBD2735B10C4E90E23002184F8DD
:101BA00034102868FFF7FAF8DFE500BF80F00F4037
:101BB0004886FF1FDF9304000086FF1FF8530000D4
:101BC000205400000080FF1FDA0FC9409A99194085
:101BD0000AD7A33B00007A4408216E4801F010FCAC
:101BE00001F0C0FCABE46C4903EBD3724FF0000092
:101BF000521081F834000AF1FF3A28688B63CA63F7
:101C0000FFF7CCF8BAF1FF3F7FF447AFADE500270F
:101C10004FF07E5127E41121604801F0F1FB01F003
:101C2000A1FC5D4A012382F84130FFF7F9FA86E40E
:101C30000027A34504973FF799AB46E4082158488D
:101C400001F0DEFB01F08EFC79E4564D0123A34543
:101C50002B713FF78BAB38E4524D534BAB60A34530
:101C60003FF784AB31E44C4803EBD37252100121AF
:101C7000C0E90E3280F8341074E5474803EBD372A4
:101C800052100121C0E90E3280F8341089E749462C
:101C900002F01AFA29460646204602F015FA814655
:101CA000B5E64FF0010A53443E4D0293504601F011
:101CB00059FD019901F05EFE494601F0A7FD31464C
:101CC00001F09CFC834602F085F90090584602F032
:101CD000BDF9009B83462146184601F097FD394621
:101CE00001F08CFC2C4B21461861584601F08EFD0A
:101CF000414601F083FC284BD861FEF71BFF2649C3
:101D0000D1E90B239A4211DD02EBD2734FF00000B0
:101D10005B1081F834002868CB638A63FFF73EF8D4
:101D2000029B0AF1010A9A45C0D11EE51A4903EB4C
:101D3000D3724FF00100521081F8340028688B6391
:101D4000CA63FFF72BF8029B0AF1010A9A45ADD14D
:101D50000BE5FEF775FBFFF7F2BB0020FFF7DDBBDD
:101D60000020FFF7C9BB002004E40020FFF7F2BB0E
:101D700000230793FFF7E3BB002036E400202AE4AA
:101D80000134FFF7DCBB074DF7E6FEF7E3FC054D3A
:101D9000DEE600BFEC5300000086FF1F4C5300003E
:101DA000305300000080FF1F3333CB41684620F0E2
:101DB00007018D4601B401BC85467047684620F096
:101DC0000701044A8D4601B4136801BC0133136056
:101DD000854670474886FF1F214803E049B9002B1C
:101DE0003CD00C300268D0E90113002AF6D08A42B8
:101DF000F7D0002BF5D010B442EA010414F0030F21
:101E000013D0E4071BD512F8014B01F8014B013B3D
:101E1000002BF1D10C300268D0E90113CAB90029B6
:101E2000F6D1002BF6D110BC7047032BE9D952F83C
:101E3000044B41F8044B043B002BDDD1EAE7012BB6
:101E4000E1D932F9024B21F8024B023B002BD3D1EE
:101E5000E0E78A42DED0002BCED1DBE7704700BF3F
:101E6000705E000088420ED06AB141EA000313F0B0
:101E7000030F09D0DB070FD511F8013B00F8013B38
:101E8000013A002AF1D17047032AF3D951F8043BF3
:101E900040F8043B043AE7E7012AEDD931F9023B67
:101EA00020F8023B023ADFE7014B03B194E77047A9
:101EB000705E0000104A114BD21A0AD0002013F0B5
:101EC000030107D1032A05D9043A43F8041B002A69
:101ED000F5D1704713F0010107D1012A05D0023A6C
:101EE00023F8021B002AEAD1F3E7013A03F8010BB9
:101EF000002AE4D1EDE700BFE88EFF1F0086FF1F38
:101F00002D492E4A2E482F4B30B4886041F24401AF
:101F10004CF22050D0812C4C4FF4E9704DF628152E
:101F2000D58110805C5041F2380028491A5842F49B
:101F3000F0521A508B781C0703D58B7843F00803B6
:101F40008B70234B234A8A242420A02114705870BC
:101F50001A46197093799807FCD51D4A9379D906CA
:101F6000FCD41B4A937903F00C03082BFAD105200B
:101F700043231749107153718B799A06FCD5144A83
:101F800093795B06FCD50F4B114941F244004FF0A9
:101F9000817541F248041D50052520201D51107007
:101FA0008B7903F00C030C2BFAD1064A0A4941F253
:101FB000040330BCD150704700ED00E00020054024
:101FC00000000000007004400000330100D0074012
:101FD0000040064000500640C000050080F3118814
:101FE000704700BF30B41E4A1E4B51791E481F4D2A
:101FF0001F4C01F0E0015171117901F0F8011171EC
:102000001A781C4902F08C0242F050021A705A7879
:1020100002F09C0242F040025A709A7802F0E60206
:102020009A70002302222B70A27280F8493380F844
:1020300014334A6904F50324803422F003024A6110
:102040006269472522F0C0020721626140F8EC5C1A
:1020500040F8F01C83F3118862B630BC704700BFB3
:1020600000F0074000D0074000E100E000E007403A
:1020700000C0074040F00F4008B5FFF741FF0B4B91
:102080001846002807D0854681B04FF000006FEA5F
:102090000000009001B0FFF70DFF054B0BB1FFF7FB
:1020A0009BFEFFF79FFF01F059FEFEE700000020B6
:1020B000705E000038B5041E0EDD4FF6FF75291B5B
:1020C00021EAE17189B2052000F02AFA29460620AA
:1020D000BDE8384000F024BA4FF6FF71052000F04B
:1020E0001FFA04F57F41FF3121EAE17189B2062030
:1020F000BDE8384000F014BA38B5041E0EDD4FF6C6
:10210000FF75291B21EAE17189B2002000F008FA6D
:1021100029460120BDE8384000F002BA4FF6FF71B1
:10212000002000F0FDF904F57F41FF3121EAE17163
:1021300089B20120BDE8384000F0F2B9164B68467C
:102140009A6920F007018D46D20171B402D4DB698F
:10215000DB011DD5104A114B94691D79104E1148B1
:1021600044F080749461D46944F08074D461197827
:102170003269197101EB8501C2F3811200EB810113
:102180001A708A56032A03D012B199680A449A60D9
:1021900071BC8546704700BF00B004404C86FF1FED
:1021A00080F00F4064520000174B68461A6820F018
:1021B00007018D46D20171B402D45B68DB011FD5E3
:1021C000114A124B14685D79114E124844F0807424
:1021D0001460546844F080745460597832695971BD
:1021E00001EB850102F0030200EB81015A708A566F
:1021F000032A05D022B1022A02DCD9680A44DA6037
:1022000071BC8546704700BF00A004404C86FF1F8C
:1022100040F00F4064520000684620F007018D46F0
:102220002DE9F9413F4B1A68120603D4BDE8F94184
:10223000854670471A683C4C22F080021A60276974
:10224000A268A0696669E368BF1A381AF61A01F035
:1022500089FA364901F0DAFA0546384601F082FA81
:10226000334901F0D3FA0146284601F0C7F901F0DD
:10227000A9FC051E37DD4FF6FF78A8EB050121EA22
:10228000E17189B2052000F04BF94146062000F0CB
:1022900047F9E069301A01F065FA244901F0B6FA0D
:1022A0000546304601F05EFA214901F0AFFA0146D9
:1022B000284601F0A3F901F085FC051E22DD4FF64A
:1022C000FF78A8EB050121EAE17189B2002000F056
:1022D00027F94146012000F023F9C4E90676BDE85C
:1022E000F941854670474FF6FF71052000F018F957
:1022F00005F57F41FF3121EAE17189B2062000F046
:102300000FF9C6E74FF6FF71002000F009F905F557
:102310007F41FF3121EAE17189B2012000F000F92B
:10232000DBE700BF009003404C86FF1F0080BB46E8
:1023300000409C45064B0022C3E9062272B6054BBD
:102340001A68502142F008021A60196062B670479C
:102350004C86FF1F0090034008B572B60D4B40221B
:10236000196819601A6062B64FF6FF71052000F017
:10237000D7F84FF6FF71062000F0D2F84FF6FF7144
:10238000002000F0CDF84FF6FF710120BDE80840B5
:1023900000F0C6B800900340334BDFF8ECC01A6879
:1023A00032483349F0B5DFF8E4E0324F324E02EA0A
:1023B0000E0242F480721A601A6802EA0C023A4372
:1023C0001A605A6802EA0E0242F480725A605A6831
:1023D00002EA0C023A435A6000224FF0807380F800
:1023E000582383608C6904EA0E0444F480748C6181
:1023F0008D6905EA0C053D438D61CB6903EA0E0347
:1024000043F48073CB61CC691C4B04EA0C043C435D
:1024100041F23C054FF00077CC6180F8592387608A
:102420007459174F174944F00074745104245C65C3
:1024300008264FF0004550241A60DA645A60DA60CA
:102440005A619E6080F83F2345601C603A6903F53D
:102450004623C2F3811240330A701B690A7103F0EC
:1024600003034B704B71F0BD00A0044000E100E09D
:1024700000B0044000000B010070044000900340D5
:1024800080F00F404C86FF1FFFFFF0FEFFF8FFFEBD
:102490001E481F4B41F23C0130B442581D4D1E4CAA
:1024A00042F0807242500421596500222C2140F2F2
:1024B00083301A60DA645A60DA605A61DA615A620B
:1024C000DA625A63DA635A649860D9601A615961B2
:1024D0009A6159639A63D9631A6469680F48214005
:1024E00041F480616960A968214041F48061A9607C
:1024F0004169214041F4806141618269224042F496
:10250000806209218261196030BC7047007004400C
:102510000080034000B00440FFF8FFFE00C004400C
:10252000074B9B6801339BB223B101FB03F101F51B
:102530000041090C034BC00003449960704700BF81
:102540000080034008800340431E032B13D872B65B
:102550000A4A52F8230060B170B402EB43040588C4
:10256000218A466842F82360491B218262B670BC0A
:10257000704762B670470020704700BF0088FF1F99
:10258000013803280DD8094B03EB8000836972B62C
:102590004BB100201A885B681044002BFAD162B658
:1025A0007047002070471846F9E700BF0088FF1FFA
:1025B000013803280CD872B6074B03EB80008369FF
:1025C00043B100205B680130002BFBD162B670473D
:1025D000002070471846F9E70088FF1F10B472B654
:1025E000264A137813F0080F254B05D0D3F8201294
:1025F00021B3D3F8281281B351780C0705D5D3F84D
:102600004012A9B3D3F8481261B39178090705D5F0
:10261000D3F8601271B3D3F8681229B3D2781207D5
:1026200005D5D3F880223AB3D3F88822F2B162B646
:10263000002283F8A02210BC00F088BE042293F888
:10264000A012104C03EBC20208300139C2E98040ED
:1026500083F8A01262B610BC7047052293F8A0124E
:10266000094CEFE70922F9E70D22F7E71122F5E718
:102670000822E4E70C22E2E71022E0E7A45200007F
:102680000088FF1F88004000C800400070B4441E4E
:10269000032C20D81C4A400102F5007340F01000C2
:1026A000184472B6131993F8A432032B1DD8DFE82F
:1026B00003F00214171903250E8810F0080F2244A6
:1026C00014BFC823882343EA0643083182F8A45282
:1026D000C0E9003162B670BC704708300225EBE7F4
:1026E0000525E9E708300425E6E7A40013199869F1
:1026F00038B1D3F8A83259601444C4F8A81262B6AD
:10270000E9E79961F8E700BF0088FF1F30B4451E74
:10271000032D16D80D4C400104F5007340F0100055
:10272000184472B6631993F8A43263B108300023D9
:102730002C44120442F08002026084F8A43241600A
:1027400062B630BC70470123F2E700BF0088FF1F6C
:10275000684620F007018D462DE9F14FDFF85C92C5
:10276000DFF85C82DFF85CA284B009F5007B3FE013
:102770009D080BEBC506013A716813F00803D4B24B
:10278000A1F1080040F026825BF83520120C97B2C8
:1027900021F8087C002A00F0148259F8242021F83E
:1027A000063C41F8043C002A00F05D82A30009EBDE
:1027B0000302D2F8CC22506009EB44024B44118A48
:1027C000C3F8CC027B18138200F0A2FD002800F0B1
:1027D0004282744A744B16F0080F00F1080008BFDB
:1027E000134670604BF83530704B082283F8802018
:1027F0006E4B93F88040E4B260071CD599F8B8326C
:10280000ABB199F8B92202F0FF032AB1013BDBB268
:1028100089F8B93203B900BE65490A7802F0FF03AE
:102820002AB1013BDBB20B70002B00F080825F4BC2
:10283000042283F8802014F0080300F0F1815B4B40
:1028400093F89030DBB21A0992D19B08594850F89E
:10285000331000EBC304C1F38301013964680C2910
:1028600000F29A80DFE801F08E8E989898989898F8
:10287000539898980700D4E900544B4F40F83370B0
:10288000A9B240F28163002601209942C9F8BC52E6
:10289000C9F8C042C9F8C462C9F81062C9F8186220
:1028A00089F8C80200F29080B1F5D06F80F00583FE
:1028B000B1F5817F00F04C8300F22881802900F07F
:1028C0007882822940F0748104F07F03042B00F2A7
:1028D0006F8130333549A9F8E06211F8233013F0E5
:1028E00002034FEA144400F01984012C89F8E00235
:1028F00000F2658299F8DC022F4D40F00201C90018
:1029000009EB01032404C3F80452C8233EE1D9F8BB
:10291000C4524DB3B9F8E86299F8C81299F8DC22AC
:10292000402E334628BF4023002942F00204A6EB84
:10293000030014BFC827882747EA034709EBC404EC
:1029400080B281F0010182F00102A9F8E80289F861
:10295000C8122B44C4E9807589F8DC2210B93F2ED7
:1029600098BF0023C9F8C432B9F8BC32B3F5A06FE0
:1029700012D10E4B99F8BE2283F89820002389F8D3
:10298000BD3209E0B9F8BC1242F22102914200F0D6
:102990009D81054A40F83320044B012283F894209E
:1029A00022E700BF88004000C80040000020074028
:1029B000D98EFF1F008AFF1FE08AFF1F0088FF1FBC
:1029C000CC200740D020074042F22103994200F07A
:1029D000E78000F2B480B1F5086F00F0FE81B1F538
:1029E000106F40F0E580D9F82022C5F307431106A7
:1029F00089F8B83200F1E982D9F828321A0600F1D4
:102A0000C682D9F830321B0600F1D982D9F83832A3
:102A10001E0600F1CE82D9F840321D0600F1C382B5
:102A2000D9F848321C0600F1B882D9F8503218069D
:102A300000F16E83D9F85832190600F16383D9F892
:102A400060321A0600F14083D9F868321B0600F1A3
:102A50002183D9F870321E0600F14E83D9F87832FE
:102A60001D0600F14383D9F880321C0600F1E38291
:102A7000D9F88832180600F1D882D9F890321906B0
:102A800000F12E83D9F898321A0600F12383A94D5C
:102A900005F11003029305F11803009305F52A735D
:102AA000039305F5337305F529760193002455F852
:102AB000040B28B1476800F049FC3846002FF9D1D3
:102AC000009B45F8044C1868019B43F8044B0193A4
:102AD00028B1476800F03AFC3846002FF9D1009A37
:102AE000337842F8044B0092039A42F8044B039265
:102AF000029A22F8024B023B0292032B00F29181D0
:102B0000DFE813F0D9018C01D9018C0140F20233C6
:102B100099424AD104F07F04042C49D82B0C47D1A8
:102B2000A40004F1804404F5E42499F8DC0294F84C
:102B3000C05040F00201C90045F002051EE242F219
:102B40002123994213D17C497C4B99F8DC02096816
:102B500019607B4C40F00201C5F30743C9002370A4
:102B600009EB01033446C3F80462C8230EE042F2C5
:102B7000213399421CD199F8DC0240F00201C900CE
:102B800009EB01030024C3F80442C82349441C4351
:102B900080F00100C1F8004289F8DC0289F8C822FF
:102BA000684B012283F89420F6E6B1F5A06FE2D0DD
:102BB000644B0F2283F8C020624B012283F89420DB
:102BC000EAE6614A614B16F0080F08BF13464BF85E
:102BD000353009E600F0BAFB09EB84018B69002B64
:102BE00045D009EB0402586892F8A422886103F1E9
:102BF00008017160032A08D8DFE802F002524C583D
:102C000009EB0402032182F8A4121A8816F0080FB7
:102C100014BFC823882343EA02434BF83530E3E569
:102C2000E00700F19780210646D4A20708D5454B5E
:102C300093F888200221D2B283F8882083F880108C
:102C4000E30603D53F4B102283F8802004B0BDE893
:102C5000F14F8546704799F8A0324BF835000133A3
:102C600089F8A032C0E549F82400A300A4E509EBE7
:102C7000040393F8A432032B00F2CC8201A252F891
:102C800023F000BFE9270000E9270000112E000013
:102C9000052E000009EB0402052182F8A412B4E716
:102CA00009EB0402022182F8A412AEE709EB040248
:102CB000042182F8A412A8E7224B80220D2183F878
:102CC000C01083F88020A207BAD5B0E7204A257843
:102CD000617815705170A578E1789570D17025797B
:102CE000116815716579A4799471862999F8DC4287
:102CF000557108BF0F2299F8C81208BF89F8B92288
:102D000044F0020209EBC20284F00104002989F8B0
:102D1000DC424FF00004C2F8044281F0010114BF0C
:102D2000C824882489F8C812C2F8004231E600F0AD
:102D300041FC7CE50088FF1F4886FF1FDC8EFF1FDB
:102D4000DA8EFF1F0020074088004000C8004000C6
:102D5000E08EFF1FD24AD34982F8DC32022081F88C
:102D60009400D14CFF200D2581F8C0509F2681F89A
:102D700088000125C2F8103281F88000C2F81832AC
:102D800081F8983081F88C0002F54B7302F53B70A6
:102D900081F8846081F89450C2F80402C2F80C32C1
:102DA000C2F80042C2F8084204B0BDE8F14F8546BF
:102DB0007047240C012CA9F8E0627FF69BAD99F8CE
:102DC000DC02BA4D40F00201C90009EB01034FF4E7
:102DD0000034C3F80452C823D8E699F8DC0299F805
:102DE000B83289F8E03240F00201C90009EB010372
:102DF000240CAE4DC3F8045214BF4FF480340024A9
:102E0000C823C3E609EB0402012382F8A432EBE4F1
:102E100009EB0402002382F8A432E5E44FF0010339
:102E20003370A34BAB4206F101067FF440AEA14CD8
:102E3000A14A2378137000221B0789F8A02200F111
:102E4000158163789D4A1E0713704FF00002C9F880
:102E50003022C9F8382200F1F480A37888F80030D5
:102E600000221D07C9F85022C9F8582200F1C88075
:102E7000E3788AF8003000221C07C9F87022C9F8EC
:102E8000782200F1A88099F8DC0299F8C82240F075
:102E90000201C900002409EB0103A242C3F8044265
:102EA00082F00102C9F89042C9F8984206BF012297
:102EB0008823C8236AE63470B3E7814B5968002938
:102EC0003FF476AE2D0CA0B204E00C335968002913
:102ED0003FF46EAE1A88AA42F7D15A888242F4D1E2
:102EE0002D0A032D14BF1A890A7899F8DC02230CE5
:102EF000934228BF1346402B80F0010240F00204A9
:102F000040F21D8109EBC404A3F140056D4EC4F8E5
:102F10000062402DC4F8041242F002024FF0000497
:102F200001F1400640F2648109EBC202803B5E4F32
:102F3000C2F8046201259CB289F8DC028031C2F833
:102F4000007289F8C852C9F8C412A9F8E84227E605
:102F500004F07F04042C3FF62BAE2B0C7FF428AE3C
:102F6000A40004F1804404F5E42499F8DC0294F808
:102F7000C05040F00201C90005F0FD0584F8C050C2
:102F800009EB01051C46C5F80432C823FEE5D9F853
:102F90002C02083800F0DAF933E5D9F84C02083889
:102FA00000F0D4F941E5D9F84402083800F0CEF930
:102FB00036E5D9F83C02083800F0C8F92BE5D9F815
:102FC0003402083800F0C2F920E5D9F824020838A4
:102FD00000F0BCF910E500F09BF9002800F0E68055
:102FE0000830C9F884023048C9F8800200F090F92E
:102FF000002800F0D380334B0830C9E9A23042E703
:1030000000F086F9002800F0ED800830C9F864026D
:103010002548C9F8600200F07BF9002800F0DA804A
:10302000284B0830C9E99A3022E7D9F88C020838D1
:1030300000F08CF921E5D9F88402083800F086F90F
:1030400016E500F065F9002800F0BE800830C9F8E8
:1030500044021548C9F8400200F05AF9002800F06F
:10306000AB80184B0830C9E99230F6E600F050F911
:10307000002800F08D800830C9F824020A48C9F8F9
:10308000200200F045F900287AD00E4B0830C9E93B
:103090008A30D6E6D9F86C02083800F057F9D8E43F
:1030A0000088FF1F0020074088004000E08AFF1FC3
:1030B0001088FF1FA4520000C4200740C82007400A
:1030C000A8520000C8004000D9F86402083800F097
:1030D0003DF9B9E4D9F89C02083800F037F9D6E494
:1030E000D9F89402083800F031F9CBE4D9F87C0221
:1030F000083800F02BF9B6E4D9F87402083800F06B
:1031000025F9ABE4D9F85C02083800F01FF996E421
:10311000D9F85402083800F019F98BE4012C3FF675
:103120004EAE99F8DC02414E40F00201C90009EBB5
:1031300001051A462404C5F80462C82326E54FEAAF
:10314000034309EBC40443F0C8034FF00005C4E98E
:10315000803189F8DC2289F8C8527FF421AD42F031
:10316000020209EBC20201F14003C2F804328821D5
:10317000012389F8DC02C2F8001289F8C8320FE591
:1031800099F8A032C9F82802013389F8A03258E62C
:1031900099F8A032013389F8A03270E799F8A0328B
:1031A000C9F88802013389F8A0326CE699F8A03298
:1031B000013389F8A03217E799F8A032C9F848021C
:1031C000013389F8A03248E699F8A032013389F832
:1031D000A0323FE799F8A032C9F86802013389F8B4
:1031E000A03245E699F8A032013389F8A03210E701
:1031F0004FEA054509EBC20245F088054FF001078B
:10320000C2E9805689F8DC02194489F8C8723FF493
:103210009AAEC5E416F0080F09EB040214BF0323AD
:10322000022382F8A432FFF7DFBA00BFE08AFF1F53
:10323000324B3349002270B441F23405C3E9802295
:10324000C3E98222C3E98422C3E98622C3E9882232
:10325000C3E98A22C3E98C22C3E98E22C3E9902202
:10326000C3E99222C3E99422C3E99622C3E99822D2
:10327000C3E99A22C3E99C22C3E99E22C3F88022B3
:103280004859C3F8842240F48020485141F2040296
:103290001C4C8B5841F2480043F4A0238B50052569
:1032A00080220D50234684F80C2193F80C2112063D
:1032B000FBD4154A1548C2F30725C2F30744120E82
:1032C00083F89C50FF2183F8B040012583F8B42097
:1032D00000244FF40076102283F8801083F88810C1
:1032E000197483F8945083F8004183F8845080F86F
:1032F0004943866083F8082170BC70470088FF1F2F
:103300000070044000200740008AFF1F00E100E039
:1033100072B60C480268B2FA82F30B2B0FDC4FF046
:103320000041D94022EA0102026062B6064903EB7D
:10333000C303DB00C8180022CA504260704762B65F
:10334000002070479C80FF1F6C8BFF1F0E4BC31A21
:10335000B3F5587F10D20D4A127872B972B60C4A82
:103360000C49A2FB032308684FF000421B0922FA14
:1033700003F303430B6062B67047074A1278002AD2
:10338000ECD0FFF72BB900BF6C8BFF1FA08AFF1F8B
:10339000398EE3389C80FF1FB88AFF1F38B50F4C69
:1033A000206878B143880288C11801339A420D7AA7
:1033B00002D94380284638BDFFF7C8FF00232360A9
:1033C000284638BD064B1B782BB10320FFF7BCF80D
:1033D00020600028E6D14FF0FF35EBE7CC8EFF1FD1
:1033E000B88AFF1F044B054A1B6890881BB11A88D6
:1033F0005B88D31A18447047CC8EFF1F1088FF1FBC
:103400002DE9F84FDFF85891012789F804708846B4
:10341000002956D00446514ED9F808000D46002820
:1034200063D04388C3F14001A94228BF29465A18F6
:1034300092B200F1080C4FF0000A6D1A428001F1BF
:10344000FF3E9C4489F80CA0A1B303F108020C33A1
:103450000244034404F1040A524538BF9C426CD331
:10346000BEF1070F69D921F0030BA344234653F89B
:1034700004AB42F804AB5B45F9D121F00302914261
:10348000AEEB020E04EB02030CEB020A53D014F86D
:1034900002B00CF802B0BEF1000F08D05A788AF8DA
:1034A0000120BEF1010F1CBF9B788AF80230214435
:1034B00042880C463F2A0AD8052389F80D30002D92
:1034C000ADD10023404689F80430BDE8F88F402391
:1034D000038001460420FFF7D9F800220523C9F82C
:1034E000082089F80D30002DEBD048F6014A05E0A0
:1034F000BAF1010A18D099F80C30ABB9337804202E
:1035000003F0FF021BB3FFF753F80728F0D889F840
:103510000470FFF7FDFEC9F80800002881D1BAF158
:10352000010A89F80400E6D1012389F80C304FF034
:10353000FF30BDE8F88F1946BAE70CF1FF3C214493
:1035400014F8013B0CF8013F8C42F9D1B0E789F83F
:1035500004204FF0FF30BDE8F88F00BFB88AFF1F8E
:10356000CC8EFF1F114B1B788BB170B5104CA5682A
:103570000126267165B100266B88667329462B806B
:103580000420FFF783F8A6600023237170BD704705
:10359000FFF7BEFE38B1014604206573FFF776F8E9
:1035A0000023237170BD6673EEE700BFB88AFF1F6A
:1035B000CC8EFF1F38B50D4C23794BB9A16841B1B2
:1035C00003F0FF054B880B800420FFF75FF8A56030
:1035D00038BDFFF79DFE28B10146BDE83840042004
:1035E000FFF754B80123637338BD00BFCC8EFF1FB3
:1035F00080F0004002E000BF81F0004142001FBFA8
:103600005FEA410392EA030F7FEA226C7FEA236CB0
:103610006AD04FEA1262D2EB1363C1BFD2184140A5
:1036200048404140B8BF5B42192B88BF704710F03B
:10363000004F40F4000020F07F4018BF404211F0DE
:10364000004F41F4000121F07F4118BF494292EA46
:10365000030F3FD0A2F1010241FA03FC10EB0C0072
:10366000C3F1200301FA03F100F0004302D54942FF
:1036700060EB4000B0F5000F13D3B0F1807F06D3AC
:1036800040084FEA310102F10102FE2A51D2B1F1A4
:10369000004F40EBC25008BF20F0010040EA030099
:1036A0007047490040EB000010F4000FA2F1010246
:1036B000EDD1B0FA80FCACF1080CB2EB0C0200FAD0
:1036C0000CF0AABF00EBC25052421843BCBFD0401E
:1036D0001843704792F0000F81F4000106BF80F498
:1036E00000000132013BB5E74FEA41037FEA226C5B
:1036F00018BF7FEA236C21D092EA030F04D092F026
:10370000000F08BF0846704790EA010F1CBF002059
:10371000704712F07F4F04D1400028BF40F00040B6
:10372000704712F100723CBF00F50000704700F0D6
:10373000004343F0FE4040F4000070477FEA2262FD
:1037400016BF08467FEA23630146420206BF5FEACE
:10375000412390EA010F40F4800070474FF00003CE
:1037600004E000BF10F0004348BF40425FEA000C95
:1037700008BF704743F0964301464FF000001CE03D
:1037800050EA010208BF70474FF000030AE000BF93
:1037900050EA010208BF704711F0004302D54042D1
:1037A00061EB41015FEA010C02BF84460146002043
:1037B00043F0B64308BFA3F18053A3F50003BCFA5E
:1037C0008CF2083AA3EBC25310DB01FA02FC63440B
:1037D00000FA02FCC2F12002BCF1004F20FA02F212
:1037E00043EB020008BF20F00100704702F1200205
:1037F00001FA02FCC2F1200250EA4C0021FA02F266
:1038000043EB020008BF20EADC7070474FF0FF0C6A
:103810001CEAD0521EBF1CEAD15392EA0C0F93EA65
:103820000C0F6FD01A4480EA010C400218BF5FEA07
:1038300041211ED04FF0006343EA501043EA51117A
:10384000A0FB01310CF00040B1F5000F3EBF490074
:1038500041EAD3715B0040EA010062F17F02FD2A78
:103860001DD8B3F1004F40EBC25008BF20F001005B
:10387000704790F0000F0CF0004C08BF49024CEA72
:10388000502040EA51207F3AC2BFD2F1FF0340EA04
:10389000C250704740F400004FF00003013A5DDC75
:1038A00012F1190FDCBF00F000407047C2F10002B6
:1038B000410021FA02F1C2F1200200FA02FC5FEAA3
:1038C000310040F1000053EA4C0308BF20EADC70ED
:1038D000704792F0000F00F0004C02BF400010F45F
:1038E000000F013AF9D040EA0C0093F0000F01F00C
:1038F000004C02BF490011F4000F013BF9D041EA2E
:103900000C018FE70CEAD15392EA0C0F18BF93EA2F
:103910000C0F0AD030F0004C18BF31F0004CD8D159
:1039200080EA010000F00040704790F0000F17BFE0
:1039300090F0004F084691F0000F91F0004F14D026
:1039400092EA0C0F01D142020FD193EA0C0F03D17E
:103950004B0218BF084608D180EA010000F0004081
:1039600040F0FE4040F40000704740F0FE4040F45C
:10397000400070474FF0FF0C1CEAD0521EBF1CEAFB
:10398000D15392EA0C0F93EA0C0F69D0A2EB030219
:1039900080EA010C49024FEA402037D04FF08053B3
:1039A00043EA111143EA10130CF000408B4238BF78
:1039B0005B0042F17D024FF4000C8B4224BF5B1A86
:1039C00040EA0C00B3EB510F24BFA3EB510340EAD4
:1039D0005C00B3EB910F24BFA3EB910340EA9C0082
:1039E000B3EBD10F24BFA3EBD10340EADC001B01F2
:1039F00018BF5FEA1C1CE0D1FD2A3FF650AF8B4296
:103A000040EBC25008BF20F0010070470CF0004CA2
:103A10004CEA50207F32C2BFD2F1FF0340EAC250CD
:103A2000704740F400004FF00003013A37E792F08E
:103A3000000F00F0004C02BF400010F4000F013AEC
:103A4000F9D040EA0C0093F0000F01F0004C02BFE7
:103A5000490011F4000F013BF9D041EA0C0195E750
:103A60000CEAD15392EA0C0F08D142027FF47DAFE9
:103A700093EA0C0F7FF470AF084676E793EA0C0FD9
:103A800004D14B023FF44CAF08466EE730F0004CD7
:103A900018BF31F0004CCAD130F000427FF45CAF67
:103AA00031F000437FF43CAF5FE700BF4FF0FF3CD5
:103AB00006E000BF4FF0010C02E000BF4FF0010C28
:103AC0004DF804CD4FEA40024FEA41037FEA226CF1
:103AD00018BF7FEA236C11D001B052EA530C18BF13
:103AE00090EA010F58BFB2EB030088BFC81738BF78
:103AF0006FEAE17018BF40F0010070477FEA226C66
:103B000002D15FEA402C05D17FEA236CE4D15FEA61
:103B1000412CE1D05DF8040B704700BF8446084695
:103B20006146FFE70FB5FFF7C9FF002848BF10F156
:103B3000000F0FBD4DF808EDFFF7F4FF0CBF01209B
:103B400000205DF808FB00BF4DF808EDFFF7EAFF25
:103B500034BF012000205DF808FB00BF4DF808EDE0
:103B6000FFF7E0FF94BF012000205DF808FB00BFD5
:103B70004DF808EDFFF7D2FF94BF012000205DF85B
:103B800008FB00BF4DF808EDFFF7C8FF34BF012068
:103B900000205DF808FB00BF4FEA40024FEA4103F6
:103BA0007FEA226C02D15FEA402C08D17FEA236CC5
:103BB00002D15FEA412C02D14FF0000070474FF074
:103BC000010070474FEA4002B2F1FE4F0FD34FF0B1
:103BD0009E03B3EB12620DD94FEA002343F000437A
:103BE00010F0004F23FA02F018BF404270474FF028
:103BF0000000704712F1610F01D1420205D110F0AF
:103C0000004008BF6FF0004070474FF00000704761
:103C100042000ED2B2F1FE4F0BD34FF09E03B3EB36
:103C2000126209D44FEA002343F0004323FA02F062
:103C300070474FF00000704712F1610F01D142024E
:103C400002D14FF0FF3070474FF00000704700BFC7
:103C50000000000000000000000000000000000064
:103C60000000000000000000000000000000000054
:103C70000000000000000000000000000000000044
:103C800090F800F06DE9024520F007016FF0000C9C
:103C900010F0070491F820F040F049804FF0000444
:103CA0006FF00700D1E9002391F840F000F108001F
:103CB00082FA4CF2A4FA8CF283FA4CF3A2FA8CF357
:103CC0004BBBD1E9022382FA4CF200F10800A4FABE
:103CD0008CF283FA4CF3A2FA8CF3E3B9D1E9042312
:103CE00082FA4CF200F10800A4FA8CF283FA4CF349
:103CF000A2FA8CF37BB9D1E9062301F1200182FA03
:103D00004CF200F10800A4FA8CF283FA4CF3A2FA08
:103D10008CF3002BC6D0002A04BF04301A4612BA16
:103D2000B2FA82F2FDE8024500EBD2007047D1E919
:103D3000002304F00305C4F100004FEAC50514F0A8
:103D4000040F91F840F00CFA05F562EA05021CBF79
:103D500063EA050362464FF00004A9E72DE9F04F3E
:103D60006E4C6F486F49704B704EDFF8E491DFF88E
:103D7000E4A14FF480726261446944F0200444611C
:103D8000846844F020048460CA60586940F00800E8
:103D90005861586840F0080058608A60586940F0DF
:103DA00004005861986840F0040098600A615869FE
:103DB00040F010005861986840F010009860CA61A7
:103DC000586920F0800058614A605A6922F0020266
:103DD0005A61A1B0FEF75CFB4FF6FF710020FEF7C1
:103DE0009FFB4FF6FF710120FEF79AFB4FF6FF7124
:103DF0000520FEF795FB4FF6FF710620FEF790FBBE
:103E0000FEF7CAFAFFF714FAFDF786F9484B49495D
:103E100019604FF07E520121002719719A60BB464C
:103E20003368A3EB0B034B454FD9434D95F8403016
:103E300013B1002385F84030FDF728F80138032836
:103E400006D8DFE800F065403C023C48FCF7B4FBD4
:103E5000FFF7C8FA441E0028E2D0374D4FF00008A3
:103E60001CE01F2815D97E2F13D810F80A3003F054
:103E70000303022B07F10103DBB220AA174408BF9A
:103E800020381A4408BFC0B207F8800C1F4602F859
:103E9000808C013C631CD6F800B0C1D0FFF77EFADD
:103EA00095F84030002BF4D1C0B20A28D9D1002FA8
:103EB000EFD0394668461F46FDF73EFAE9E720484D
:103EC000FCF77AFBC4E7FCF745FCFCF7DFFF0138A1
:103ED0000328BDD801A353F820F000BFED3E000039
:103EE000C73E0000BF3E00004B3E00001548124D8B
:103EF000FCF762FB1448FCF75FFB012385F84030B8
:103F0000FDF720F81148FCF757FBD6F800B09FE703
:103F10000C48FCF751FBFDF783F999E700B004402A
:103F200080F00F4000C00440C0F00F404886FF1FE3
:103F30000080FF1F0000B4420086FF1F6454000091
:103F40004C5400007C5400009854000020540000A1
:103F500090D0030099580000F8B520F00047FC0D00
:103F60007F3C162C054626DC002C064614DB174F3A
:103F7000274138421DD01649FFF740FB0021FFF7CB
:103F800001FEB0B1002D04DD4FF4000343FA04F448
:103F9000264426EA0700F8BD0D49FFF72FFB002154
:103FA000FFF7F0FD28B1002D0CDB17B14FF07E506C
:103FB000F8BD2846F8BDB7F1FF4FFAD30146FFF729
:103FC0001DFBF8BD4FF00040F8BD00BFFFFF7F00B4
:103FD000CAF2497100B51C4A20F00043934283B0F5
:103FE00018DDB3F1FF4F05DB0146FFF705FB03B01A
:103FF0005DF804FB694600F01DF900F00302012A98
:104000000ED0022A18D092B101220199009800F036
:1040100009FFECE7002100F0D7FA03B05DF804FBDC
:104020000199009800F0FEFE00F10040DFE70199E1
:10403000009800F0C9FADAE70199009800F0C4FA94
:1040400000F10040D3E700BFD80F493F00B51D4A3B
:1040500020F00043934283B019DDB3F1FF4F05DB3D
:104060000146FFF7C9FA03B05DF804FB694600F0AA
:10407000E1F800F00300012810D0022819D090B117
:104080000199009800F0A0FA00F10040EBE700224F
:10409000002100F0C7FE03B05DF804FB0199009811
:1040A00000F092FADFE701220199009800F0BAFED1
:1040B000D9E701220199009800F0B4FE00F1004018
:1040C000D1E700BFD80F493F00F024B838B5044607
:1040D00000F024FA0E4B93F900300133054609D065
:1040E00021462046FFF758FD20B920460021FFF762
:1040F0002BFD08B9284638BD01F0AEF80021212378
:1041000003600846FFF736FC0546284638BD00BF69
:10411000A080FF1FF8B50D4621F00041B1F1FF4F1F
:10412000034614DC20F00046B6F1FF4F07460EDCD4
:10413000B5F17E5F3ED0AC1704F0020444EAD074BF
:1041400056B9022C29D0032C00D13148F8BD1946AC
:104150002846FFF753FAF8BDD9B1B1F1FF4F1ED091
:10416000B6F1FF4F15D0711AC9153C2926DC002D78
:1041700030DA3C312EDA0020012C3CD0022C32D037
:10418000002CE3D02349FFF739FA2349FFF734FA2B
:10419000F8BD002F1CDB2148F8BD1F48F8BDB6F163
:1041A000FF4F0DD0022CF8D0032CCED0012C25D0FF
:1041B0000020F8BDBDE8F84000F0AABE1748DBE7D4
:1041C000022C22D0032C1ED0012C1AD01448F8BD8A
:1041D0001448F8BD29461846FFF7CCFB00F0A6FFAF
:1041E00000F096FEC8E70B49FFF708FA01460A48B7
:1041F000FFF702FAF8BD00F10040F8BD4FF00040B3
:10420000F8BD0948F8BD0948F8BD0948F8BD00BF28
:10421000DB0F49C02EBDBB33DB0F4940DB0FC93F6D
:10422000DB0F493FDB0FC9BFDB0F49BFE4CB16C033
:10423000E4CB16402DE9F04FAB4A20F00044944205
:1042400089B06EDDA94A944206460D461CDC002862
:1042500024F00F04A64940F31E81FFF7CDF9A54BCA
:104260009C4206466CD0A449FFF7C6F90146286077
:104270003046FFF7C1F9A049FFF7BEF90127686092
:10428000384609B0BDE8F08F9C4A94426DDDB4F128
:10429000FF4F4EDAE715863FA4EBC7542046FFF7E1
:1042A00091FCFFF75FFA0346014620460593FFF7AE
:1042B000A3F94FF08741FFF7A9FA8046FFF782FC88
:1042C000FFF750FA0146044640460694FFF794F97A
:1042D0004FF08741FFF79AFA00210790FFF72AFC79
:1042E000002800F0B68020460021FFF723FC0028BC
:1042F00014BF01230223824A019202213A4600910F
:1043000005A8294600F024FA002E0746B8DAD5E9B8
:10431000002302F1004203F1004347422A606B6030
:10432000AEE700270022086038464A6009B0BDE8C1
:10433000F08F0146FFF760F90027686028609FE76B
:104340007049FFF759F970490446FFF755F90146DE
:1043500028602046FFF750F96B49FFF74DF9012718
:104360006860384609B0BDE8F08F00F0DFFE6749AD
:104370008046FFF74BFA4FF07C51FFF73FF9FFF70C
:1043800021FC0746FFF7EEF959498346FFF73EFA4D
:1043900001464046FFF730F9574981465846FFF736
:1043A00035FA1F2F82460146484620DCFFF724F9E4
:1043B000574A791E24F0FF0352F821209342804689
:1043C00018D0C5F8008041464846FFF715F9514618
:1043D000FFF712F9002E6860BFF652AF08F10048EF
:1043E00000F10040C5F8008068607F4248E7FFF7B1
:1043F00003F98046E215C8F3C753D31A082BE0DD52
:10440000404903925846FFF701FA80460146484664
:10441000FFF7F2F8014604464846FFF7EDF841463B
:10442000FFF7EAF8384980465846FFF7EFF941466A
:10443000FFF7E2F8014682462046FFF7DDF8039ACF
:10444000C0F3C753D21A192A804604DC2860A1465B
:10445000B9E703234FE72F495846FFF7D7F98046BE
:1044600001462046FFF7C8F8014681462046FFF77F
:10447000C3F84146FFF7C0F8274904465846FFF7FE
:10448000C5F92146FFF7B8F8014682464846FFF7CE
:10449000B3F8804695E7FFF7B1F8164B9C42064605
:1044A0000ED01549FFF7AAF8014628603046FFF7FD
:1044B000A3F81149FFF7A2F84FF0FF376860DFE675
:1044C0001049FFF79BF810490446FFF797F801469B
:1044D00028602046FFF790F80B49FFF78FF84FF060
:1044E000FF376860CCE600BFD80F493FE3CB1640EA
:1044F000800FC93FD00FC93F43443537800F494330
:10450000285500000044353708A3852E84F9223F42
:10451000A854000000A3852E32318D2420F00042E3
:10452000B2F1FF4FF8B5044630D272B3002803460B
:104530003FDB14F0FF4F4FEAE0502ED0C3F31603D9
:104540007F3843F40002C1074FF000064FEA4203F0
:104550004FEA600748BF9300314619244FF080723C
:104560008D189D4202DC5B1BA9181644013C4FEAE2
:1045700043034FEA5202F3D113B1013626F001068C
:10458000701000F17C5000EBC750F8BD0146FFF7FA
:104590003DF92146FFF732F8F8BD14F4000201D0CE
:1045A0000EE00A465B001C0202F10101F9D5801AF7
:1045B000C4E70146FFF720F80146FFF7DBF9F8BD35
:1045C0004FF0FF32F3E700BF2DE9F84320F000453C
:1045D000B5F1485F06460F4649DAFFF7F3FA0028BF
:1045E00000F09D8031463046FFF710F94E490446F1
:1045F000FFF70CF94D49FFF701F82146FFF706F9DF
:104600004B49FEF7F9FF2146FFF700F94949FEF74C
:10461000F5FF2146FFF7FAF84749FEF7EDFF21467F
:10462000FFF7F4F84549FEF7E9FF2146FFF7EEF8FA
:1046300080464FF07C512046FFF7E8F8414605469A
:104640002046FFF7E3F8394604463046FFF7DEF828
:1046500001462046FEF7D0FF01462846FEF7CCFF74
:1046600001464FF07E50FEF7C7FFBDE8F8830146D4
:10467000FFF7CCF82C490446FFF7C8F82B49FEF7A2
:10468000BDFF2146FFF7C2F82949FEF7B5FF2146D5
:10469000FFF7BCF82749FEF7B1FF2146FFF7B6F850
:1046A0002549FEF7A9FF2146FFF7B0F82349FEF799
:1046B000A5FF2146FFF7AAF8214B9D428046B8DDB1
:1046C000204B9D4227DC05F17F4529464FF07E5067
:1046D000FEF792FF81464FF07C512046FFF796F897
:1046E0002946FEF789FF414605462046FFF78EF82A
:1046F000394604463046FFF789F801462046FEF762
:104700007BFF01462846FEF777FF01464846FEF745
:1047100073FFBDE8F883DFF834900B4DDBE74FF013
:104720007E50BDE8F88300BF4ED747ADF6740F3119
:104730007CF29334010DD037610BB63AABAA2A3D17
:104740009999993E0000483F0000903E0000383F94
:104750002DE9F04FDDB0A34C669D0991591E54F828
:1047600025400191111D039406930B920546C0F25A
:104770009882D31E44BF13460433DB1005930133E4
:10478000DB000A93DDE90A239B1A0493059A019B37
:10479000D61A039A12EB030818D408F10108002472
:1047A000B04420AFDDF89C9108E059F82600FEF7F0
:1047B000D9FF0136464547F8040B07D0002EF4DA3E
:1047C00001362046464547F8040BF7D1039B002BE2
:1047D000C0F20683069B03999B002A1FD5180292FC
:1047E00020AA89000093D71849AB079103EB010871
:1047F00048AE4FF00009019B002BB8BFCB460FDB42
:10480000029CBA46CB465AF8041D54F8040FFEF732
:10481000FDFF01465846FEF7F1FEAC428346F2D159
:1048200046F804BB464507F10407E4D10099029815
:10483000079A039E0144A2F108030D460CA90B44FC
:1048400007930BAB134408934FEA86095CAB4B44C8
:10485000002E53F850AC22DD0DF5907808EB86045D
:104860000CAF4FF06E515046FEF7D0FFFFF7AAF99C
:10487000FEF778FF4FF087418346FEF7C7FF0146FA
:104880005046FEF7B9FEFFF79DF954F8041D47F8AE
:10489000040B5846FEF7B2FE44458246E1D1049F20
:1048A0005046394600F084FC4FF078510446FEF73C
:1048B000ADFF00F03FFC4FF08241FEF7A7FF01463D
:1048C0002046FEF799FE0446FFF77CF98246FEF784
:1048D00049FF01462046FEF78FFE002F044640F3B5
:1048E0008380711E0CAAC7F1080352F8212042FAF6
:1048F00003F000FA03F3D31AC7F107080CAA43FA2E
:1049000008F8B8F1000F42F82130824477DC00212A
:104910002046FFF70FF9002800F0B480039B771EB4
:10492000BB4210DC06F180430CAA013B089802EB65
:104930008303002253F80419834242EA0102F9D1A9
:10494000002A40F0F880039B0CAA013B52F8233068
:10495000002B40F0EA80079B012753F80429013718
:10496000002AFAD006F1010AF3190093D046059BFC
:104970000AEB0309069B9C1920AB09F1804903EB64
:104980008404679B09F1FF3903EB890948AB03EB0A
:104990008A0A59F8040FFEF7E5FE019B2646002B14
:1049A00046F8040B1BDB043CDDF808B0002701E0EF
:1049B00054F804095BF8041FFEF728FF0146384647
:1049C000FEF71CFEAB450746F2D1009B4AF8047B7C
:1049D00008F1010898453446DBDD1E4634E7002720
:1049E000F3E700BF6C58000040F09680731E0CAADD
:1049F00052F823304FEA2328B8F1000F87DD002E4C
:104A00000AF1010A40F3CF810C9F002F6CD1012ED7
:104A100009D00CA9012251F8047F531C002F65D145
:104A20009E421A46F7D1049B002B0DDD012B00F0AE
:104A30002E81022B08D1721E0CAB0CA953F8223028
:104A400003F03F0341F82230B8F1020F7FF45FAF6B
:104A500021464FF07E50FEF7CFFD0446002F3FF475
:104A600056AF04994FF07E5000F0A2FB014620465D
:104A7000FEF7C2FD044600212046FFF75BF8002840
:104A80007FF44CAFDDE90A322046991ACDF8048054
:104A900000F08EFB4FF087410446FFF769F80028CD
:104AA00000F083814FF06E512046FEF7AFFEFFF716
:104AB00089F8FEF757FE4FF087410546FEF7A6FE40
:104AC00001462046FEF798FDFFF77CF80CAB771CFB
:104AD00043F826002846FFF775F8049B0833049333
:104AE0000CAB43F827003CE0012300220CA9C7F5DA
:104AF00080779E4241F822700CDD51F823208944D2
:104B000001EB830300E01A68C2F1FF0243F8042BB3
:104B10004B45F8D1012786E74FF07C51FFF728F885
:104B2000002840F0C3808046F1E606F1010AD04635
:104B3000CDF800A01BE70CAB049A53F82730CDF852
:104B40000480083A049263B906F18043023B0CA941
:104B500001EB830353F80419013F083A0029F9D007
:104B6000049204994FF07E5000F022FB002F04467F
:104B7000C0F23F814FEA870848AA08F10403904435
:104B80000CAA04934FF06E5602EB030908F10405DA
:104B900059F8040DFEF7E6FD2146FEF737FE3146D3
:104BA00045F8040D2046FEF731FE0CAB994504464E
:104BB000EED1DDF80C90CDF814A034ABB9F1000FB4
:104BC0000293A8F104084FF000069B46009723DBF0
:104BD000924D934847464FF0000A002403E0B44248
:104BE0000DDC55F8040F57F8041FFEF70FFE0146C1
:104BF0005046FEF703FD0134A1458246EFDA009AE4
:104C00004BF804AB9642A8F1040806F1010306D064
:104C1000B9F1000F1E46DBDA4FF0000AEFE7669BA2
:104C2000DDF814A0009F032B2CD8DFE803F0A602C8
:104C30000250049B1D46029B002420461D441C4636
:104C400055F8041DFEF7DAFCAC42F9D1044634985D
:104C50002146FEF7D1FC019B002B40F0AE80099B62
:104C6000002F1C600CDD34AD0124013455F8041F05
:104C7000FEF7C4FCA742F8DA019B0BB100F100403B
:104C8000099B58600AF007005DB0BDE8F08F721E06
:104C90000CAB0CA953F8223003F07F0341F822300B
:104CA000D2E608230A93002305936BE5002E0AF150
:104CB000010AC8BF4FF002083FF7A6AE21464FF0E9
:104CC0007E50FEF799FC4FF0020804461FE6002FC5
:104CD00040F3A280BD005CAB2B4434AA53F8A08CF7
:104CE00002925419934654F8049C41464846FEF7F4
:104CF00085FC064601464846FEF77EFC4146FEF727
:104D00007DFC206044F8046DA345B046EBD1012F33
:104D100040F382805CAB2B44029A53F8A08C15447C
:104D20002C4635AF54F8049C41464846FEF766FCD5
:104D3000064601464846FEF75FFC4146FEF75EFC2C
:104D4000206044F8046DA742B046EBD1029C0020DD
:104D50000435083455F8041DFEF750FCAC42F9D177
:104D60000199349A359B81BB09990A604B60886030
:104D70000AF007005DB0BDE8F08F049B029D1C4661
:104D800000202C4454F8041DFEF738FCA542F9D14C
:104D9000019B0BB100F10040099B18600AF007006D
:104DA0005DB0BDE8F08F00273DE62046FEF70AFF24
:104DB0000CAB374643F82600D3E6099B04F10044C8
:104DC000002F1C603FF74FAF58E7099902F10042EE
:104DD00003F1004300F100400A604B608860C7E7C0
:104DE0002B1F0293069B9B000093039B9B00079342
:104DF0001CE5669B032B3FF645AF01A252F823F05A
:104E0000154E0000114E0000114E0000CF4C000066
:104E100000241CE70020BBE70020A1E74058000069
:104E20000000C93F2DE9F84320F00043B3F1485F8B
:104E300004460F46904603DAFEF7C4FE002858D019
:104E400021462046FEF7E2FC054601462046FEF7D5
:104E5000DDFC294906462846FEF7D8FC2749FEF71F
:104E6000CBFB2946FEF7D2FC2549FEF7C7FB2946B6
:104E7000FEF7CCFC2349FEF7BFFB2946FEF7C6FC34
:104E80002149FEF7BBFB8146B8F1000F22D04FF05D
:104E90007C513846FEF7BAFC494680463046FEF75C
:104EA000B5FC01464046FEF7A7FB2946FEF7AEFCDF
:104EB0003946FEF7A1FB154905463046FEF7A6FC2C
:104EC00001462846FEF79AFB01462046FEF794FB72
:104ED000BDE8F88301462846FEF798FC0B49FEF72B
:104EE0008BFB3146FEF792FC2146FEF787FBBDE8BF
:104EF000F8832046BDE8F883D3C92E2F342FD7324C
:104F00001BEF3836010D50398988083CABAA2A3E80
:104F10002DE9F04120F00045B5F1A14F04460646C9
:104F200008DBB5F1FF4F73DC002840F381806B484C
:104F3000BDE8F0816A4B9D4200F38280B5F1445F89
:104F40006BDB4FF0FF3721462046FEF75FFC014642
:104F50008046FEF75BFC63490546FEF757FC624955
:104F6000FEF74CFB2946FEF751FC6049FEF746FB75
:104F70002946FEF74BFC5E49FEF740FB2946FEF74B
:104F800045FC5C49FEF73AFB2946FEF73FFC5A49CF
:104F9000FEF734FB4146FEF739FC58498046284667
:104FA000FEF734FC5649FEF727FB2946FEF72EFC98
:104FB0005449FEF721FB2946FEF728FC5249FEF72B
:104FC0001BFB2946FEF722FC5049FEF715FB29463C
:104FD000FEF71CFC01464046FEF710FB2146FEF79B
:104FE00015FC7B1C014626D0494B4A4D53F827102F
:104FF000FEF702FB2146FEF7FFFA014655F82700AF
:10500000FEF7FAFA002E93DA00F10040BDE8F081D5
:105010000146FEF7F3FABDE8F0813F49FEF7EEFAEC
:105020004FF07E51FEF7AEFD00288AD020467FE784
:105030003A48BDE8F0812046FEF7DEFABDE8F0818F
:1050400000F074F8364B9D42044617DCA3F5D003FC
:105050009D4232DC0146FEF7D1FA4FF07E51FEF759
:10506000CBFA4FF0804105462046FEF7C7FA0146CD
:105070002846FEF77FFC0027044664E7294B9D4243
:1050800014DC4FF07F51FEF7B7FA4FF07F51054621
:105090002046FEF7BBFB4FF07E51FEF7AFFA01460C
:1050A0002846FEF767FC022704464CE701461E48E7
:1050B000FEF760FC0327044645E74FF07E51FEF7FC
:1050C0009BFA4FF07E5105462046FEF797FA0146BF
:1050D0002846FEF74FFC0127044634E7DB0FC93FA3
:1050E000FFFFDF3ED769853C59DA4B3D356B883D84
:1050F0006E2EBA3D2549123EABAAAA3E21A215BD8D
:105100006BF16E3D95879D3D388EE33DCDCC4C3E99
:105110008858000078580000CAF24971DB0FC9BFF7
:10512000FFFF973FFFFF1B40000080BF20F00040C3
:10513000704700BFF8B520F00047FC0D7F3C162CEF
:10514000054624DC002C064614DB164F2741384266
:105150001BD01549FEF752FA0021FEF713FDA0B14E
:10516000002D04DA4FF4000343FA04F4264426EA3F
:105170000700F8BD0C49FEF741FA0021FEF702FDD9
:1051800018B1002D0ADB0020F8BD2846F8BDB7F1A4
:10519000FF4FFAD30146FEF731FAF8BD002FF4D0E5
:1051A0000248F8BDFFFF7F00CAF24971000080BFCE
:1051B00010B50C4630F0004103461BD0B1F1FF4F53
:1051C00019D210F0FF4F024619D14FF09841FEF767
:1051D0001DFB1E4A944203462ADB0246C0F3C75019
:1051E00019382044FE280EDD1949184661F31E00C7
:1051F000FEF70CFB10BD0146FEF700FA10BDC80D0E
:105200002044FE28F0DC00280DDC10F1160F13DA24
:105210004CF250329442E7DC0E49184661F31E000E
:10522000FEF7F4FA10BD22F0FF4242EAC05010BD72
:105230000849FEF7EBFA10BD22F0FF42193042EAAE
:10524000C0504FF04C51FEF7E1FA10BDB03CFFFFEB
:10525000CAF249716042A20D014B1868704700BF45
:10526000A480FF1F0001FF03FF00020101FE00FFF9
:1052700003FF01000001FFFEFF000301010300FF27
:1052800002FF01000001FF02FF000301010300FF14
:10529000FEFF01000001FF03FF00FE01010200FF0D
:1052A00003FF010000151915000100008880FF1F91
:1052B00012000000000200004480FF1F43000000B5
:1052C000000300004080FF1F0000000001030904EC
:1052D0002880FF1F00000000020309041080FF1F48
:1052E00000000000000000000000000000000000BE
:1052F0002A20456E746572696E6720626F6F746CE8
:105300006F616465720D0A002A20556E6C6F6164CE
:10531000696E670D0A0000002A204C6F6164696E97
:10532000670D0A002A20446F6E650D0A0000000018
:105330006875683F20470D0A000000002A206C6F46
:105340006164696E67206D61740D0A002A20756EB4
:105350006C6F6164696E67206D61740D0A000000F6
:105360002A202D2D205465656E7379434E432052BB
:105370006576203220536570202037203230313955
:105380002031323A33323A3238202D2D7C43726547
:10539000617465642062793A7C202D204D617474BB
:1053A0002057696C6C69616D737C776974682061E2
:1053B00064646974696F6E732062793A7C202D2071
:1053C000416C756E204A6F6E65732028323031381B
:1053D000297C202D205761796E6520486F6C6465AB
:1053E00072202832303139290D0A00006875683F73
:1053F000204D0D0A000000006F6B0D0A0000000038
:105400002A20486561642077656E74206F7574206A
:105410006F6620626F756E6473210D0A00000000D4
:1054200063616E63656C6C65640D0A002A20696CAB
:105430006C6567616C202763616E63656C6C696E77
:1054400067272073746174650D0A00002A20504F8D
:105450005745525F53484F52545F50524553530D76
:105460000A0000002A20504F5745525F4C4F4E47CC
:105470005F50524553530D0A000000002A204C6F24
:10548000616420427574746F6E207761732070724E
:1054900065737365640D0A002A2043616E63656C51
:1054A0006C696E670D0A0000000FC93F000F49408C
:1054B00000CB9640000FC9400053FB4000CB164183
:1054C00000ED2F41000F49410031624100537B4103
:1054D000003A8A4100CB9641005CA34100EDAF4108
:1054E000007EBC41000FC94100A0D5410031E2411E
:1054F00000C2EE410053FB4100F20342003A0A426F
:105500000083104200CB164200141D42005C23426F
:1055100000A5294200ED2F4200363642007E3C4273
:1055200000C74242000F4942A2000000F9000000FB
:10553000830000006E0000004E00000044000000E8
:105540001500000029000000FC00000027000000FA
:1055500057000000D1000000F500000034000000FA
:10556000DD000000C0000000DB0000006200000061
:1055700095000000990000003C000000430000007E
:105580009000000041000000FE00000051000000FB
:1055900063000000AB000000DE000000BB00000064
:1055A000C500000061000000B700000024000000FA
:1055B0006E0000003A000000420000004D000000B4
:1055C000D2000000E00000000600000049000000DA
:1055D0002E000000EA00000009000000D1000000D9
:1055E000920000001C000000FE0000001D000000F2
:1055F000EB0000001C000000B100000029000000CA
:10560000A70000003E000000E8000000820000004B
:1056100035000000F50000002E000000BB00000077
:105620004400000084000000E90000009C0000002D
:105630007000000026000000B40000005F000000C1
:105640007E000000410000003900000091000000D1
:10565000D600000039000000830000005300000065
:1056600039000000F40000009C00000084000000ED
:105670005F0000008B000000BD000000F90000008A
:10568000280000003B0000001F000000F8000000A0
:1056900097000000FF000000DE0000000500000091
:1056A000980000000F000000EF0000002F00000035
:1056B000110000008B0000005A0000000A000000EA
:1056C0006D0000001F0000006D00000036000000AB
:1056D0007E000000CF00000027000000CB0000008B
:1056E00009000000B70000004F0000004600000065
:1056F0003F000000660000009E0000005F00000008
:10570000EA0000002D0000007500000027000000E6
:10571000BA000000C7000000EB000000E500000038
:10572000F10000007B0000003D00000007000000C9
:1057300039000000F70000008A000000520000005D
:1057400092000000EA0000006B000000FB00000077
:105750005F000000B10000001F0000008D0000008D
:105760005D0000000800000056000000030000007B
:105770003000000046000000FC0000007B0000003C
:105780006B000000AB000000F0000000CF00000044
:10579000BC000000200000009A000000F40000009F
:1057A000360000001D000000A9000000E30000001A
:1057B00091000000610000005E000000E6000000B3
:1057C0001B000000080000006500000099000000B8
:1057D000850000005F00000014000000A000000031
:1057E00068000000400000008D000000FF00000085
:1057F000D8000000800000004D0000007300000091
:105800002700000031000000060000000600000034
:105810001500000056000000CA00000073000000E0
:10582000A8000000C900000060000000E2000000C5
:105830007B000000C00000008C0000006B00000036
:105840000000C93F0000F0390000DA370000A23341
:105850000000842E0000502B0000C2270000D02240
:105860000000C41F0000C61B000044170400000015
:1058700007000000090000003863ED3EDA0F493FE1
:105880005E987B3FDA0FC93F6937AC31682122331C
:10589000B40F14336821A2330020202020202020C0
:1058A00020202828282828202020202020202020D0
:1058B00020202020202020202088101010101010E0
:1058C000101010101010101010040404040404042C
:1058D00004040410101010101010414141414141C6
:1058E00001010101010101010101010101010101A8
:1058F00001010101101010101010424242424242B8
:105900000202020202020202020202020202020277
:10591000020202021010101020000000000000001F
:105920000000000000000000000000000000000077
:105930000000000000000000000000000000000067
:105940000000000000000000000000000000000057
:105950000000000000000000000000000000000047
:105960000000000000000000000000000000000037
:105970000000000000000000000000000000000027
:105980000000000000000000000000000000000017
:10599000000000000000000000000000A880FF1FC1
:1059A0000000B442010000000000803F01FF000041
:1059B000160355005300420020005300650072009A
:1059C000690061006C000000180354006500650068
:1059D0006E00730079006400750069006E006F004E
:1059E0000403090409024300020100C03209040053
:1059F000000102020100052400100105240101013B
:105A00000424020605240600010705820310004055
:105A100009040100020A000000070503024000001B
:105A2000070584024000000012011001020000403E
:105A3000C01683047502010200010000FFFFFFFF92
:105A4000FF000000A880FF1F000000009483FF1FDC
:105A5000FC83FF1F6484FF1F0000000000000000A3
:105A60000000000000000000000000000000000036
:105A70000000000000000000000000000000000026
:105A80000000000000000000000000000000000016
:105A90000000000000000000000000000000000006
:105AA00000000000000000000000000000000000F6
:105AB00000000000000000000000000000000000E6
:105AC00000000000000000000000000000000000D6
:105AD00000000000000000000000000000000000C6
:105AE00000000000000000000000000000000000B6
:105AF00001000000000000000E33CDAB34126DE653
:105B0000ECDE05000B0000000000000000000000BB
:105B10000000000000000000000000000000000085
:105B20000000000000000000000000000000000075
:105B30000000000000000000000000000000000065
:105B40000000000000000000000000000000000055
:105E7000A05900000080FF1FD0040000705E0000E9
:105E800000000020000000000000000000000000F2
:045E9000000000000E
:040000030000207960
:00000001FF
